{
  "contractName": "CO2Accounting",
  "abi": [
    {
      "inputs": [],
      "stateMutability": "nonpayable",
      "type": "constructor"
    },
    {
      "anonymous": false,
      "inputs": [
        {
          "indexed": true,
          "internalType": "address",
          "name": "owner",
          "type": "address"
        },
        {
          "indexed": true,
          "internalType": "address",
          "name": "spender",
          "type": "address"
        },
        {
          "indexed": false,
          "internalType": "uint256",
          "name": "value",
          "type": "uint256"
        }
      ],
      "name": "Approval",
      "type": "event"
    },
    {
      "anonymous": false,
      "inputs": [
        {
          "indexed": false,
          "internalType": "address",
          "name": "from",
          "type": "address"
        },
        {
          "indexed": false,
          "internalType": "uint256",
          "name": "amount",
          "type": "uint256"
        }
      ],
      "name": "Compensation",
      "type": "event"
    },
    {
      "anonymous": false,
      "inputs": [
        {
          "indexed": false,
          "internalType": "address",
          "name": "recipient",
          "type": "address"
        },
        {
          "indexed": false,
          "internalType": "uint256",
          "name": "amount",
          "type": "uint256"
        }
      ],
      "name": "Congestion",
      "type": "event"
    },
    {
      "anonymous": false,
      "inputs": [
        {
          "indexed": false,
          "internalType": "address",
          "name": "to",
          "type": "address"
        },
        {
          "indexed": false,
          "internalType": "uint256",
          "name": "amount",
          "type": "uint256"
        }
      ],
      "name": "Emission",
      "type": "event"
    },
    {
      "anonymous": false,
      "inputs": [
        {
          "indexed": true,
          "internalType": "bytes32",
          "name": "role",
          "type": "bytes32"
        },
        {
          "indexed": true,
          "internalType": "bytes32",
          "name": "previousAdminRole",
          "type": "bytes32"
        },
        {
          "indexed": true,
          "internalType": "bytes32",
          "name": "newAdminRole",
          "type": "bytes32"
        }
      ],
      "name": "RoleAdminChanged",
      "type": "event"
    },
    {
      "anonymous": false,
      "inputs": [
        {
          "indexed": true,
          "internalType": "bytes32",
          "name": "role",
          "type": "bytes32"
        },
        {
          "indexed": true,
          "internalType": "address",
          "name": "account",
          "type": "address"
        },
        {
          "indexed": true,
          "internalType": "address",
          "name": "sender",
          "type": "address"
        }
      ],
      "name": "RoleGranted",
      "type": "event"
    },
    {
      "anonymous": false,
      "inputs": [
        {
          "indexed": true,
          "internalType": "bytes32",
          "name": "role",
          "type": "bytes32"
        },
        {
          "indexed": true,
          "internalType": "address",
          "name": "account",
          "type": "address"
        },
        {
          "indexed": true,
          "internalType": "address",
          "name": "sender",
          "type": "address"
        }
      ],
      "name": "RoleRevoked",
      "type": "event"
    },
    {
      "anonymous": false,
      "inputs": [
        {
          "indexed": true,
          "internalType": "address",
          "name": "from",
          "type": "address"
        },
        {
          "indexed": true,
          "internalType": "address",
          "name": "to",
          "type": "address"
        },
        {
          "indexed": false,
          "internalType": "uint256",
          "name": "value",
          "type": "uint256"
        }
      ],
      "name": "Transfer",
      "type": "event"
    },
    {
      "inputs": [],
      "name": "COMPENSATOR_ROLE",
      "outputs": [
        {
          "internalType": "bytes32",
          "name": "",
          "type": "bytes32"
        }
      ],
      "stateMutability": "view",
      "type": "function",
      "constant": true
    },
    {
      "inputs": [],
      "name": "DEFAULT_ADMIN_ROLE",
      "outputs": [
        {
          "internalType": "bytes32",
          "name": "",
          "type": "bytes32"
        }
      ],
      "stateMutability": "view",
      "type": "function",
      "constant": true
    },
    {
      "inputs": [],
      "name": "EMITTER_ROLE",
      "outputs": [
        {
          "internalType": "bytes32",
          "name": "",
          "type": "bytes32"
        }
      ],
      "stateMutability": "view",
      "type": "function",
      "constant": true
    },
    {
      "inputs": [
        {
          "internalType": "address",
          "name": "owner",
          "type": "address"
        },
        {
          "internalType": "address",
          "name": "spender",
          "type": "address"
        }
      ],
      "name": "allowance",
      "outputs": [
        {
          "internalType": "uint256",
          "name": "",
          "type": "uint256"
        }
      ],
      "stateMutability": "view",
      "type": "function",
      "constant": true
    },
    {
      "inputs": [
        {
          "internalType": "address",
          "name": "spender",
          "type": "address"
        },
        {
          "internalType": "uint256",
          "name": "amount",
          "type": "uint256"
        }
      ],
      "name": "approve",
      "outputs": [
        {
          "internalType": "bool",
          "name": "",
          "type": "bool"
        }
      ],
      "stateMutability": "nonpayable",
      "type": "function"
    },
    {
      "inputs": [
        {
          "internalType": "address",
          "name": "account",
          "type": "address"
        }
      ],
      "name": "balanceOf",
      "outputs": [
        {
          "internalType": "uint256",
          "name": "",
          "type": "uint256"
        }
      ],
      "stateMutability": "view",
      "type": "function",
      "constant": true
    },
    {
      "inputs": [
        {
          "internalType": "address",
          "name": "spender",
          "type": "address"
        },
        {
          "internalType": "uint256",
          "name": "subtractedValue",
          "type": "uint256"
        }
      ],
      "name": "decreaseAllowance",
      "outputs": [
        {
          "internalType": "bool",
          "name": "",
          "type": "bool"
        }
      ],
      "stateMutability": "nonpayable",
      "type": "function"
    },
    {
      "inputs": [
        {
          "internalType": "bytes32",
          "name": "role",
          "type": "bytes32"
        }
      ],
      "name": "getRoleAdmin",
      "outputs": [
        {
          "internalType": "bytes32",
          "name": "",
          "type": "bytes32"
        }
      ],
      "stateMutability": "view",
      "type": "function",
      "constant": true
    },
    {
      "inputs": [
        {
          "internalType": "bytes32",
          "name": "role",
          "type": "bytes32"
        },
        {
          "internalType": "address",
          "name": "account",
          "type": "address"
        }
      ],
      "name": "grantRole",
      "outputs": [],
      "stateMutability": "nonpayable",
      "type": "function"
    },
    {
      "inputs": [
        {
          "internalType": "bytes32",
          "name": "role",
          "type": "bytes32"
        },
        {
          "internalType": "address",
          "name": "account",
          "type": "address"
        }
      ],
      "name": "hasRole",
      "outputs": [
        {
          "internalType": "bool",
          "name": "",
          "type": "bool"
        }
      ],
      "stateMutability": "view",
      "type": "function",
      "constant": true
    },
    {
      "inputs": [
        {
          "internalType": "address",
          "name": "spender",
          "type": "address"
        },
        {
          "internalType": "uint256",
          "name": "addedValue",
          "type": "uint256"
        }
      ],
      "name": "increaseAllowance",
      "outputs": [
        {
          "internalType": "bool",
          "name": "",
          "type": "bool"
        }
      ],
      "stateMutability": "nonpayable",
      "type": "function"
    },
    {
      "inputs": [],
      "name": "name",
      "outputs": [
        {
          "internalType": "string",
          "name": "",
          "type": "string"
        }
      ],
      "stateMutability": "view",
      "type": "function",
      "constant": true
    },
    {
      "inputs": [
        {
          "internalType": "bytes32",
          "name": "role",
          "type": "bytes32"
        },
        {
          "internalType": "address",
          "name": "account",
          "type": "address"
        }
      ],
      "name": "renounceRole",
      "outputs": [],
      "stateMutability": "nonpayable",
      "type": "function"
    },
    {
      "inputs": [
        {
          "internalType": "bytes32",
          "name": "role",
          "type": "bytes32"
        },
        {
          "internalType": "address",
          "name": "account",
          "type": "address"
        }
      ],
      "name": "revokeRole",
      "outputs": [],
      "stateMutability": "nonpayable",
      "type": "function"
    },
    {
      "inputs": [
        {
          "internalType": "bytes4",
          "name": "interfaceId",
          "type": "bytes4"
        }
      ],
      "name": "supportsInterface",
      "outputs": [
        {
          "internalType": "bool",
          "name": "",
          "type": "bool"
        }
      ],
      "stateMutability": "view",
      "type": "function",
      "constant": true
    },
    {
      "inputs": [],
      "name": "symbol",
      "outputs": [
        {
          "internalType": "string",
          "name": "",
          "type": "string"
        }
      ],
      "stateMutability": "view",
      "type": "function",
      "constant": true
    },
    {
      "inputs": [],
      "name": "totalSupply",
      "outputs": [
        {
          "internalType": "uint256",
          "name": "",
          "type": "uint256"
        }
      ],
      "stateMutability": "view",
      "type": "function",
      "constant": true
    },
    {
      "inputs": [
        {
          "internalType": "address",
          "name": "sender",
          "type": "address"
        },
        {
          "internalType": "address",
          "name": "recipient",
          "type": "address"
        },
        {
          "internalType": "uint256",
          "name": "amount",
          "type": "uint256"
        }
      ],
      "name": "transferFrom",
      "outputs": [
        {
          "internalType": "bool",
          "name": "",
          "type": "bool"
        }
      ],
      "stateMutability": "nonpayable",
      "type": "function"
    },
    {
      "inputs": [
        {
          "internalType": "address",
          "name": "to",
          "type": "address"
        },
        {
          "internalType": "uint256",
          "name": "amount",
          "type": "uint256"
        }
      ],
      "name": "emission",
      "outputs": [],
      "stateMutability": "nonpayable",
      "type": "function"
    },
    {
      "inputs": [
        {
          "internalType": "address",
          "name": "from",
          "type": "address"
        },
        {
          "internalType": "uint256",
          "name": "amount",
          "type": "uint256"
        }
      ],
      "name": "compensation",
      "outputs": [],
      "stateMutability": "nonpayable",
      "type": "function"
    },
    {
      "inputs": [
        {
          "internalType": "address",
          "name": "recipient",
          "type": "address"
        },
        {
          "internalType": "uint256",
          "name": "amount",
          "type": "uint256"
        }
      ],
      "name": "transfer",
      "outputs": [
        {
          "internalType": "bool",
          "name": "",
          "type": "bool"
        }
      ],
      "stateMutability": "nonpayable",
      "type": "function"
    },
    {
      "inputs": [],
      "name": "decimals",
      "outputs": [
        {
          "internalType": "uint8",
          "name": "",
          "type": "uint8"
        }
      ],
      "stateMutability": "view",
      "type": "function",
      "constant": true
    }
  ],
  "bytecode": "0x60806040523480156200001157600080fd5b506040518060400160405280600481526020017f434f3247000000000000000000000000000000000000000000000000000000008152506040518060400160405280600481526020017f434f324700000000000000000000000000000000000000000000000000000000815250816004908051906020019062000096929190620002aa565b508060059080519060200190620000af929190620002aa565b505050620000c76000801b336200013160201b60201c565b620000f97f4b0ad04e4cfd06668c08542d3af105a3fa4b1a2813040bbb694bfecf2e5f5240336200013160201b60201c565b6200012b7f274a4f526f200e5846866c5200344b6e9c66dc1252a5c9c75104712fa36216c3336200013160201b60201c565b620003bf565b6200014382826200014760201b60201c565b5050565b6200015982826200023860201b60201c565b6200023457600160008084815260200190815260200160002060000160008373ffffffffffffffffffffffffffffffffffffffff1673ffffffffffffffffffffffffffffffffffffffff16815260200190815260200160002060006101000a81548160ff021916908315150217905550620001d9620002a260201b60201c565b73ffffffffffffffffffffffffffffffffffffffff168173ffffffffffffffffffffffffffffffffffffffff16837f2f8788117e7eff1d82e926ec794901d17c78024a50270940304540a733656f0d60405160405180910390a45b5050565b600080600084815260200190815260200160002060000160008373ffffffffffffffffffffffffffffffffffffffff1673ffffffffffffffffffffffffffffffffffffffff16815260200190815260200160002060009054906101000a900460ff16905092915050565b600033905090565b828054620002b8906200035a565b90600052602060002090601f016020900481019282620002dc576000855562000328565b82601f10620002f757805160ff191683800117855562000328565b8280016001018555821562000328579182015b82811115620003275782518255916020019190600101906200030a565b5b5090506200033791906200033b565b5090565b5b80821115620003565760008160009055506001016200033c565b5090565b600060028204905060018216806200037357607f821691505b602082108114156200038a576200038962000390565b5b50919050565b7f4e487b7100000000000000000000000000000000000000000000000000000000600052602260045260246000fd5b6127dc80620003cf6000396000f3fe608060405234801561001057600080fd5b50600436106101425760003560e01c806339509351116100b857806397572aa91161007c57806397572aa91461039f578063a217fddf146103bb578063a457c2d7146103d9578063a9059cbb14610409578063d547741f14610439578063dd62ed3e1461045557610142565b806339509351146102d357806370a0823114610303578063812f40c81461033357806391d148541461035157806395d89b411461038157610142565b806318160ddd1161010a57806318160ddd146101ff57806323b872dd1461021d578063248a9ca31461024d5780632f2ff15d1461027d578063313ce5671461029957806336568abe146102b757610142565b806301ffc9a71461014757806306fdde0314610177578063095ea7b314610195578063136f235b146101c557806318004b39146101e1575b600080fd5b610161600480360381019061015c9190611bc3565b610485565b60405161016e9190611eee565b60405180910390f35b61017f6104ff565b60405161018c9190611f24565b60405180910390f35b6101af60048036038101906101aa9190611b22565b610591565b6040516101bc9190611eee565b60405180910390f35b6101df60048036038101906101da9190611b22565b6105af565b005b6101e9610629565b6040516101f69190611f09565b60405180910390f35b61020761064d565b60405161021491906120c6565b60405180910390f35b61023760048036038101906102329190611ad3565b610657565b6040516102449190611eee565b60405180910390f35b61026760048036038101906102629190611b5e565b61074f565b6040516102749190611f09565b60405180910390f35b61029760048036038101906102929190611b87565b61076e565b005b6102a1610797565b6040516102ae91906120e1565b60405180910390f35b6102d160048036038101906102cc9190611b87565b61079c565b005b6102ed60048036038101906102e89190611b22565b61081f565b6040516102fa9190611eee565b60405180910390f35b61031d60048036038101906103189190611a6e565b6108cb565b60405161032a91906120c6565b60405180910390f35b61033b610914565b6040516103489190611f09565b60405180910390f35b61036b60048036038101906103669190611b87565b610938565b6040516103789190611eee565b60405180910390f35b6103896109a2565b6040516103969190611f24565b60405180910390f35b6103b960048036038101906103b49190611b22565b610a34565b005b6103c3610aae565b6040516103d09190611f09565b60405180910390f35b6103f360048036038101906103ee9190611b22565b610ab5565b6040516104009190611eee565b60405180910390f35b610423600480360381019061041e9190611b22565b610ba0565b6040516104309190611eee565b60405180910390f35b610453600480360381019061044e9190611b87565b610c0d565b005b61046f600480360381019061046a9190611a97565b610c36565b60405161047c91906120c6565b60405180910390f35b60007f7965db0b000000000000000000000000000000000000000000000000000000007bffffffffffffffffffffffffffffffffffffffffffffffffffffffff1916827bffffffffffffffffffffffffffffffffffffffffffffffffffffffff191614806104f857506104f782610cbd565b5b9050919050565b60606004805461050e906122ef565b80601f016020809104026020016040519081016040528092919081815260200182805461053a906122ef565b80156105875780601f1061055c57610100808354040283529160200191610587565b820191906000526020600020905b81548152906001019060200180831161056a57829003601f168201915b5050505050905090565b60006105a561059e610d27565b8484610d2f565b6001905092915050565b7f274a4f526f200e5846866c5200344b6e9c66dc1252a5c9c75104712fa36216c36105e1816105dc610d27565b610efa565b6105eb8383610f97565b7fc9ce01f2e2c11ad3cf21adec4ef778e5fe81e0acfead5b27cc261dcc13293e6e838360405161061c929190611ec5565b60405180910390a1505050565b7f4b0ad04e4cfd06668c08542d3af105a3fa4b1a2813040bbb694bfecf2e5f524081565b6000600354905090565b6000610664848484611170565b6000600260008673ffffffffffffffffffffffffffffffffffffffff1673ffffffffffffffffffffffffffffffffffffffff16815260200190815260200160002060006106af610d27565b73ffffffffffffffffffffffffffffffffffffffff1673ffffffffffffffffffffffffffffffffffffffff1681526020019081526020016000205490508281101561072f576040517f08c379a000000000000000000000000000000000000000000000000000000000815260040161072690611fe6565b60405180910390fd5b6107438561073b610d27565b858403610d2f565b60019150509392505050565b6000806000838152602001908152602001600020600101549050919050565b6107778261074f565b61078881610783610d27565b610efa565b61079283836113f4565b505050565b600090565b6107a4610d27565b73ffffffffffffffffffffffffffffffffffffffff168173ffffffffffffffffffffffffffffffffffffffff1614610811576040517f08c379a000000000000000000000000000000000000000000000000000000000815260040161080890612086565b60405180910390fd5b61081b82826114d4565b5050565b60006108c161082c610d27565b84846002600061083a610d27565b73ffffffffffffffffffffffffffffffffffffffff1673ffffffffffffffffffffffffffffffffffffffff16815260200190815260200160002060008873ffffffffffffffffffffffffffffffffffffffff1673ffffffffffffffffffffffffffffffffffffffff168152602001908152602001600020546108bc9190612123565b610d2f565b6001905092915050565b6000600160008373ffffffffffffffffffffffffffffffffffffffff1673ffffffffffffffffffffffffffffffffffffffff168152602001908152602001600020549050919050565b7f274a4f526f200e5846866c5200344b6e9c66dc1252a5c9c75104712fa36216c381565b600080600084815260200190815260200160002060000160008373ffffffffffffffffffffffffffffffffffffffff1673ffffffffffffffffffffffffffffffffffffffff16815260200190815260200160002060009054906101000a900460ff16905092915050565b6060600580546109b1906122ef565b80601f01602080910402602001604051908101604052809291908181526020018280546109dd906122ef565b8015610a2a5780601f106109ff57610100808354040283529160200191610a2a565b820191906000526020600020905b815481529060010190602001808311610a0d57829003601f168201915b5050505050905090565b7f4b0ad04e4cfd06668c08542d3af105a3fa4b1a2813040bbb694bfecf2e5f5240610a6681610a61610d27565b610efa565b610a7083836115b5565b7ff54dbf4cddb908bac0d67a3e6d3e4de95d0e7bc059afe2d34b37a6ebbc3879ca8383604051610aa1929190611ec5565b60405180910390a1505050565b6000801b81565b60008060026000610ac4610d27565b73ffffffffffffffffffffffffffffffffffffffff1673ffffffffffffffffffffffffffffffffffffffff16815260200190815260200160002060008573ffffffffffffffffffffffffffffffffffffffff1673ffffffffffffffffffffffffffffffffffffffff16815260200190815260200160002054905082811015610b81576040517f08c379a0000000000000000000000000000000000000000000000000000000008152600401610b7890612066565b60405180910390fd5b610b95610b8c610d27565b85858403610d2f565b600191505092915050565b60008060001b610bb781610bb2610d27565b610efa565b610bc9610bc2610d27565b8585611170565b7f78ea1dab271ee7a26295bb72cc94712a0c5fc50a8a5032434e2570c99b4dacff8484604051610bfa929190611ec5565b60405180910390a1600191505092915050565b610c168261074f565b610c2781610c22610d27565b610efa565b610c3183836114d4565b505050565b6000600260008473ffffffffffffffffffffffffffffffffffffffff1673ffffffffffffffffffffffffffffffffffffffff16815260200190815260200160002060008373ffffffffffffffffffffffffffffffffffffffff1673ffffffffffffffffffffffffffffffffffffffff16815260200190815260200160002054905092915050565b60007f01ffc9a7000000000000000000000000000000000000000000000000000000007bffffffffffffffffffffffffffffffffffffffffffffffffffffffff1916827bffffffffffffffffffffffffffffffffffffffffffffffffffffffff1916149050919050565b600033905090565b600073ffffffffffffffffffffffffffffffffffffffff168373ffffffffffffffffffffffffffffffffffffffff161415610d9f576040517f08c379a0000000000000000000000000000000000000000000000000000000008152600401610d9690612046565b60405180910390fd5b600073ffffffffffffffffffffffffffffffffffffffff168273ffffffffffffffffffffffffffffffffffffffff161415610e0f576040517f08c379a0000000000000000000000000000000000000000000000000000000008152600401610e0690611fa6565b60405180910390fd5b80600260008573ffffffffffffffffffffffffffffffffffffffff1673ffffffffffffffffffffffffffffffffffffffff16815260200190815260200160002060008473ffffffffffffffffffffffffffffffffffffffff1673ffffffffffffffffffffffffffffffffffffffff168152602001908152602001600020819055508173ffffffffffffffffffffffffffffffffffffffff168373ffffffffffffffffffffffffffffffffffffffff167f8c5be1e5ebec7d5bd14f71427d1e84f3dd0314c0f7b2291e5b200ac8c7c3b92583604051610eed91906120c6565b60405180910390a3505050565b610f048282610938565b610f9357610f298173ffffffffffffffffffffffffffffffffffffffff166014611716565b610f378360001c6020611716565b604051602001610f48929190611e8b565b6040516020818303038152906040526040517f08c379a0000000000000000000000000000000000000000000000000000000008152600401610f8a9190611f24565b60405180910390fd5b5050565b600073ffffffffffffffffffffffffffffffffffffffff168273ffffffffffffffffffffffffffffffffffffffff161415611007576040517f08c379a0000000000000000000000000000000000000000000000000000000008152600401610ffe90612006565b60405180910390fd5b61101382600083611a10565b6000600160008473ffffffffffffffffffffffffffffffffffffffff1673ffffffffffffffffffffffffffffffffffffffff1681526020019081526020016000205490508181101561109a576040517f08c379a000000000000000000000000000000000000000000000000000000000815260040161109190611f86565b60405180910390fd5b818103600160008573ffffffffffffffffffffffffffffffffffffffff1673ffffffffffffffffffffffffffffffffffffffff1681526020019081526020016000208190555081600360008282546110f291906121d3565b92505081905550600073ffffffffffffffffffffffffffffffffffffffff168373ffffffffffffffffffffffffffffffffffffffff167fddf252ad1be2c89b69c2b068fc378daa952ba7f163c4a11628f55a4df523b3ef8460405161115791906120c6565b60405180910390a361116b83600084611a15565b505050565b600073ffffffffffffffffffffffffffffffffffffffff168373ffffffffffffffffffffffffffffffffffffffff1614156111e0576040517f08c379a00000000000000000000000000000000000000000000000000000000081526004016111d790612026565b60405180910390fd5b600073ffffffffffffffffffffffffffffffffffffffff168273ffffffffffffffffffffffffffffffffffffffff161415611250576040517f08c379a000000000000000000000000000000000000000000000000000000000815260040161124790611f66565b60405180910390fd5b61125b838383611a10565b6000600160008573ffffffffffffffffffffffffffffffffffffffff1673ffffffffffffffffffffffffffffffffffffffff168152602001908152602001600020549050818110156112e2576040517f08c379a00000000000000000000000000000000000000000000000000000000081526004016112d990611fc6565b60405180910390fd5b818103600160008673ffffffffffffffffffffffffffffffffffffffff1673ffffffffffffffffffffffffffffffffffffffff1681526020019081526020016000208190555081600160008573ffffffffffffffffffffffffffffffffffffffff1673ffffffffffffffffffffffffffffffffffffffff16815260200190815260200160002060008282546113779190612123565b925050819055508273ffffffffffffffffffffffffffffffffffffffff168473ffffffffffffffffffffffffffffffffffffffff167fddf252ad1be2c89b69c2b068fc378daa952ba7f163c4a11628f55a4df523b3ef846040516113db91906120c6565b60405180910390a36113ee848484611a15565b50505050565b6113fe8282610938565b6114d057600160008084815260200190815260200160002060000160008373ffffffffffffffffffffffffffffffffffffffff1673ffffffffffffffffffffffffffffffffffffffff16815260200190815260200160002060006101000a81548160ff021916908315150217905550611475610d27565b73ffffffffffffffffffffffffffffffffffffffff168173ffffffffffffffffffffffffffffffffffffffff16837f2f8788117e7eff1d82e926ec794901d17c78024a50270940304540a733656f0d60405160405180910390a45b5050565b6114de8282610938565b156115b157600080600084815260200190815260200160002060000160008373ffffffffffffffffffffffffffffffffffffffff1673ffffffffffffffffffffffffffffffffffffffff16815260200190815260200160002060006101000a81548160ff021916908315150217905550611556610d27565b73ffffffffffffffffffffffffffffffffffffffff168173ffffffffffffffffffffffffffffffffffffffff16837ff6391f5c32d9c69d2a47ea670b442974b53935d1edc7fd64eb21e047a839171b60405160405180910390a45b5050565b600073ffffffffffffffffffffffffffffffffffffffff168273ffffffffffffffffffffffffffffffffffffffff161415611625576040517f08c379a000000000000000000000000000000000000000000000000000000000815260040161161c906120a6565b60405180910390fd5b61163160008383611a10565b80600360008282546116439190612123565b9250508190555080600160008473ffffffffffffffffffffffffffffffffffffffff1673ffffffffffffffffffffffffffffffffffffffff16815260200190815260200160002060008282546116999190612123565b925050819055508173ffffffffffffffffffffffffffffffffffffffff16600073ffffffffffffffffffffffffffffffffffffffff167fddf252ad1be2c89b69c2b068fc378daa952ba7f163c4a11628f55a4df523b3ef836040516116fe91906120c6565b60405180910390a361171260008383611a15565b5050565b6060600060028360026117299190612179565b6117339190612123565b67ffffffffffffffff811115611772577f4e487b7100000000000000000000000000000000000000000000000000000000600052604160045260246000fd5b6040519080825280601f01601f1916602001820160405280156117a45781602001600182028036833780820191505090505b5090507f300000000000000000000000000000000000000000000000000000000000000081600081518110611802577f4e487b7100000000000000000000000000000000000000000000000000000000600052603260045260246000fd5b60200101907effffffffffffffffffffffffffffffffffffffffffffffffffffffffffffff1916908160001a9053507f78000000000000000000000000000000000000000000000000000000000000008160018151811061188c577f4e487b7100000000000000000000000000000000000000000000000000000000600052603260045260246000fd5b60200101907effffffffffffffffffffffffffffffffffffffffffffffffffffffffffffff1916908160001a905350600060018460026118cc9190612179565b6118d69190612123565b90505b60018111156119c2577f3031323334353637383961626364656600000000000000000000000000000000600f86166010811061193e577f4e487b7100000000000000000000000000000000000000000000000000000000600052603260045260246000fd5b1a60f81b82828151811061197b577f4e487b7100000000000000000000000000000000000000000000000000000000600052603260045260246000fd5b60200101907effffffffffffffffffffffffffffffffffffffffffffffffffffffffffffff1916908160001a905350600485901c9450806119bb906122c5565b90506118d9565b5060008414611a06576040517f08c379a00000000000000000000000000000000000000000000000000000000081526004016119fd90611f46565b60405180910390fd5b8091505092915050565b505050565b505050565b600081359050611a298161274a565b92915050565b600081359050611a3e81612761565b92915050565b600081359050611a5381612778565b92915050565b600081359050611a688161278f565b92915050565b600060208284031215611a8057600080fd5b6000611a8e84828501611a1a565b91505092915050565b60008060408385031215611aaa57600080fd5b6000611ab885828601611a1a565b9250506020611ac985828601611a1a565b9150509250929050565b600080600060608486031215611ae857600080fd5b6000611af686828701611a1a565b9350506020611b0786828701611a1a565b9250506040611b1886828701611a59565b9150509250925092565b60008060408385031215611b3557600080fd5b6000611b4385828601611a1a565b9250506020611b5485828601611a59565b9150509250929050565b600060208284031215611b7057600080fd5b6000611b7e84828501611a2f565b91505092915050565b60008060408385031215611b9a57600080fd5b6000611ba885828601611a2f565b9250506020611bb985828601611a1a565b9150509250929050565b600060208284031215611bd557600080fd5b6000611be384828501611a44565b91505092915050565b611bf581612207565b82525050565b611c0481612219565b82525050565b611c1381612225565b82525050565b6000611c24826120fc565b611c2e8185612107565b9350611c3e818560208601612292565b611c478161237f565b840191505092915050565b6000611c5d826120fc565b611c678185612118565b9350611c77818560208601612292565b80840191505092915050565b6000611c90602083612107565b9150611c9b82612390565b602082019050919050565b6000611cb3602383612107565b9150611cbe826123b9565b604082019050919050565b6000611cd6602283612107565b9150611ce182612408565b604082019050919050565b6000611cf9602283612107565b9150611d0482612457565b604082019050919050565b6000611d1c602683612107565b9150611d27826124a6565b604082019050919050565b6000611d3f602883612107565b9150611d4a826124f5565b604082019050919050565b6000611d62602183612107565b9150611d6d82612544565b604082019050919050565b6000611d85602583612107565b9150611d9082612593565b604082019050919050565b6000611da8602483612107565b9150611db3826125e2565b604082019050919050565b6000611dcb601783612118565b9150611dd682612631565b601782019050919050565b6000611dee602583612107565b9150611df98261265a565b604082019050919050565b6000611e11601183612118565b9150611e1c826126a9565b601182019050919050565b6000611e34602f83612107565b9150611e3f826126d2565b604082019050919050565b6000611e57601f83612107565b9150611e6282612721565b602082019050919050565b611e768161227b565b82525050565b611e8581612285565b82525050565b6000611e9682611dbe565b9150611ea28285611c52565b9150611ead82611e04565b9150611eb98284611c52565b91508190509392505050565b6000604082019050611eda6000830185611bec565b611ee76020830184611e6d565b9392505050565b6000602082019050611f036000830184611bfb565b92915050565b6000602082019050611f1e6000830184611c0a565b92915050565b60006020820190508181036000830152611f3e8184611c19565b905092915050565b60006020820190508181036000830152611f5f81611c83565b9050919050565b60006020820190508181036000830152611f7f81611ca6565b9050919050565b60006020820190508181036000830152611f9f81611cc9565b9050919050565b60006020820190508181036000830152611fbf81611cec565b9050919050565b60006020820190508181036000830152611fdf81611d0f565b9050919050565b60006020820190508181036000830152611fff81611d32565b9050919050565b6000602082019050818103600083015261201f81611d55565b9050919050565b6000602082019050818103600083015261203f81611d78565b9050919050565b6000602082019050818103600083015261205f81611d9b565b9050919050565b6000602082019050818103600083015261207f81611de1565b9050919050565b6000602082019050818103600083015261209f81611e27565b9050919050565b600060208201905081810360008301526120bf81611e4a565b9050919050565b60006020820190506120db6000830184611e6d565b92915050565b60006020820190506120f66000830184611e7c565b92915050565b600081519050919050565b600082825260208201905092915050565b600081905092915050565b600061212e8261227b565b91506121398361227b565b9250827fffffffffffffffffffffffffffffffffffffffffffffffffffffffffffffffff0382111561216e5761216d612321565b5b828201905092915050565b60006121848261227b565b915061218f8361227b565b9250817fffffffffffffffffffffffffffffffffffffffffffffffffffffffffffffffff04831182151516156121c8576121c7612321565b5b828202905092915050565b60006121de8261227b565b91506121e98361227b565b9250828210156121fc576121fb612321565b5b828203905092915050565b60006122128261225b565b9050919050565b60008115159050919050565b6000819050919050565b60007fffffffff0000000000000000000000000000000000000000000000000000000082169050919050565b600073ffffffffffffffffffffffffffffffffffffffff82169050919050565b6000819050919050565b600060ff82169050919050565b60005b838110156122b0578082015181840152602081019050612295565b838111156122bf576000848401525b50505050565b60006122d08261227b565b915060008214156122e4576122e3612321565b5b600182039050919050565b6000600282049050600182168061230757607f821691505b6020821081141561231b5761231a612350565b5b50919050565b7f4e487b7100000000000000000000000000000000000000000000000000000000600052601160045260246000fd5b7f4e487b7100000000000000000000000000000000000000000000000000000000600052602260045260246000fd5b6000601f19601f8301169050919050565b7f537472696e67733a20686578206c656e67746820696e73756666696369656e74600082015250565b7f45524332303a207472616e7366657220746f20746865207a65726f206164647260008201527f6573730000000000000000000000000000000000000000000000000000000000602082015250565b7f45524332303a206275726e20616d6f756e7420657863656564732062616c616e60008201527f6365000000000000000000000000000000000000000000000000000000000000602082015250565b7f45524332303a20617070726f766520746f20746865207a65726f20616464726560008201527f7373000000000000000000000000000000000000000000000000000000000000602082015250565b7f45524332303a207472616e7366657220616d6f756e742065786365656473206260008201527f616c616e63650000000000000000000000000000000000000000000000000000602082015250565b7f45524332303a207472616e7366657220616d6f756e742065786365656473206160008201527f6c6c6f77616e6365000000000000000000000000000000000000000000000000602082015250565b7f45524332303a206275726e2066726f6d20746865207a65726f2061646472657360008201527f7300000000000000000000000000000000000000000000000000000000000000602082015250565b7f45524332303a207472616e736665722066726f6d20746865207a65726f20616460008201527f6472657373000000000000000000000000000000000000000000000000000000602082015250565b7f45524332303a20617070726f76652066726f6d20746865207a65726f2061646460008201527f7265737300000000000000000000000000000000000000000000000000000000602082015250565b7f416363657373436f6e74726f6c3a206163636f756e7420000000000000000000600082015250565b7f45524332303a2064656372656173656420616c6c6f77616e63652062656c6f7760008201527f207a65726f000000000000000000000000000000000000000000000000000000602082015250565b7f206973206d697373696e6720726f6c6520000000000000000000000000000000600082015250565b7f416363657373436f6e74726f6c3a2063616e206f6e6c792072656e6f756e636560008201527f20726f6c657320666f722073656c660000000000000000000000000000000000602082015250565b7f45524332303a206d696e7420746f20746865207a65726f206164647265737300600082015250565b61275381612207565b811461275e57600080fd5b50565b61276a81612225565b811461277557600080fd5b50565b6127818161222f565b811461278c57600080fd5b50565b6127988161227b565b81146127a357600080fd5b5056fea264697066735822122003ad39b49f7e7c5a22204a5a8a6e6a95fe7945b796014c9b4a3653c8000d149f64736f6c63430008010033",
  "immutableReferences": {},
  "source": "// SPDX-License-Identifier: MIT\n// contracts/co2accounting.sol\npragma solidity ^0.8.0;\n\nimport \"@openzeppelin/contracts/access/AccessControl.sol\";\nimport \"@openzeppelin/contracts/token/ERC20/ERC20.sol\";\n\n/**\n * Implements CO2 Event handling (Emission event => Compensation) with the pattern of a burnable token.\n */\n\ncontract CO2Accounting is AccessControl, ERC20 {\n    bytes32 public constant EMITTER_ROLE = keccak256(\"EMITTER_ROLE\");\n    bytes32 public constant COMPENSATOR_ROLE = keccak256(\"COMPENSATOR_ROLE\");\n\n    event Emission(address to, uint256 amount);\n    event Compensation(address from, uint256 amount);\n    event Congestion(address recipient, uint256 amount);\n\n    constructor() ERC20(\"CO2G\", \"CO2G\") {\n      _setupRole(DEFAULT_ADMIN_ROLE, msg.sender);\n      _setupRole(EMITTER_ROLE,msg.sender);\n      _setupRole(COMPENSATOR_ROLE,msg.sender);\n    }\n\n    function emission(address to, uint256 amount) public onlyRole(EMITTER_ROLE) {\n        _mint(to, amount);\n        emit Emission(to, amount);\n    }\n\n    function compensation(address from, uint256 amount) public onlyRole(COMPENSATOR_ROLE) {\n        _burn(from, amount);\n        emit Compensation(from,amount);\n    }\n\n    function transfer(address recipient, uint256 amount) public onlyRole(DEFAULT_ADMIN_ROLE) virtual override returns (bool) {\n      _transfer(_msgSender(), recipient, amount);\n      emit Congestion(recipient, amount);\n      return true;\n    }\n\n    function decimals() public view override returns (uint8) {\n        return 0;\n    }\n}\n",
  "sourcePath": "/home/zoernert/Development/co2event/contracts/CO2Accounting.sol",
  "compiler": {
    "name": "solc",
    "version": "0.8.1+commit.df193b15.Emscripten.clang"
  },
  "schemaVersion": "3.4.3",
  "updatedAt": "2021-10-10T11:53:23.760Z",
  "networkType": "ethereum",
  "devdoc": {
    "kind": "dev",
    "methods": {
      "allowance(address,address)": {
        "details": "See {IERC20-allowance}."
      },
      "approve(address,uint256)": {
        "details": "See {IERC20-approve}. Requirements: - `spender` cannot be the zero address."
      },
      "balanceOf(address)": {
        "details": "See {IERC20-balanceOf}."
      },
      "decimals()": {
        "details": "Returns the number of decimals used to get its user representation. For example, if `decimals` equals `2`, a balance of `505` tokens should be displayed to a user as `5.05` (`505 / 10 ** 2`). Tokens usually opt for a value of 18, imitating the relationship between Ether and Wei. This is the value {ERC20} uses, unless this function is overridden; NOTE: This information is only used for _display_ purposes: it in no way affects any of the arithmetic of the contract, including {IERC20-balanceOf} and {IERC20-transfer}."
      },
      "decreaseAllowance(address,uint256)": {
        "details": "Atomically decreases the allowance granted to `spender` by the caller. This is an alternative to {approve} that can be used as a mitigation for problems described in {IERC20-approve}. Emits an {Approval} event indicating the updated allowance. Requirements: - `spender` cannot be the zero address. - `spender` must have allowance for the caller of at least `subtractedValue`."
      },
      "getRoleAdmin(bytes32)": {
        "details": "Returns the admin role that controls `role`. See {grantRole} and {revokeRole}. To change a role's admin, use {_setRoleAdmin}."
      },
      "grantRole(bytes32,address)": {
        "details": "Grants `role` to `account`. If `account` had not been already granted `role`, emits a {RoleGranted} event. Requirements: - the caller must have ``role``'s admin role."
      },
      "hasRole(bytes32,address)": {
        "details": "Returns `true` if `account` has been granted `role`."
      },
      "increaseAllowance(address,uint256)": {
        "details": "Atomically increases the allowance granted to `spender` by the caller. This is an alternative to {approve} that can be used as a mitigation for problems described in {IERC20-approve}. Emits an {Approval} event indicating the updated allowance. Requirements: - `spender` cannot be the zero address."
      },
      "name()": {
        "details": "Returns the name of the token."
      },
      "renounceRole(bytes32,address)": {
        "details": "Revokes `role` from the calling account. Roles are often managed via {grantRole} and {revokeRole}: this function's purpose is to provide a mechanism for accounts to lose their privileges if they are compromised (such as when a trusted device is misplaced). If the calling account had been granted `role`, emits a {RoleRevoked} event. Requirements: - the caller must be `account`."
      },
      "revokeRole(bytes32,address)": {
        "details": "Revokes `role` from `account`. If `account` had been granted `role`, emits a {RoleRevoked} event. Requirements: - the caller must have ``role``'s admin role."
      },
      "supportsInterface(bytes4)": {
        "details": "See {IERC165-supportsInterface}."
      },
      "symbol()": {
        "details": "Returns the symbol of the token, usually a shorter version of the name."
      },
      "totalSupply()": {
        "details": "See {IERC20-totalSupply}."
      },
      "transfer(address,uint256)": {
        "details": "See {IERC20-transfer}. Requirements: - `recipient` cannot be the zero address. - the caller must have a balance of at least `amount`."
      },
      "transferFrom(address,address,uint256)": {
        "details": "See {IERC20-transferFrom}. Emits an {Approval} event indicating the updated allowance. This is not required by the EIP. See the note at the beginning of {ERC20}. Requirements: - `sender` and `recipient` cannot be the zero address. - `sender` must have a balance of at least `amount`. - the caller must have allowance for ``sender``'s tokens of at least `amount`."
      }
    },
    "version": 1
  },
  "userdoc": {
    "kind": "user",
    "methods": {},
    "notice": "Implements CO2 Event handling (Emission event => Compensation) with the pattern of a burnable token.",
    "version": 1
  }
}