{
  "contractName": "CO2Accounting",
  "abi": [
    {
      "inputs": [],
      "stateMutability": "nonpayable",
      "type": "constructor"
    },
    {
      "anonymous": false,
      "inputs": [
        {
          "indexed": true,
          "internalType": "address",
          "name": "owner",
          "type": "address"
        },
        {
          "indexed": true,
          "internalType": "address",
          "name": "spender",
          "type": "address"
        },
        {
          "indexed": false,
          "internalType": "uint256",
          "name": "value",
          "type": "uint256"
        }
      ],
      "name": "Approval",
      "type": "event"
    },
    {
      "anonymous": false,
      "inputs": [
        {
          "indexed": true,
          "internalType": "address",
          "name": "from",
          "type": "address"
        },
        {
          "indexed": false,
          "internalType": "uint256",
          "name": "amount",
          "type": "uint256"
        }
      ],
      "name": "Compensation",
      "type": "event"
    },
    {
      "anonymous": false,
      "inputs": [
        {
          "indexed": true,
          "internalType": "address",
          "name": "recipient",
          "type": "address"
        },
        {
          "indexed": false,
          "internalType": "uint256",
          "name": "amount",
          "type": "uint256"
        }
      ],
      "name": "Congestion",
      "type": "event"
    },
    {
      "anonymous": false,
      "inputs": [
        {
          "indexed": true,
          "internalType": "address",
          "name": "to",
          "type": "address"
        },
        {
          "indexed": false,
          "internalType": "uint256",
          "name": "amount",
          "type": "uint256"
        }
      ],
      "name": "Emission",
      "type": "event"
    },
    {
      "anonymous": false,
      "inputs": [
        {
          "indexed": true,
          "internalType": "bytes32",
          "name": "role",
          "type": "bytes32"
        },
        {
          "indexed": true,
          "internalType": "bytes32",
          "name": "previousAdminRole",
          "type": "bytes32"
        },
        {
          "indexed": true,
          "internalType": "bytes32",
          "name": "newAdminRole",
          "type": "bytes32"
        }
      ],
      "name": "RoleAdminChanged",
      "type": "event"
    },
    {
      "anonymous": false,
      "inputs": [
        {
          "indexed": true,
          "internalType": "bytes32",
          "name": "role",
          "type": "bytes32"
        },
        {
          "indexed": true,
          "internalType": "address",
          "name": "account",
          "type": "address"
        },
        {
          "indexed": true,
          "internalType": "address",
          "name": "sender",
          "type": "address"
        }
      ],
      "name": "RoleGranted",
      "type": "event"
    },
    {
      "anonymous": false,
      "inputs": [
        {
          "indexed": true,
          "internalType": "bytes32",
          "name": "role",
          "type": "bytes32"
        },
        {
          "indexed": true,
          "internalType": "address",
          "name": "account",
          "type": "address"
        },
        {
          "indexed": true,
          "internalType": "address",
          "name": "sender",
          "type": "address"
        }
      ],
      "name": "RoleRevoked",
      "type": "event"
    },
    {
      "anonymous": false,
      "inputs": [
        {
          "indexed": true,
          "internalType": "address",
          "name": "from",
          "type": "address"
        },
        {
          "indexed": true,
          "internalType": "address",
          "name": "to",
          "type": "address"
        },
        {
          "indexed": false,
          "internalType": "uint256",
          "name": "value",
          "type": "uint256"
        }
      ],
      "name": "Transfer",
      "type": "event"
    },
    {
      "inputs": [],
      "name": "COMPENSATOR_ROLE",
      "outputs": [
        {
          "internalType": "bytes32",
          "name": "",
          "type": "bytes32"
        }
      ],
      "stateMutability": "view",
      "type": "function",
      "constant": true
    },
    {
      "inputs": [],
      "name": "DEFAULT_ADMIN_ROLE",
      "outputs": [
        {
          "internalType": "bytes32",
          "name": "",
          "type": "bytes32"
        }
      ],
      "stateMutability": "view",
      "type": "function",
      "constant": true
    },
    {
      "inputs": [],
      "name": "EMITTER_ROLE",
      "outputs": [
        {
          "internalType": "bytes32",
          "name": "",
          "type": "bytes32"
        }
      ],
      "stateMutability": "view",
      "type": "function",
      "constant": true
    },
    {
      "inputs": [
        {
          "internalType": "address",
          "name": "owner",
          "type": "address"
        },
        {
          "internalType": "address",
          "name": "spender",
          "type": "address"
        }
      ],
      "name": "allowance",
      "outputs": [
        {
          "internalType": "uint256",
          "name": "",
          "type": "uint256"
        }
      ],
      "stateMutability": "view",
      "type": "function",
      "constant": true
    },
    {
      "inputs": [
        {
          "internalType": "address",
          "name": "spender",
          "type": "address"
        },
        {
          "internalType": "uint256",
          "name": "amount",
          "type": "uint256"
        }
      ],
      "name": "approve",
      "outputs": [
        {
          "internalType": "bool",
          "name": "",
          "type": "bool"
        }
      ],
      "stateMutability": "nonpayable",
      "type": "function"
    },
    {
      "inputs": [
        {
          "internalType": "address",
          "name": "account",
          "type": "address"
        }
      ],
      "name": "balanceOf",
      "outputs": [
        {
          "internalType": "uint256",
          "name": "",
          "type": "uint256"
        }
      ],
      "stateMutability": "view",
      "type": "function",
      "constant": true
    },
    {
      "inputs": [
        {
          "internalType": "address",
          "name": "spender",
          "type": "address"
        },
        {
          "internalType": "uint256",
          "name": "subtractedValue",
          "type": "uint256"
        }
      ],
      "name": "decreaseAllowance",
      "outputs": [
        {
          "internalType": "bool",
          "name": "",
          "type": "bool"
        }
      ],
      "stateMutability": "nonpayable",
      "type": "function"
    },
    {
      "inputs": [
        {
          "internalType": "bytes32",
          "name": "role",
          "type": "bytes32"
        }
      ],
      "name": "getRoleAdmin",
      "outputs": [
        {
          "internalType": "bytes32",
          "name": "",
          "type": "bytes32"
        }
      ],
      "stateMutability": "view",
      "type": "function",
      "constant": true
    },
    {
      "inputs": [
        {
          "internalType": "bytes32",
          "name": "role",
          "type": "bytes32"
        },
        {
          "internalType": "address",
          "name": "account",
          "type": "address"
        }
      ],
      "name": "grantRole",
      "outputs": [],
      "stateMutability": "nonpayable",
      "type": "function"
    },
    {
      "inputs": [
        {
          "internalType": "bytes32",
          "name": "role",
          "type": "bytes32"
        },
        {
          "internalType": "address",
          "name": "account",
          "type": "address"
        }
      ],
      "name": "hasRole",
      "outputs": [
        {
          "internalType": "bool",
          "name": "",
          "type": "bool"
        }
      ],
      "stateMutability": "view",
      "type": "function",
      "constant": true
    },
    {
      "inputs": [
        {
          "internalType": "address",
          "name": "spender",
          "type": "address"
        },
        {
          "internalType": "uint256",
          "name": "addedValue",
          "type": "uint256"
        }
      ],
      "name": "increaseAllowance",
      "outputs": [
        {
          "internalType": "bool",
          "name": "",
          "type": "bool"
        }
      ],
      "stateMutability": "nonpayable",
      "type": "function"
    },
    {
      "inputs": [],
      "name": "name",
      "outputs": [
        {
          "internalType": "string",
          "name": "",
          "type": "string"
        }
      ],
      "stateMutability": "view",
      "type": "function",
      "constant": true
    },
    {
      "inputs": [
        {
          "internalType": "bytes32",
          "name": "role",
          "type": "bytes32"
        },
        {
          "internalType": "address",
          "name": "account",
          "type": "address"
        }
      ],
      "name": "renounceRole",
      "outputs": [],
      "stateMutability": "nonpayable",
      "type": "function"
    },
    {
      "inputs": [
        {
          "internalType": "bytes32",
          "name": "role",
          "type": "bytes32"
        },
        {
          "internalType": "address",
          "name": "account",
          "type": "address"
        }
      ],
      "name": "revokeRole",
      "outputs": [],
      "stateMutability": "nonpayable",
      "type": "function"
    },
    {
      "inputs": [
        {
          "internalType": "bytes4",
          "name": "interfaceId",
          "type": "bytes4"
        }
      ],
      "name": "supportsInterface",
      "outputs": [
        {
          "internalType": "bool",
          "name": "",
          "type": "bool"
        }
      ],
      "stateMutability": "view",
      "type": "function",
      "constant": true
    },
    {
      "inputs": [],
      "name": "symbol",
      "outputs": [
        {
          "internalType": "string",
          "name": "",
          "type": "string"
        }
      ],
      "stateMutability": "view",
      "type": "function",
      "constant": true
    },
    {
      "inputs": [],
      "name": "totalCompensation",
      "outputs": [
        {
          "internalType": "uint256",
          "name": "",
          "type": "uint256"
        }
      ],
      "stateMutability": "view",
      "type": "function",
      "constant": true
    },
    {
      "inputs": [],
      "name": "totalEmission",
      "outputs": [
        {
          "internalType": "uint256",
          "name": "",
          "type": "uint256"
        }
      ],
      "stateMutability": "view",
      "type": "function",
      "constant": true
    },
    {
      "inputs": [],
      "name": "totalSupply",
      "outputs": [
        {
          "internalType": "uint256",
          "name": "",
          "type": "uint256"
        }
      ],
      "stateMutability": "view",
      "type": "function",
      "constant": true
    },
    {
      "inputs": [
        {
          "internalType": "address",
          "name": "sender",
          "type": "address"
        },
        {
          "internalType": "address",
          "name": "recipient",
          "type": "address"
        },
        {
          "internalType": "uint256",
          "name": "amount",
          "type": "uint256"
        }
      ],
      "name": "transferFrom",
      "outputs": [
        {
          "internalType": "bool",
          "name": "",
          "type": "bool"
        }
      ],
      "stateMutability": "nonpayable",
      "type": "function"
    },
    {
      "inputs": [
        {
          "internalType": "address",
          "name": "to",
          "type": "address"
        },
        {
          "internalType": "uint256",
          "name": "amount",
          "type": "uint256"
        }
      ],
      "name": "emission",
      "outputs": [],
      "stateMutability": "nonpayable",
      "type": "function"
    },
    {
      "inputs": [
        {
          "internalType": "address",
          "name": "from",
          "type": "address"
        },
        {
          "internalType": "uint256",
          "name": "amount",
          "type": "uint256"
        }
      ],
      "name": "compensation",
      "outputs": [],
      "stateMutability": "nonpayable",
      "type": "function"
    },
    {
      "inputs": [
        {
          "internalType": "address",
          "name": "recipient",
          "type": "address"
        },
        {
          "internalType": "uint256",
          "name": "amount",
          "type": "uint256"
        }
      ],
      "name": "transfer",
      "outputs": [
        {
          "internalType": "bool",
          "name": "",
          "type": "bool"
        }
      ],
      "stateMutability": "nonpayable",
      "type": "function"
    },
    {
      "inputs": [],
      "name": "decimals",
      "outputs": [
        {
          "internalType": "uint8",
          "name": "",
          "type": "uint8"
        }
      ],
      "stateMutability": "view",
      "type": "function",
      "constant": true
    }
  ],
  "bytecode": "0x6080604052600060065560006007553480156200001b57600080fd5b506040518060400160405280600481526020017f434f3247000000000000000000000000000000000000000000000000000000008152506040518060400160405280600481526020017f434f3247000000000000000000000000000000000000000000000000000000008152508160049080519060200190620000a0929190620002b4565b508060059080519060200190620000b9929190620002b4565b505050620000d16000801b336200013b60201b60201c565b620001037f4b0ad04e4cfd06668c08542d3af105a3fa4b1a2813040bbb694bfecf2e5f5240336200013b60201b60201c565b620001357f274a4f526f200e5846866c5200344b6e9c66dc1252a5c9c75104712fa36216c3336200013b60201b60201c565b620003c9565b6200014d82826200015160201b60201c565b5050565b6200016382826200024260201b60201c565b6200023e57600160008084815260200190815260200160002060000160008373ffffffffffffffffffffffffffffffffffffffff1673ffffffffffffffffffffffffffffffffffffffff16815260200190815260200160002060006101000a81548160ff021916908315150217905550620001e3620002ac60201b60201c565b73ffffffffffffffffffffffffffffffffffffffff168173ffffffffffffffffffffffffffffffffffffffff16837f2f8788117e7eff1d82e926ec794901d17c78024a50270940304540a733656f0d60405160405180910390a45b5050565b600080600084815260200190815260200160002060000160008373ffffffffffffffffffffffffffffffffffffffff1673ffffffffffffffffffffffffffffffffffffffff16815260200190815260200160002060009054906101000a900460ff16905092915050565b600033905090565b828054620002c29062000364565b90600052602060002090601f016020900481019282620002e6576000855562000332565b82601f106200030157805160ff191683800117855562000332565b8280016001018555821562000332579182015b828111156200033157825182559160200191906001019062000314565b5b50905062000341919062000345565b5090565b5b808211156200036057600081600090555060010162000346565b5090565b600060028204905060018216806200037d57607f821691505b602082108114156200039457620003936200039a565b5b50919050565b7f4e487b7100000000000000000000000000000000000000000000000000000000600052602260045260246000fd5b61287380620003d96000396000f3fe608060405234801561001057600080fd5b50600436106101585760003560e01c80634d412357116100c3578063a217fddf1161007c578063a217fddf146103ef578063a457c2d71461040d578063a9059cbb1461043d578063d547741f1461046d578063dd62ed3e14610489578063f3e9bc28146104b957610158565b80634d4123571461031957806370a0823114610337578063812f40c81461036757806391d148541461038557806395d89b41146103b557806397572aa9146103d357610158565b806323b872dd1161011557806323b872dd14610233578063248a9ca3146102635780632f2ff15d14610293578063313ce567146102af57806336568abe146102cd57806339509351146102e957610158565b806301ffc9a71461015d57806306fdde031461018d578063095ea7b3146101ab578063136f235b146101db57806318004b39146101f757806318160ddd14610215575b600080fd5b61017760048036038101906101729190611c92565b6104d7565b6040516101849190611f85565b60405180910390f35b610195610551565b6040516101a29190611fbb565b60405180910390f35b6101c560048036038101906101c09190611bf1565b6105e3565b6040516101d29190611f85565b60405180910390f35b6101f560048036038101906101f09190611bf1565b610601565b005b6101ff6106a9565b60405161020c9190611fa0565b60405180910390f35b61021d6106cd565b60405161022a919061215d565b60405180910390f35b61024d60048036038101906102489190611ba2565b6106d7565b60405161025a9190611f85565b60405180910390f35b61027d60048036038101906102789190611c2d565b6107cf565b60405161028a9190611fa0565b60405180910390f35b6102ad60048036038101906102a89190611c56565b6107ee565b005b6102b7610817565b6040516102c49190612178565b60405180910390f35b6102e760048036038101906102e29190611c56565b61081c565b005b61030360048036038101906102fe9190611bf1565b61089f565b6040516103109190611f85565b60405180910390f35b61032161094b565b60405161032e919061215d565b60405180910390f35b610351600480360381019061034c9190611b3d565b610951565b60405161035e919061215d565b60405180910390f35b61036f61099a565b60405161037c9190611fa0565b60405180910390f35b61039f600480360381019061039a9190611c56565b6109be565b6040516103ac9190611f85565b60405180910390f35b6103bd610a28565b6040516103ca9190611fbb565b60405180910390f35b6103ed60048036038101906103e89190611bf1565b610aba565b005b6103f7610b62565b6040516104049190611fa0565b60405180910390f35b61042760048036038101906104229190611bf1565b610b69565b6040516104349190611f85565b60405180910390f35b61045760048036038101906104529190611bf1565b610c54565b6040516104649190611f85565b60405180910390f35b61048760048036038101906104829190611c56565b610cd6565b005b6104a3600480360381019061049e9190611b66565b610cff565b6040516104b0919061215d565b60405180910390f35b6104c1610d86565b6040516104ce919061215d565b60405180910390f35b60007f7965db0b000000000000000000000000000000000000000000000000000000007bffffffffffffffffffffffffffffffffffffffffffffffffffffffff1916827bffffffffffffffffffffffffffffffffffffffffffffffffffffffff1916148061054a575061054982610d8c565b5b9050919050565b60606004805461056090612386565b80601f016020809104026020016040519081016040528092919081815260200182805461058c90612386565b80156105d95780601f106105ae576101008083540402835291602001916105d9565b820191906000526020600020905b8154815290600101906020018083116105bc57829003601f168201915b5050505050905090565b60006105f76105f0610df6565b8484610dfe565b6001905092915050565b7f274a4f526f200e5846866c5200344b6e9c66dc1252a5c9c75104712fa36216c36106338161062e610df6565b610fc9565b61063d8383611066565b816007600082825461064f91906121ba565b925050819055508273ffffffffffffffffffffffffffffffffffffffff167fc9ce01f2e2c11ad3cf21adec4ef778e5fe81e0acfead5b27cc261dcc13293e6e8360405161069c919061215d565b60405180910390a2505050565b7f4b0ad04e4cfd06668c08542d3af105a3fa4b1a2813040bbb694bfecf2e5f524081565b6000600354905090565b60006106e484848461123f565b6000600260008673ffffffffffffffffffffffffffffffffffffffff1673ffffffffffffffffffffffffffffffffffffffff168152602001908152602001600020600061072f610df6565b73ffffffffffffffffffffffffffffffffffffffff1673ffffffffffffffffffffffffffffffffffffffff168152602001908152602001600020549050828110156107af576040517f08c379a00000000000000000000000000000000000000000000000000000000081526004016107a69061207d565b60405180910390fd5b6107c3856107bb610df6565b858403610dfe565b60019150509392505050565b6000806000838152602001908152602001600020600101549050919050565b6107f7826107cf565b61080881610803610df6565b610fc9565b61081283836114c3565b505050565b600090565b610824610df6565b73ffffffffffffffffffffffffffffffffffffffff168173ffffffffffffffffffffffffffffffffffffffff1614610891576040517f08c379a00000000000000000000000000000000000000000000000000000000081526004016108889061211d565b60405180910390fd5b61089b82826115a3565b5050565b60006109416108ac610df6565b8484600260006108ba610df6565b73ffffffffffffffffffffffffffffffffffffffff1673ffffffffffffffffffffffffffffffffffffffff16815260200190815260200160002060008873ffffffffffffffffffffffffffffffffffffffff1673ffffffffffffffffffffffffffffffffffffffff1681526020019081526020016000205461093c91906121ba565b610dfe565b6001905092915050565b60065481565b6000600160008373ffffffffffffffffffffffffffffffffffffffff1673ffffffffffffffffffffffffffffffffffffffff168152602001908152602001600020549050919050565b7f274a4f526f200e5846866c5200344b6e9c66dc1252a5c9c75104712fa36216c381565b600080600084815260200190815260200160002060000160008373ffffffffffffffffffffffffffffffffffffffff1673ffffffffffffffffffffffffffffffffffffffff16815260200190815260200160002060009054906101000a900460ff16905092915050565b606060058054610a3790612386565b80601f0160208091040260200160405190810160405280929190818152602001828054610a6390612386565b8015610ab05780601f10610a8557610100808354040283529160200191610ab0565b820191906000526020600020905b815481529060010190602001808311610a9357829003601f168201915b5050505050905090565b7f4b0ad04e4cfd06668c08542d3af105a3fa4b1a2813040bbb694bfecf2e5f5240610aec81610ae7610df6565b610fc9565b610af68383611684565b8160066000828254610b0891906121ba565b925050819055508273ffffffffffffffffffffffffffffffffffffffff167ff54dbf4cddb908bac0d67a3e6d3e4de95d0e7bc059afe2d34b37a6ebbc3879ca83604051610b55919061215d565b60405180910390a2505050565b6000801b81565b60008060026000610b78610df6565b73ffffffffffffffffffffffffffffffffffffffff1673ffffffffffffffffffffffffffffffffffffffff16815260200190815260200160002060008573ffffffffffffffffffffffffffffffffffffffff1673ffffffffffffffffffffffffffffffffffffffff16815260200190815260200160002054905082811015610c35576040517f08c379a0000000000000000000000000000000000000000000000000000000008152600401610c2c906120fd565b60405180910390fd5b610c49610c40610df6565b85858403610dfe565b600191505092915050565b60008060001b610c6b81610c66610df6565b610fc9565b610c7d610c76610df6565b858561123f565b8373ffffffffffffffffffffffffffffffffffffffff167f78ea1dab271ee7a26295bb72cc94712a0c5fc50a8a5032434e2570c99b4dacff84604051610cc3919061215d565b60405180910390a2600191505092915050565b610cdf826107cf565b610cf081610ceb610df6565b610fc9565b610cfa83836115a3565b505050565b6000600260008473ffffffffffffffffffffffffffffffffffffffff1673ffffffffffffffffffffffffffffffffffffffff16815260200190815260200160002060008373ffffffffffffffffffffffffffffffffffffffff1673ffffffffffffffffffffffffffffffffffffffff16815260200190815260200160002054905092915050565b60075481565b60007f01ffc9a7000000000000000000000000000000000000000000000000000000007bffffffffffffffffffffffffffffffffffffffffffffffffffffffff1916827bffffffffffffffffffffffffffffffffffffffffffffffffffffffff1916149050919050565b600033905090565b600073ffffffffffffffffffffffffffffffffffffffff168373ffffffffffffffffffffffffffffffffffffffff161415610e6e576040517f08c379a0000000000000000000000000000000000000000000000000000000008152600401610e65906120dd565b60405180910390fd5b600073ffffffffffffffffffffffffffffffffffffffff168273ffffffffffffffffffffffffffffffffffffffff161415610ede576040517f08c379a0000000000000000000000000000000000000000000000000000000008152600401610ed59061203d565b60405180910390fd5b80600260008573ffffffffffffffffffffffffffffffffffffffff1673ffffffffffffffffffffffffffffffffffffffff16815260200190815260200160002060008473ffffffffffffffffffffffffffffffffffffffff1673ffffffffffffffffffffffffffffffffffffffff168152602001908152602001600020819055508173ffffffffffffffffffffffffffffffffffffffff168373ffffffffffffffffffffffffffffffffffffffff167f8c5be1e5ebec7d5bd14f71427d1e84f3dd0314c0f7b2291e5b200ac8c7c3b92583604051610fbc919061215d565b60405180910390a3505050565b610fd382826109be565b61106257610ff88173ffffffffffffffffffffffffffffffffffffffff1660146117e5565b6110068360001c60206117e5565b604051602001611017929190611f4b565b6040516020818303038152906040526040517f08c379a00000000000000000000000000000000000000000000000000000000081526004016110599190611fbb565b60405180910390fd5b5050565b600073ffffffffffffffffffffffffffffffffffffffff168273ffffffffffffffffffffffffffffffffffffffff1614156110d6576040517f08c379a00000000000000000000000000000000000000000000000000000000081526004016110cd9061209d565b60405180910390fd5b6110e282600083611adf565b6000600160008473ffffffffffffffffffffffffffffffffffffffff1673ffffffffffffffffffffffffffffffffffffffff16815260200190815260200160002054905081811015611169576040517f08c379a00000000000000000000000000000000000000000000000000000000081526004016111609061201d565b60405180910390fd5b818103600160008573ffffffffffffffffffffffffffffffffffffffff1673ffffffffffffffffffffffffffffffffffffffff1681526020019081526020016000208190555081600360008282546111c1919061226a565b92505081905550600073ffffffffffffffffffffffffffffffffffffffff168373ffffffffffffffffffffffffffffffffffffffff167fddf252ad1be2c89b69c2b068fc378daa952ba7f163c4a11628f55a4df523b3ef84604051611226919061215d565b60405180910390a361123a83600084611ae4565b505050565b600073ffffffffffffffffffffffffffffffffffffffff168373ffffffffffffffffffffffffffffffffffffffff1614156112af576040517f08c379a00000000000000000000000000000000000000000000000000000000081526004016112a6906120bd565b60405180910390fd5b600073ffffffffffffffffffffffffffffffffffffffff168273ffffffffffffffffffffffffffffffffffffffff16141561131f576040517f08c379a000000000000000000000000000000000000000000000000000000000815260040161131690611ffd565b60405180910390fd5b61132a838383611adf565b6000600160008573ffffffffffffffffffffffffffffffffffffffff1673ffffffffffffffffffffffffffffffffffffffff168152602001908152602001600020549050818110156113b1576040517f08c379a00000000000000000000000000000000000000000000000000000000081526004016113a89061205d565b60405180910390fd5b818103600160008673ffffffffffffffffffffffffffffffffffffffff1673ffffffffffffffffffffffffffffffffffffffff1681526020019081526020016000208190555081600160008573ffffffffffffffffffffffffffffffffffffffff1673ffffffffffffffffffffffffffffffffffffffff168152602001908152602001600020600082825461144691906121ba565b925050819055508273ffffffffffffffffffffffffffffffffffffffff168473ffffffffffffffffffffffffffffffffffffffff167fddf252ad1be2c89b69c2b068fc378daa952ba7f163c4a11628f55a4df523b3ef846040516114aa919061215d565b60405180910390a36114bd848484611ae4565b50505050565b6114cd82826109be565b61159f57600160008084815260200190815260200160002060000160008373ffffffffffffffffffffffffffffffffffffffff1673ffffffffffffffffffffffffffffffffffffffff16815260200190815260200160002060006101000a81548160ff021916908315150217905550611544610df6565b73ffffffffffffffffffffffffffffffffffffffff168173ffffffffffffffffffffffffffffffffffffffff16837f2f8788117e7eff1d82e926ec794901d17c78024a50270940304540a733656f0d60405160405180910390a45b5050565b6115ad82826109be565b1561168057600080600084815260200190815260200160002060000160008373ffffffffffffffffffffffffffffffffffffffff1673ffffffffffffffffffffffffffffffffffffffff16815260200190815260200160002060006101000a81548160ff021916908315150217905550611625610df6565b73ffffffffffffffffffffffffffffffffffffffff168173ffffffffffffffffffffffffffffffffffffffff16837ff6391f5c32d9c69d2a47ea670b442974b53935d1edc7fd64eb21e047a839171b60405160405180910390a45b5050565b600073ffffffffffffffffffffffffffffffffffffffff168273ffffffffffffffffffffffffffffffffffffffff1614156116f4576040517f08c379a00000000000000000000000000000000000000000000000000000000081526004016116eb9061213d565b60405180910390fd5b61170060008383611adf565b806003600082825461171291906121ba565b9250508190555080600160008473ffffffffffffffffffffffffffffffffffffffff1673ffffffffffffffffffffffffffffffffffffffff168152602001908152602001600020600082825461176891906121ba565b925050819055508173ffffffffffffffffffffffffffffffffffffffff16600073ffffffffffffffffffffffffffffffffffffffff167fddf252ad1be2c89b69c2b068fc378daa952ba7f163c4a11628f55a4df523b3ef836040516117cd919061215d565b60405180910390a36117e160008383611ae4565b5050565b6060600060028360026117f89190612210565b61180291906121ba565b67ffffffffffffffff811115611841577f4e487b7100000000000000000000000000000000000000000000000000000000600052604160045260246000fd5b6040519080825280601f01601f1916602001820160405280156118735781602001600182028036833780820191505090505b5090507f3000000000000000000000000000000000000000000000000000000000000000816000815181106118d1577f4e487b7100000000000000000000000000000000000000000000000000000000600052603260045260246000fd5b60200101907effffffffffffffffffffffffffffffffffffffffffffffffffffffffffffff1916908160001a9053507f78000000000000000000000000000000000000000000000000000000000000008160018151811061195b577f4e487b7100000000000000000000000000000000000000000000000000000000600052603260045260246000fd5b60200101907effffffffffffffffffffffffffffffffffffffffffffffffffffffffffffff1916908160001a9053506000600184600261199b9190612210565b6119a591906121ba565b90505b6001811115611a91577f3031323334353637383961626364656600000000000000000000000000000000600f861660108110611a0d577f4e487b7100000000000000000000000000000000000000000000000000000000600052603260045260246000fd5b1a60f81b828281518110611a4a577f4e487b7100000000000000000000000000000000000000000000000000000000600052603260045260246000fd5b60200101907effffffffffffffffffffffffffffffffffffffffffffffffffffffffffffff1916908160001a905350600485901c945080611a8a9061235c565b90506119a8565b5060008414611ad5576040517f08c379a0000000000000000000000000000000000000000000000000000000008152600401611acc90611fdd565b60405180910390fd5b8091505092915050565b505050565b505050565b600081359050611af8816127e1565b92915050565b600081359050611b0d816127f8565b92915050565b600081359050611b228161280f565b92915050565b600081359050611b3781612826565b92915050565b600060208284031215611b4f57600080fd5b6000611b5d84828501611ae9565b91505092915050565b60008060408385031215611b7957600080fd5b6000611b8785828601611ae9565b9250506020611b9885828601611ae9565b9150509250929050565b600080600060608486031215611bb757600080fd5b6000611bc586828701611ae9565b9350506020611bd686828701611ae9565b9250506040611be786828701611b28565b9150509250925092565b60008060408385031215611c0457600080fd5b6000611c1285828601611ae9565b9250506020611c2385828601611b28565b9150509250929050565b600060208284031215611c3f57600080fd5b6000611c4d84828501611afe565b91505092915050565b60008060408385031215611c6957600080fd5b6000611c7785828601611afe565b9250506020611c8885828601611ae9565b9150509250929050565b600060208284031215611ca457600080fd5b6000611cb284828501611b13565b91505092915050565b611cc4816122b0565b82525050565b611cd3816122bc565b82525050565b6000611ce482612193565b611cee818561219e565b9350611cfe818560208601612329565b611d0781612416565b840191505092915050565b6000611d1d82612193565b611d2781856121af565b9350611d37818560208601612329565b80840191505092915050565b6000611d5060208361219e565b9150611d5b82612427565b602082019050919050565b6000611d7360238361219e565b9150611d7e82612450565b604082019050919050565b6000611d9660228361219e565b9150611da18261249f565b604082019050919050565b6000611db960228361219e565b9150611dc4826124ee565b604082019050919050565b6000611ddc60268361219e565b9150611de78261253d565b604082019050919050565b6000611dff60288361219e565b9150611e0a8261258c565b604082019050919050565b6000611e2260218361219e565b9150611e2d826125db565b604082019050919050565b6000611e4560258361219e565b9150611e508261262a565b604082019050919050565b6000611e6860248361219e565b9150611e7382612679565b604082019050919050565b6000611e8b6017836121af565b9150611e96826126c8565b601782019050919050565b6000611eae60258361219e565b9150611eb9826126f1565b604082019050919050565b6000611ed16011836121af565b9150611edc82612740565b601182019050919050565b6000611ef4602f8361219e565b9150611eff82612769565b604082019050919050565b6000611f17601f8361219e565b9150611f22826127b8565b602082019050919050565b611f3681612312565b82525050565b611f458161231c565b82525050565b6000611f5682611e7e565b9150611f628285611d12565b9150611f6d82611ec4565b9150611f798284611d12565b91508190509392505050565b6000602082019050611f9a6000830184611cbb565b92915050565b6000602082019050611fb56000830184611cca565b92915050565b60006020820190508181036000830152611fd58184611cd9565b905092915050565b60006020820190508181036000830152611ff681611d43565b9050919050565b6000602082019050818103600083015261201681611d66565b9050919050565b6000602082019050818103600083015261203681611d89565b9050919050565b6000602082019050818103600083015261205681611dac565b9050919050565b6000602082019050818103600083015261207681611dcf565b9050919050565b6000602082019050818103600083015261209681611df2565b9050919050565b600060208201905081810360008301526120b681611e15565b9050919050565b600060208201905081810360008301526120d681611e38565b9050919050565b600060208201905081810360008301526120f681611e5b565b9050919050565b6000602082019050818103600083015261211681611ea1565b9050919050565b6000602082019050818103600083015261213681611ee7565b9050919050565b6000602082019050818103600083015261215681611f0a565b9050919050565b60006020820190506121726000830184611f2d565b92915050565b600060208201905061218d6000830184611f3c565b92915050565b600081519050919050565b600082825260208201905092915050565b600081905092915050565b60006121c582612312565b91506121d083612312565b9250827fffffffffffffffffffffffffffffffffffffffffffffffffffffffffffffffff03821115612205576122046123b8565b5b828201905092915050565b600061221b82612312565b915061222683612312565b9250817fffffffffffffffffffffffffffffffffffffffffffffffffffffffffffffffff048311821515161561225f5761225e6123b8565b5b828202905092915050565b600061227582612312565b915061228083612312565b925082821015612293576122926123b8565b5b828203905092915050565b60006122a9826122f2565b9050919050565b60008115159050919050565b6000819050919050565b60007fffffffff0000000000000000000000000000000000000000000000000000000082169050919050565b600073ffffffffffffffffffffffffffffffffffffffff82169050919050565b6000819050919050565b600060ff82169050919050565b60005b8381101561234757808201518184015260208101905061232c565b83811115612356576000848401525b50505050565b600061236782612312565b9150600082141561237b5761237a6123b8565b5b600182039050919050565b6000600282049050600182168061239e57607f821691505b602082108114156123b2576123b16123e7565b5b50919050565b7f4e487b7100000000000000000000000000000000000000000000000000000000600052601160045260246000fd5b7f4e487b7100000000000000000000000000000000000000000000000000000000600052602260045260246000fd5b6000601f19601f8301169050919050565b7f537472696e67733a20686578206c656e67746820696e73756666696369656e74600082015250565b7f45524332303a207472616e7366657220746f20746865207a65726f206164647260008201527f6573730000000000000000000000000000000000000000000000000000000000602082015250565b7f45524332303a206275726e20616d6f756e7420657863656564732062616c616e60008201527f6365000000000000000000000000000000000000000000000000000000000000602082015250565b7f45524332303a20617070726f766520746f20746865207a65726f20616464726560008201527f7373000000000000000000000000000000000000000000000000000000000000602082015250565b7f45524332303a207472616e7366657220616d6f756e742065786365656473206260008201527f616c616e63650000000000000000000000000000000000000000000000000000602082015250565b7f45524332303a207472616e7366657220616d6f756e742065786365656473206160008201527f6c6c6f77616e6365000000000000000000000000000000000000000000000000602082015250565b7f45524332303a206275726e2066726f6d20746865207a65726f2061646472657360008201527f7300000000000000000000000000000000000000000000000000000000000000602082015250565b7f45524332303a207472616e736665722066726f6d20746865207a65726f20616460008201527f6472657373000000000000000000000000000000000000000000000000000000602082015250565b7f45524332303a20617070726f76652066726f6d20746865207a65726f2061646460008201527f7265737300000000000000000000000000000000000000000000000000000000602082015250565b7f416363657373436f6e74726f6c3a206163636f756e7420000000000000000000600082015250565b7f45524332303a2064656372656173656420616c6c6f77616e63652062656c6f7760008201527f207a65726f000000000000000000000000000000000000000000000000000000602082015250565b7f206973206d697373696e6720726f6c6520000000000000000000000000000000600082015250565b7f416363657373436f6e74726f6c3a2063616e206f6e6c792072656e6f756e636560008201527f20726f6c657320666f722073656c660000000000000000000000000000000000602082015250565b7f45524332303a206d696e7420746f20746865207a65726f206164647265737300600082015250565b6127ea8161229e565b81146127f557600080fd5b50565b612801816122bc565b811461280c57600080fd5b50565b612818816122c6565b811461282357600080fd5b50565b61282f81612312565b811461283a57600080fd5b5056fea26469706673582212201c2d392da2e934d4de05421244bdcd45e61983110729d50b1eb887a4938795bd64736f6c63430008010033",
  "immutableReferences": {},
  "source": "// SPDX-License-Identifier: MIT\n// contracts/co2accounting.sol\npragma solidity ^0.8.0;\n\nimport \"@openzeppelin/contracts/access/AccessControl.sol\";\nimport \"@openzeppelin/contracts/token/ERC20/ERC20.sol\";\n\n/**\n * Implements CO2 Event handling (Emission event => Compensation) with the pattern of a burnable token.\n */\n\ncontract CO2Accounting is AccessControl, ERC20 {\n    bytes32 public constant EMITTER_ROLE = keccak256(\"EMITTER_ROLE\");\n    bytes32 public constant COMPENSATOR_ROLE = keccak256(\"COMPENSATOR_ROLE\");\n    uint256 public totalEmission = 0;\n    uint256 public totalCompensation = 0;\n\n    event Emission(address indexed to, uint256 amount);\n    event Compensation(address indexed from, uint256 amount);\n    event Congestion(address indexed recipient, uint256 amount);\n\n    constructor() ERC20(\"CO2G\", \"CO2G\") {\n      _setupRole(DEFAULT_ADMIN_ROLE, msg.sender);\n      _setupRole(EMITTER_ROLE,msg.sender);\n      _setupRole(COMPENSATOR_ROLE,msg.sender);\n    }\n\n    function emission(address to, uint256 amount) public onlyRole(EMITTER_ROLE) {\n        _mint(to, amount);\n        totalEmission += amount;\n        emit Emission(to, amount);\n    }\n\n    function compensation(address from, uint256 amount) public onlyRole(COMPENSATOR_ROLE) {\n        _burn(from, amount);\n        totalCompensation += amount;\n        emit Compensation(from,amount);\n    }\n\n    function transfer(address recipient, uint256 amount) public onlyRole(DEFAULT_ADMIN_ROLE) virtual override returns (bool) {\n      _transfer(_msgSender(), recipient, amount);\n      emit Congestion(recipient, amount);\n      return true;\n    }\n\n    function decimals() public view override returns (uint8) {\n        return 0;\n    }\n}\n",
  "sourcePath": "/home/zoernert/Development/co2event/contracts/CO2Accounting.sol",
  "compiler": {
    "name": "solc",
    "version": "0.8.1+commit.df193b15.Emscripten.clang"
  },
  "schemaVersion": "3.4.3",
  "updatedAt": "2021-10-11T13:28:48.183Z",
  "networkType": "ethereum",
  "devdoc": {
    "kind": "dev",
    "methods": {
      "allowance(address,address)": {
        "details": "See {IERC20-allowance}."
      },
      "approve(address,uint256)": {
        "details": "See {IERC20-approve}. Requirements: - `spender` cannot be the zero address."
      },
      "balanceOf(address)": {
        "details": "See {IERC20-balanceOf}."
      },
      "decimals()": {
        "details": "Returns the number of decimals used to get its user representation. For example, if `decimals` equals `2`, a balance of `505` tokens should be displayed to a user as `5.05` (`505 / 10 ** 2`). Tokens usually opt for a value of 18, imitating the relationship between Ether and Wei. This is the value {ERC20} uses, unless this function is overridden; NOTE: This information is only used for _display_ purposes: it in no way affects any of the arithmetic of the contract, including {IERC20-balanceOf} and {IERC20-transfer}."
      },
      "decreaseAllowance(address,uint256)": {
        "details": "Atomically decreases the allowance granted to `spender` by the caller. This is an alternative to {approve} that can be used as a mitigation for problems described in {IERC20-approve}. Emits an {Approval} event indicating the updated allowance. Requirements: - `spender` cannot be the zero address. - `spender` must have allowance for the caller of at least `subtractedValue`."
      },
      "getRoleAdmin(bytes32)": {
        "details": "Returns the admin role that controls `role`. See {grantRole} and {revokeRole}. To change a role's admin, use {_setRoleAdmin}."
      },
      "grantRole(bytes32,address)": {
        "details": "Grants `role` to `account`. If `account` had not been already granted `role`, emits a {RoleGranted} event. Requirements: - the caller must have ``role``'s admin role."
      },
      "hasRole(bytes32,address)": {
        "details": "Returns `true` if `account` has been granted `role`."
      },
      "increaseAllowance(address,uint256)": {
        "details": "Atomically increases the allowance granted to `spender` by the caller. This is an alternative to {approve} that can be used as a mitigation for problems described in {IERC20-approve}. Emits an {Approval} event indicating the updated allowance. Requirements: - `spender` cannot be the zero address."
      },
      "name()": {
        "details": "Returns the name of the token."
      },
      "renounceRole(bytes32,address)": {
        "details": "Revokes `role` from the calling account. Roles are often managed via {grantRole} and {revokeRole}: this function's purpose is to provide a mechanism for accounts to lose their privileges if they are compromised (such as when a trusted device is misplaced). If the calling account had been granted `role`, emits a {RoleRevoked} event. Requirements: - the caller must be `account`."
      },
      "revokeRole(bytes32,address)": {
        "details": "Revokes `role` from `account`. If `account` had been granted `role`, emits a {RoleRevoked} event. Requirements: - the caller must have ``role``'s admin role."
      },
      "supportsInterface(bytes4)": {
        "details": "See {IERC165-supportsInterface}."
      },
      "symbol()": {
        "details": "Returns the symbol of the token, usually a shorter version of the name."
      },
      "totalSupply()": {
        "details": "See {IERC20-totalSupply}."
      },
      "transfer(address,uint256)": {
        "details": "See {IERC20-transfer}. Requirements: - `recipient` cannot be the zero address. - the caller must have a balance of at least `amount`."
      },
      "transferFrom(address,address,uint256)": {
        "details": "See {IERC20-transferFrom}. Emits an {Approval} event indicating the updated allowance. This is not required by the EIP. See the note at the beginning of {ERC20}. Requirements: - `sender` and `recipient` cannot be the zero address. - `sender` must have a balance of at least `amount`. - the caller must have allowance for ``sender``'s tokens of at least `amount`."
      }
    },
    "version": 1
  },
  "userdoc": {
    "kind": "user",
    "methods": {},
    "notice": "Implements CO2 Event handling (Emission event => Compensation) with the pattern of a burnable token.",
    "version": 1
  }
}