{
  "contractName": "CO2Accounting",
  "abi": [
    {
      "inputs": [],
      "stateMutability": "nonpayable",
      "type": "constructor"
    },
    {
      "anonymous": false,
      "inputs": [
        {
          "indexed": true,
          "internalType": "address",
          "name": "owner",
          "type": "address"
        },
        {
          "indexed": true,
          "internalType": "address",
          "name": "spender",
          "type": "address"
        },
        {
          "indexed": false,
          "internalType": "uint256",
          "name": "value",
          "type": "uint256"
        }
      ],
      "name": "Approval",
      "type": "event"
    },
    {
      "anonymous": false,
      "inputs": [
        {
          "indexed": true,
          "internalType": "bytes32",
          "name": "role",
          "type": "bytes32"
        },
        {
          "indexed": true,
          "internalType": "bytes32",
          "name": "previousAdminRole",
          "type": "bytes32"
        },
        {
          "indexed": true,
          "internalType": "bytes32",
          "name": "newAdminRole",
          "type": "bytes32"
        }
      ],
      "name": "RoleAdminChanged",
      "type": "event"
    },
    {
      "anonymous": false,
      "inputs": [
        {
          "indexed": true,
          "internalType": "bytes32",
          "name": "role",
          "type": "bytes32"
        },
        {
          "indexed": true,
          "internalType": "address",
          "name": "account",
          "type": "address"
        },
        {
          "indexed": true,
          "internalType": "address",
          "name": "sender",
          "type": "address"
        }
      ],
      "name": "RoleGranted",
      "type": "event"
    },
    {
      "anonymous": false,
      "inputs": [
        {
          "indexed": true,
          "internalType": "bytes32",
          "name": "role",
          "type": "bytes32"
        },
        {
          "indexed": true,
          "internalType": "address",
          "name": "account",
          "type": "address"
        },
        {
          "indexed": true,
          "internalType": "address",
          "name": "sender",
          "type": "address"
        }
      ],
      "name": "RoleRevoked",
      "type": "event"
    },
    {
      "anonymous": false,
      "inputs": [
        {
          "indexed": true,
          "internalType": "address",
          "name": "from",
          "type": "address"
        },
        {
          "indexed": true,
          "internalType": "address",
          "name": "to",
          "type": "address"
        },
        {
          "indexed": false,
          "internalType": "uint256",
          "name": "value",
          "type": "uint256"
        }
      ],
      "name": "Transfer",
      "type": "event"
    },
    {
      "inputs": [],
      "name": "COMPENSATOR_ROLE",
      "outputs": [
        {
          "internalType": "bytes32",
          "name": "",
          "type": "bytes32"
        }
      ],
      "stateMutability": "view",
      "type": "function",
      "constant": true
    },
    {
      "inputs": [],
      "name": "DEFAULT_ADMIN_ROLE",
      "outputs": [
        {
          "internalType": "bytes32",
          "name": "",
          "type": "bytes32"
        }
      ],
      "stateMutability": "view",
      "type": "function",
      "constant": true
    },
    {
      "inputs": [],
      "name": "EMITTER_ROLE",
      "outputs": [
        {
          "internalType": "bytes32",
          "name": "",
          "type": "bytes32"
        }
      ],
      "stateMutability": "view",
      "type": "function",
      "constant": true
    },
    {
      "inputs": [
        {
          "internalType": "address",
          "name": "owner",
          "type": "address"
        },
        {
          "internalType": "address",
          "name": "spender",
          "type": "address"
        }
      ],
      "name": "allowance",
      "outputs": [
        {
          "internalType": "uint256",
          "name": "",
          "type": "uint256"
        }
      ],
      "stateMutability": "view",
      "type": "function",
      "constant": true
    },
    {
      "inputs": [
        {
          "internalType": "address",
          "name": "spender",
          "type": "address"
        },
        {
          "internalType": "uint256",
          "name": "amount",
          "type": "uint256"
        }
      ],
      "name": "approve",
      "outputs": [
        {
          "internalType": "bool",
          "name": "",
          "type": "bool"
        }
      ],
      "stateMutability": "nonpayable",
      "type": "function"
    },
    {
      "inputs": [
        {
          "internalType": "address",
          "name": "account",
          "type": "address"
        }
      ],
      "name": "balanceOf",
      "outputs": [
        {
          "internalType": "uint256",
          "name": "",
          "type": "uint256"
        }
      ],
      "stateMutability": "view",
      "type": "function",
      "constant": true
    },
    {
      "inputs": [
        {
          "internalType": "address",
          "name": "spender",
          "type": "address"
        },
        {
          "internalType": "uint256",
          "name": "subtractedValue",
          "type": "uint256"
        }
      ],
      "name": "decreaseAllowance",
      "outputs": [
        {
          "internalType": "bool",
          "name": "",
          "type": "bool"
        }
      ],
      "stateMutability": "nonpayable",
      "type": "function"
    },
    {
      "inputs": [
        {
          "internalType": "bytes32",
          "name": "role",
          "type": "bytes32"
        }
      ],
      "name": "getRoleAdmin",
      "outputs": [
        {
          "internalType": "bytes32",
          "name": "",
          "type": "bytes32"
        }
      ],
      "stateMutability": "view",
      "type": "function",
      "constant": true
    },
    {
      "inputs": [
        {
          "internalType": "bytes32",
          "name": "role",
          "type": "bytes32"
        },
        {
          "internalType": "address",
          "name": "account",
          "type": "address"
        }
      ],
      "name": "grantRole",
      "outputs": [],
      "stateMutability": "nonpayable",
      "type": "function"
    },
    {
      "inputs": [
        {
          "internalType": "bytes32",
          "name": "role",
          "type": "bytes32"
        },
        {
          "internalType": "address",
          "name": "account",
          "type": "address"
        }
      ],
      "name": "hasRole",
      "outputs": [
        {
          "internalType": "bool",
          "name": "",
          "type": "bool"
        }
      ],
      "stateMutability": "view",
      "type": "function",
      "constant": true
    },
    {
      "inputs": [
        {
          "internalType": "address",
          "name": "spender",
          "type": "address"
        },
        {
          "internalType": "uint256",
          "name": "addedValue",
          "type": "uint256"
        }
      ],
      "name": "increaseAllowance",
      "outputs": [
        {
          "internalType": "bool",
          "name": "",
          "type": "bool"
        }
      ],
      "stateMutability": "nonpayable",
      "type": "function"
    },
    {
      "inputs": [],
      "name": "name",
      "outputs": [
        {
          "internalType": "string",
          "name": "",
          "type": "string"
        }
      ],
      "stateMutability": "view",
      "type": "function",
      "constant": true
    },
    {
      "inputs": [
        {
          "internalType": "bytes32",
          "name": "role",
          "type": "bytes32"
        },
        {
          "internalType": "address",
          "name": "account",
          "type": "address"
        }
      ],
      "name": "renounceRole",
      "outputs": [],
      "stateMutability": "nonpayable",
      "type": "function"
    },
    {
      "inputs": [
        {
          "internalType": "bytes32",
          "name": "role",
          "type": "bytes32"
        },
        {
          "internalType": "address",
          "name": "account",
          "type": "address"
        }
      ],
      "name": "revokeRole",
      "outputs": [],
      "stateMutability": "nonpayable",
      "type": "function"
    },
    {
      "inputs": [
        {
          "internalType": "bytes4",
          "name": "interfaceId",
          "type": "bytes4"
        }
      ],
      "name": "supportsInterface",
      "outputs": [
        {
          "internalType": "bool",
          "name": "",
          "type": "bool"
        }
      ],
      "stateMutability": "view",
      "type": "function",
      "constant": true
    },
    {
      "inputs": [],
      "name": "symbol",
      "outputs": [
        {
          "internalType": "string",
          "name": "",
          "type": "string"
        }
      ],
      "stateMutability": "view",
      "type": "function",
      "constant": true
    },
    {
      "inputs": [],
      "name": "totalSupply",
      "outputs": [
        {
          "internalType": "uint256",
          "name": "",
          "type": "uint256"
        }
      ],
      "stateMutability": "view",
      "type": "function",
      "constant": true
    },
    {
      "inputs": [
        {
          "internalType": "address",
          "name": "sender",
          "type": "address"
        },
        {
          "internalType": "address",
          "name": "recipient",
          "type": "address"
        },
        {
          "internalType": "uint256",
          "name": "amount",
          "type": "uint256"
        }
      ],
      "name": "transferFrom",
      "outputs": [
        {
          "internalType": "bool",
          "name": "",
          "type": "bool"
        }
      ],
      "stateMutability": "nonpayable",
      "type": "function"
    },
    {
      "inputs": [
        {
          "internalType": "address",
          "name": "to",
          "type": "address"
        },
        {
          "internalType": "uint256",
          "name": "amount",
          "type": "uint256"
        }
      ],
      "name": "emission",
      "outputs": [],
      "stateMutability": "nonpayable",
      "type": "function"
    },
    {
      "inputs": [
        {
          "internalType": "address",
          "name": "from",
          "type": "address"
        },
        {
          "internalType": "uint256",
          "name": "amount",
          "type": "uint256"
        }
      ],
      "name": "compensation",
      "outputs": [],
      "stateMutability": "nonpayable",
      "type": "function"
    },
    {
      "inputs": [
        {
          "internalType": "address",
          "name": "recipient",
          "type": "address"
        },
        {
          "internalType": "uint256",
          "name": "amount",
          "type": "uint256"
        }
      ],
      "name": "transfer",
      "outputs": [
        {
          "internalType": "bool",
          "name": "",
          "type": "bool"
        }
      ],
      "stateMutability": "nonpayable",
      "type": "function"
    },
    {
      "inputs": [],
      "name": "decimals",
      "outputs": [
        {
          "internalType": "uint8",
          "name": "",
          "type": "uint8"
        }
      ],
      "stateMutability": "view",
      "type": "function",
      "constant": true
    }
  ],
  "bytecode": "0x60806040523480156200001157600080fd5b506040518060400160405280600481526020017f434f3247000000000000000000000000000000000000000000000000000000008152506040518060400160405280600481526020017f434f324700000000000000000000000000000000000000000000000000000000815250816004908051906020019062000096929190620002aa565b508060059080519060200190620000af929190620002aa565b505050620000c76000801b336200013160201b60201c565b620000f97f4b0ad04e4cfd06668c08542d3af105a3fa4b1a2813040bbb694bfecf2e5f5240336200013160201b60201c565b6200012b7f274a4f526f200e5846866c5200344b6e9c66dc1252a5c9c75104712fa36216c3336200013160201b60201c565b620003bf565b6200014382826200014760201b60201c565b5050565b6200015982826200023860201b60201c565b6200023457600160008084815260200190815260200160002060000160008373ffffffffffffffffffffffffffffffffffffffff1673ffffffffffffffffffffffffffffffffffffffff16815260200190815260200160002060006101000a81548160ff021916908315150217905550620001d9620002a260201b60201c565b73ffffffffffffffffffffffffffffffffffffffff168173ffffffffffffffffffffffffffffffffffffffff16837f2f8788117e7eff1d82e926ec794901d17c78024a50270940304540a733656f0d60405160405180910390a45b5050565b600080600084815260200190815260200160002060000160008373ffffffffffffffffffffffffffffffffffffffff1673ffffffffffffffffffffffffffffffffffffffff16815260200190815260200160002060009054906101000a900460ff16905092915050565b600033905090565b828054620002b8906200035a565b90600052602060002090601f016020900481019282620002dc576000855562000328565b82601f10620002f757805160ff191683800117855562000328565b8280016001018555821562000328579182015b82811115620003275782518255916020019190600101906200030a565b5b5090506200033791906200033b565b5090565b5b80821115620003565760008160009055506001016200033c565b5090565b600060028204905060018216806200037357607f821691505b602082108114156200038a576200038962000390565b5b50919050565b7f4e487b7100000000000000000000000000000000000000000000000000000000600052602260045260246000fd5b6126f980620003cf6000396000f3fe608060405234801561001057600080fd5b50600436106101425760003560e01c806339509351116100b857806397572aa91161007c57806397572aa91461039f578063a217fddf146103bb578063a457c2d7146103d9578063a9059cbb14610409578063d547741f14610439578063dd62ed3e1461045557610142565b806339509351146102d357806370a0823114610303578063812f40c81461033357806391d148541461035157806395d89b411461038157610142565b806318160ddd1161010a57806318160ddd146101ff57806323b872dd1461021d578063248a9ca31461024d5780632f2ff15d1461027d578063313ce5671461029957806336568abe146102b757610142565b806301ffc9a71461014757806306fdde0314610177578063095ea7b314610195578063136f235b146101c557806318004b39146101e1575b600080fd5b610161600480360381019061015c9190611b18565b610485565b60405161016e9190611e0b565b60405180910390f35b61017f6104ff565b60405161018c9190611e41565b60405180910390f35b6101af60048036038101906101aa9190611a77565b610591565b6040516101bc9190611e0b565b60405180910390f35b6101df60048036038101906101da9190611a77565b6105af565b005b6101e96105f0565b6040516101f69190611e26565b60405180910390f35b610207610614565b6040516102149190611fe3565b60405180910390f35b61023760048036038101906102329190611a28565b61061e565b6040516102449190611e0b565b60405180910390f35b61026760048036038101906102629190611ab3565b610716565b6040516102749190611e26565b60405180910390f35b61029760048036038101906102929190611adc565b610735565b005b6102a161075e565b6040516102ae9190611ffe565b60405180910390f35b6102d160048036038101906102cc9190611adc565b610763565b005b6102ed60048036038101906102e89190611a77565b6107e6565b6040516102fa9190611e0b565b60405180910390f35b61031d600480360381019061031891906119c3565b610892565b60405161032a9190611fe3565b60405180910390f35b61033b6108db565b6040516103489190611e26565b60405180910390f35b61036b60048036038101906103669190611adc565b6108ff565b6040516103789190611e0b565b60405180910390f35b610389610969565b6040516103969190611e41565b60405180910390f35b6103b960048036038101906103b49190611a77565b6109fb565b005b6103c3610a3c565b6040516103d09190611e26565b60405180910390f35b6103f360048036038101906103ee9190611a77565b610a43565b6040516104009190611e0b565b60405180910390f35b610423600480360381019061041e9190611a77565b610b2e565b6040516104309190611e0b565b60405180910390f35b610453600480360381019061044e9190611adc565b610b62565b005b61046f600480360381019061046a91906119ec565b610b8b565b60405161047c9190611fe3565b60405180910390f35b60007f7965db0b000000000000000000000000000000000000000000000000000000007bffffffffffffffffffffffffffffffffffffffffffffffffffffffff1916827bffffffffffffffffffffffffffffffffffffffffffffffffffffffff191614806104f857506104f782610c12565b5b9050919050565b60606004805461050e9061220c565b80601f016020809104026020016040519081016040528092919081815260200182805461053a9061220c565b80156105875780601f1061055c57610100808354040283529160200191610587565b820191906000526020600020905b81548152906001019060200180831161056a57829003601f168201915b5050505050905090565b60006105a561059e610c7c565b8484610c84565b6001905092915050565b7f274a4f526f200e5846866c5200344b6e9c66dc1252a5c9c75104712fa36216c36105e1816105dc610c7c565b610e4f565b6105eb8383610eec565b505050565b7f4b0ad04e4cfd06668c08542d3af105a3fa4b1a2813040bbb694bfecf2e5f524081565b6000600354905090565b600061062b8484846110c5565b6000600260008673ffffffffffffffffffffffffffffffffffffffff1673ffffffffffffffffffffffffffffffffffffffff1681526020019081526020016000206000610676610c7c565b73ffffffffffffffffffffffffffffffffffffffff1673ffffffffffffffffffffffffffffffffffffffff168152602001908152602001600020549050828110156106f6576040517f08c379a00000000000000000000000000000000000000000000000000000000081526004016106ed90611f03565b60405180910390fd5b61070a85610702610c7c565b858403610c84565b60019150509392505050565b6000806000838152602001908152602001600020600101549050919050565b61073e82610716565b61074f8161074a610c7c565b610e4f565b6107598383611349565b505050565b600090565b61076b610c7c565b73ffffffffffffffffffffffffffffffffffffffff168173ffffffffffffffffffffffffffffffffffffffff16146107d8576040517f08c379a00000000000000000000000000000000000000000000000000000000081526004016107cf90611fa3565b60405180910390fd5b6107e28282611429565b5050565b60006108886107f3610c7c565b848460026000610801610c7c565b73ffffffffffffffffffffffffffffffffffffffff1673ffffffffffffffffffffffffffffffffffffffff16815260200190815260200160002060008873ffffffffffffffffffffffffffffffffffffffff1673ffffffffffffffffffffffffffffffffffffffff168152602001908152602001600020546108839190612040565b610c84565b6001905092915050565b6000600160008373ffffffffffffffffffffffffffffffffffffffff1673ffffffffffffffffffffffffffffffffffffffff168152602001908152602001600020549050919050565b7f274a4f526f200e5846866c5200344b6e9c66dc1252a5c9c75104712fa36216c381565b600080600084815260200190815260200160002060000160008373ffffffffffffffffffffffffffffffffffffffff1673ffffffffffffffffffffffffffffffffffffffff16815260200190815260200160002060009054906101000a900460ff16905092915050565b6060600580546109789061220c565b80601f01602080910402602001604051908101604052809291908181526020018280546109a49061220c565b80156109f15780601f106109c6576101008083540402835291602001916109f1565b820191906000526020600020905b8154815290600101906020018083116109d457829003601f168201915b5050505050905090565b7f4b0ad04e4cfd06668c08542d3af105a3fa4b1a2813040bbb694bfecf2e5f5240610a2d81610a28610c7c565b610e4f565b610a37838361150a565b505050565b6000801b81565b60008060026000610a52610c7c565b73ffffffffffffffffffffffffffffffffffffffff1673ffffffffffffffffffffffffffffffffffffffff16815260200190815260200160002060008573ffffffffffffffffffffffffffffffffffffffff1673ffffffffffffffffffffffffffffffffffffffff16815260200190815260200160002054905082811015610b0f576040517f08c379a0000000000000000000000000000000000000000000000000000000008152600401610b0690611f83565b60405180910390fd5b610b23610b1a610c7c565b85858403610c84565b600191505092915050565b60008060001b610b4581610b40610c7c565b610e4f565b610b57610b50610c7c565b85856110c5565b600191505092915050565b610b6b82610716565b610b7c81610b77610c7c565b610e4f565b610b868383611429565b505050565b6000600260008473ffffffffffffffffffffffffffffffffffffffff1673ffffffffffffffffffffffffffffffffffffffff16815260200190815260200160002060008373ffffffffffffffffffffffffffffffffffffffff1673ffffffffffffffffffffffffffffffffffffffff16815260200190815260200160002054905092915050565b60007f01ffc9a7000000000000000000000000000000000000000000000000000000007bffffffffffffffffffffffffffffffffffffffffffffffffffffffff1916827bffffffffffffffffffffffffffffffffffffffffffffffffffffffff1916149050919050565b600033905090565b600073ffffffffffffffffffffffffffffffffffffffff168373ffffffffffffffffffffffffffffffffffffffff161415610cf4576040517f08c379a0000000000000000000000000000000000000000000000000000000008152600401610ceb90611f63565b60405180910390fd5b600073ffffffffffffffffffffffffffffffffffffffff168273ffffffffffffffffffffffffffffffffffffffff161415610d64576040517f08c379a0000000000000000000000000000000000000000000000000000000008152600401610d5b90611ec3565b60405180910390fd5b80600260008573ffffffffffffffffffffffffffffffffffffffff1673ffffffffffffffffffffffffffffffffffffffff16815260200190815260200160002060008473ffffffffffffffffffffffffffffffffffffffff1673ffffffffffffffffffffffffffffffffffffffff168152602001908152602001600020819055508173ffffffffffffffffffffffffffffffffffffffff168373ffffffffffffffffffffffffffffffffffffffff167f8c5be1e5ebec7d5bd14f71427d1e84f3dd0314c0f7b2291e5b200ac8c7c3b92583604051610e429190611fe3565b60405180910390a3505050565b610e5982826108ff565b610ee857610e7e8173ffffffffffffffffffffffffffffffffffffffff16601461166b565b610e8c8360001c602061166b565b604051602001610e9d929190611dd1565b6040516020818303038152906040526040517f08c379a0000000000000000000000000000000000000000000000000000000008152600401610edf9190611e41565b60405180910390fd5b5050565b600073ffffffffffffffffffffffffffffffffffffffff168273ffffffffffffffffffffffffffffffffffffffff161415610f5c576040517f08c379a0000000000000000000000000000000000000000000000000000000008152600401610f5390611f23565b60405180910390fd5b610f6882600083611965565b6000600160008473ffffffffffffffffffffffffffffffffffffffff1673ffffffffffffffffffffffffffffffffffffffff16815260200190815260200160002054905081811015610fef576040517f08c379a0000000000000000000000000000000000000000000000000000000008152600401610fe690611ea3565b60405180910390fd5b818103600160008573ffffffffffffffffffffffffffffffffffffffff1673ffffffffffffffffffffffffffffffffffffffff16815260200190815260200160002081905550816003600082825461104791906120f0565b92505081905550600073ffffffffffffffffffffffffffffffffffffffff168373ffffffffffffffffffffffffffffffffffffffff167fddf252ad1be2c89b69c2b068fc378daa952ba7f163c4a11628f55a4df523b3ef846040516110ac9190611fe3565b60405180910390a36110c08360008461196a565b505050565b600073ffffffffffffffffffffffffffffffffffffffff168373ffffffffffffffffffffffffffffffffffffffff161415611135576040517f08c379a000000000000000000000000000000000000000000000000000000000815260040161112c90611f43565b60405180910390fd5b600073ffffffffffffffffffffffffffffffffffffffff168273ffffffffffffffffffffffffffffffffffffffff1614156111a5576040517f08c379a000000000000000000000000000000000000000000000000000000000815260040161119c90611e83565b60405180910390fd5b6111b0838383611965565b6000600160008573ffffffffffffffffffffffffffffffffffffffff1673ffffffffffffffffffffffffffffffffffffffff16815260200190815260200160002054905081811015611237576040517f08c379a000000000000000000000000000000000000000000000000000000000815260040161122e90611ee3565b60405180910390fd5b818103600160008673ffffffffffffffffffffffffffffffffffffffff1673ffffffffffffffffffffffffffffffffffffffff1681526020019081526020016000208190555081600160008573ffffffffffffffffffffffffffffffffffffffff1673ffffffffffffffffffffffffffffffffffffffff16815260200190815260200160002060008282546112cc9190612040565b925050819055508273ffffffffffffffffffffffffffffffffffffffff168473ffffffffffffffffffffffffffffffffffffffff167fddf252ad1be2c89b69c2b068fc378daa952ba7f163c4a11628f55a4df523b3ef846040516113309190611fe3565b60405180910390a361134384848461196a565b50505050565b61135382826108ff565b61142557600160008084815260200190815260200160002060000160008373ffffffffffffffffffffffffffffffffffffffff1673ffffffffffffffffffffffffffffffffffffffff16815260200190815260200160002060006101000a81548160ff0219169083151502179055506113ca610c7c565b73ffffffffffffffffffffffffffffffffffffffff168173ffffffffffffffffffffffffffffffffffffffff16837f2f8788117e7eff1d82e926ec794901d17c78024a50270940304540a733656f0d60405160405180910390a45b5050565b61143382826108ff565b1561150657600080600084815260200190815260200160002060000160008373ffffffffffffffffffffffffffffffffffffffff1673ffffffffffffffffffffffffffffffffffffffff16815260200190815260200160002060006101000a81548160ff0219169083151502179055506114ab610c7c565b73ffffffffffffffffffffffffffffffffffffffff168173ffffffffffffffffffffffffffffffffffffffff16837ff6391f5c32d9c69d2a47ea670b442974b53935d1edc7fd64eb21e047a839171b60405160405180910390a45b5050565b600073ffffffffffffffffffffffffffffffffffffffff168273ffffffffffffffffffffffffffffffffffffffff16141561157a576040517f08c379a000000000000000000000000000000000000000000000000000000000815260040161157190611fc3565b60405180910390fd5b61158660008383611965565b80600360008282546115989190612040565b9250508190555080600160008473ffffffffffffffffffffffffffffffffffffffff1673ffffffffffffffffffffffffffffffffffffffff16815260200190815260200160002060008282546115ee9190612040565b925050819055508173ffffffffffffffffffffffffffffffffffffffff16600073ffffffffffffffffffffffffffffffffffffffff167fddf252ad1be2c89b69c2b068fc378daa952ba7f163c4a11628f55a4df523b3ef836040516116539190611fe3565b60405180910390a36116676000838361196a565b5050565b60606000600283600261167e9190612096565b6116889190612040565b67ffffffffffffffff8111156116c7577f4e487b7100000000000000000000000000000000000000000000000000000000600052604160045260246000fd5b6040519080825280601f01601f1916602001820160405280156116f95781602001600182028036833780820191505090505b5090507f300000000000000000000000000000000000000000000000000000000000000081600081518110611757577f4e487b7100000000000000000000000000000000000000000000000000000000600052603260045260246000fd5b60200101907effffffffffffffffffffffffffffffffffffffffffffffffffffffffffffff1916908160001a9053507f7800000000000000000000000000000000000000000000000000000000000000816001815181106117e1577f4e487b7100000000000000000000000000000000000000000000000000000000600052603260045260246000fd5b60200101907effffffffffffffffffffffffffffffffffffffffffffffffffffffffffffff1916908160001a905350600060018460026118219190612096565b61182b9190612040565b90505b6001811115611917577f3031323334353637383961626364656600000000000000000000000000000000600f861660108110611893577f4e487b7100000000000000000000000000000000000000000000000000000000600052603260045260246000fd5b1a60f81b8282815181106118d0577f4e487b7100000000000000000000000000000000000000000000000000000000600052603260045260246000fd5b60200101907effffffffffffffffffffffffffffffffffffffffffffffffffffffffffffff1916908160001a905350600485901c945080611910906121e2565b905061182e565b506000841461195b576040517f08c379a000000000000000000000000000000000000000000000000000000000815260040161195290611e63565b60405180910390fd5b8091505092915050565b505050565b505050565b60008135905061197e81612667565b92915050565b6000813590506119938161267e565b92915050565b6000813590506119a881612695565b92915050565b6000813590506119bd816126ac565b92915050565b6000602082840312156119d557600080fd5b60006119e38482850161196f565b91505092915050565b600080604083850312156119ff57600080fd5b6000611a0d8582860161196f565b9250506020611a1e8582860161196f565b9150509250929050565b600080600060608486031215611a3d57600080fd5b6000611a4b8682870161196f565b9350506020611a5c8682870161196f565b9250506040611a6d868287016119ae565b9150509250925092565b60008060408385031215611a8a57600080fd5b6000611a988582860161196f565b9250506020611aa9858286016119ae565b9150509250929050565b600060208284031215611ac557600080fd5b6000611ad384828501611984565b91505092915050565b60008060408385031215611aef57600080fd5b6000611afd85828601611984565b9250506020611b0e8582860161196f565b9150509250929050565b600060208284031215611b2a57600080fd5b6000611b3884828501611999565b91505092915050565b611b4a81612136565b82525050565b611b5981612142565b82525050565b6000611b6a82612019565b611b748185612024565b9350611b848185602086016121af565b611b8d8161229c565b840191505092915050565b6000611ba382612019565b611bad8185612035565b9350611bbd8185602086016121af565b80840191505092915050565b6000611bd6602083612024565b9150611be1826122ad565b602082019050919050565b6000611bf9602383612024565b9150611c04826122d6565b604082019050919050565b6000611c1c602283612024565b9150611c2782612325565b604082019050919050565b6000611c3f602283612024565b9150611c4a82612374565b604082019050919050565b6000611c62602683612024565b9150611c6d826123c3565b604082019050919050565b6000611c85602883612024565b9150611c9082612412565b604082019050919050565b6000611ca8602183612024565b9150611cb382612461565b604082019050919050565b6000611ccb602583612024565b9150611cd6826124b0565b604082019050919050565b6000611cee602483612024565b9150611cf9826124ff565b604082019050919050565b6000611d11601783612035565b9150611d1c8261254e565b601782019050919050565b6000611d34602583612024565b9150611d3f82612577565b604082019050919050565b6000611d57601183612035565b9150611d62826125c6565b601182019050919050565b6000611d7a602f83612024565b9150611d85826125ef565b604082019050919050565b6000611d9d601f83612024565b9150611da88261263e565b602082019050919050565b611dbc81612198565b82525050565b611dcb816121a2565b82525050565b6000611ddc82611d04565b9150611de88285611b98565b9150611df382611d4a565b9150611dff8284611b98565b91508190509392505050565b6000602082019050611e206000830184611b41565b92915050565b6000602082019050611e3b6000830184611b50565b92915050565b60006020820190508181036000830152611e5b8184611b5f565b905092915050565b60006020820190508181036000830152611e7c81611bc9565b9050919050565b60006020820190508181036000830152611e9c81611bec565b9050919050565b60006020820190508181036000830152611ebc81611c0f565b9050919050565b60006020820190508181036000830152611edc81611c32565b9050919050565b60006020820190508181036000830152611efc81611c55565b9050919050565b60006020820190508181036000830152611f1c81611c78565b9050919050565b60006020820190508181036000830152611f3c81611c9b565b9050919050565b60006020820190508181036000830152611f5c81611cbe565b9050919050565b60006020820190508181036000830152611f7c81611ce1565b9050919050565b60006020820190508181036000830152611f9c81611d27565b9050919050565b60006020820190508181036000830152611fbc81611d6d565b9050919050565b60006020820190508181036000830152611fdc81611d90565b9050919050565b6000602082019050611ff86000830184611db3565b92915050565b60006020820190506120136000830184611dc2565b92915050565b600081519050919050565b600082825260208201905092915050565b600081905092915050565b600061204b82612198565b915061205683612198565b9250827fffffffffffffffffffffffffffffffffffffffffffffffffffffffffffffffff0382111561208b5761208a61223e565b5b828201905092915050565b60006120a182612198565b91506120ac83612198565b9250817fffffffffffffffffffffffffffffffffffffffffffffffffffffffffffffffff04831182151516156120e5576120e461223e565b5b828202905092915050565b60006120fb82612198565b915061210683612198565b9250828210156121195761211861223e565b5b828203905092915050565b600061212f82612178565b9050919050565b60008115159050919050565b6000819050919050565b60007fffffffff0000000000000000000000000000000000000000000000000000000082169050919050565b600073ffffffffffffffffffffffffffffffffffffffff82169050919050565b6000819050919050565b600060ff82169050919050565b60005b838110156121cd5780820151818401526020810190506121b2565b838111156121dc576000848401525b50505050565b60006121ed82612198565b915060008214156122015761220061223e565b5b600182039050919050565b6000600282049050600182168061222457607f821691505b602082108114156122385761223761226d565b5b50919050565b7f4e487b7100000000000000000000000000000000000000000000000000000000600052601160045260246000fd5b7f4e487b7100000000000000000000000000000000000000000000000000000000600052602260045260246000fd5b6000601f19601f8301169050919050565b7f537472696e67733a20686578206c656e67746820696e73756666696369656e74600082015250565b7f45524332303a207472616e7366657220746f20746865207a65726f206164647260008201527f6573730000000000000000000000000000000000000000000000000000000000602082015250565b7f45524332303a206275726e20616d6f756e7420657863656564732062616c616e60008201527f6365000000000000000000000000000000000000000000000000000000000000602082015250565b7f45524332303a20617070726f766520746f20746865207a65726f20616464726560008201527f7373000000000000000000000000000000000000000000000000000000000000602082015250565b7f45524332303a207472616e7366657220616d6f756e742065786365656473206260008201527f616c616e63650000000000000000000000000000000000000000000000000000602082015250565b7f45524332303a207472616e7366657220616d6f756e742065786365656473206160008201527f6c6c6f77616e6365000000000000000000000000000000000000000000000000602082015250565b7f45524332303a206275726e2066726f6d20746865207a65726f2061646472657360008201527f7300000000000000000000000000000000000000000000000000000000000000602082015250565b7f45524332303a207472616e736665722066726f6d20746865207a65726f20616460008201527f6472657373000000000000000000000000000000000000000000000000000000602082015250565b7f45524332303a20617070726f76652066726f6d20746865207a65726f2061646460008201527f7265737300000000000000000000000000000000000000000000000000000000602082015250565b7f416363657373436f6e74726f6c3a206163636f756e7420000000000000000000600082015250565b7f45524332303a2064656372656173656420616c6c6f77616e63652062656c6f7760008201527f207a65726f000000000000000000000000000000000000000000000000000000602082015250565b7f206973206d697373696e6720726f6c6520000000000000000000000000000000600082015250565b7f416363657373436f6e74726f6c3a2063616e206f6e6c792072656e6f756e636560008201527f20726f6c657320666f722073656c660000000000000000000000000000000000602082015250565b7f45524332303a206d696e7420746f20746865207a65726f206164647265737300600082015250565b61267081612124565b811461267b57600080fd5b50565b61268781612142565b811461269257600080fd5b50565b61269e8161214c565b81146126a957600080fd5b50565b6126b581612198565b81146126c057600080fd5b5056fea26469706673582212202292fe379020b751ef20ecbdab4bd5e729942bd40ce4416323cae9be6faffe3a64736f6c63430008010033",
  "immutableReferences": {},
  "source": "// SPDX-License-Identifier: MIT\n// contracts/co2accounting.sol\npragma solidity ^0.8.0;\n\nimport \"@openzeppelin/contracts/access/AccessControl.sol\";\nimport \"@openzeppelin/contracts/token/ERC20/ERC20.sol\";\n\n/**\n * Implements CO2 Event handling (Emission event => Compensation) with the pattern of a burnable token.\n */\n\ncontract CO2Accounting is AccessControl, ERC20 {\n    bytes32 public constant EMITTER_ROLE = keccak256(\"EMITTER_ROLE\");\n    bytes32 public constant COMPENSATOR_ROLE = keccak256(\"COMPENSATOR_ROLE\");\n\n\n    constructor() ERC20(\"CO2G\", \"CO2G\") {\n      _setupRole(DEFAULT_ADMIN_ROLE, msg.sender);\n      _setupRole(EMITTER_ROLE,msg.sender);\n      _setupRole(COMPENSATOR_ROLE,msg.sender);\n    }\n\n    function emission(address to, uint256 amount) public onlyRole(EMITTER_ROLE) {\n        _mint(to, amount);\n    }\n\n    function compensation(address from, uint256 amount) public onlyRole(COMPENSATOR_ROLE) {\n        _burn(from, amount);\n    }\n\n    function transfer(address recipient, uint256 amount) public onlyRole(DEFAULT_ADMIN_ROLE) virtual override returns (bool) {\n      _transfer(_msgSender(), recipient, amount);\n      return true;\n    }\n\n    function decimals() public view override returns (uint8) {\n        return 0;\n    }\n}\n",
  "sourcePath": "/home/zoernert/Development/co2event/contracts/CO2Accounting.sol",
  "compiler": {
    "name": "solc",
    "version": "0.8.1+commit.df193b15.Emscripten.clang"
  },
  "schemaVersion": "3.4.3",
  "updatedAt": "2021-10-09T02:25:02.627Z",
  "networkType": "ethereum",
  "devdoc": {
    "kind": "dev",
    "methods": {
      "allowance(address,address)": {
        "details": "See {IERC20-allowance}."
      },
      "approve(address,uint256)": {
        "details": "See {IERC20-approve}. Requirements: - `spender` cannot be the zero address."
      },
      "balanceOf(address)": {
        "details": "See {IERC20-balanceOf}."
      },
      "decimals()": {
        "details": "Returns the number of decimals used to get its user representation. For example, if `decimals` equals `2`, a balance of `505` tokens should be displayed to a user as `5.05` (`505 / 10 ** 2`). Tokens usually opt for a value of 18, imitating the relationship between Ether and Wei. This is the value {ERC20} uses, unless this function is overridden; NOTE: This information is only used for _display_ purposes: it in no way affects any of the arithmetic of the contract, including {IERC20-balanceOf} and {IERC20-transfer}."
      },
      "decreaseAllowance(address,uint256)": {
        "details": "Atomically decreases the allowance granted to `spender` by the caller. This is an alternative to {approve} that can be used as a mitigation for problems described in {IERC20-approve}. Emits an {Approval} event indicating the updated allowance. Requirements: - `spender` cannot be the zero address. - `spender` must have allowance for the caller of at least `subtractedValue`."
      },
      "getRoleAdmin(bytes32)": {
        "details": "Returns the admin role that controls `role`. See {grantRole} and {revokeRole}. To change a role's admin, use {_setRoleAdmin}."
      },
      "grantRole(bytes32,address)": {
        "details": "Grants `role` to `account`. If `account` had not been already granted `role`, emits a {RoleGranted} event. Requirements: - the caller must have ``role``'s admin role."
      },
      "hasRole(bytes32,address)": {
        "details": "Returns `true` if `account` has been granted `role`."
      },
      "increaseAllowance(address,uint256)": {
        "details": "Atomically increases the allowance granted to `spender` by the caller. This is an alternative to {approve} that can be used as a mitigation for problems described in {IERC20-approve}. Emits an {Approval} event indicating the updated allowance. Requirements: - `spender` cannot be the zero address."
      },
      "name()": {
        "details": "Returns the name of the token."
      },
      "renounceRole(bytes32,address)": {
        "details": "Revokes `role` from the calling account. Roles are often managed via {grantRole} and {revokeRole}: this function's purpose is to provide a mechanism for accounts to lose their privileges if they are compromised (such as when a trusted device is misplaced). If the calling account had been granted `role`, emits a {RoleRevoked} event. Requirements: - the caller must be `account`."
      },
      "revokeRole(bytes32,address)": {
        "details": "Revokes `role` from `account`. If `account` had been granted `role`, emits a {RoleRevoked} event. Requirements: - the caller must have ``role``'s admin role."
      },
      "supportsInterface(bytes4)": {
        "details": "See {IERC165-supportsInterface}."
      },
      "symbol()": {
        "details": "Returns the symbol of the token, usually a shorter version of the name."
      },
      "totalSupply()": {
        "details": "See {IERC20-totalSupply}."
      },
      "transfer(address,uint256)": {
        "details": "See {IERC20-transfer}. Requirements: - `recipient` cannot be the zero address. - the caller must have a balance of at least `amount`."
      },
      "transferFrom(address,address,uint256)": {
        "details": "See {IERC20-transferFrom}. Emits an {Approval} event indicating the updated allowance. This is not required by the EIP. See the note at the beginning of {ERC20}. Requirements: - `sender` and `recipient` cannot be the zero address. - `sender` must have a balance of at least `amount`. - the caller must have allowance for ``sender``'s tokens of at least `amount`."
      }
    },
    "version": 1
  },
  "userdoc": {
    "kind": "user",
    "methods": {},
    "notice": "Implements CO2 Event handling (Emission event => Compensation) with the pattern of a burnable token.",
    "version": 1
  }
}