{
  "contractName": "CO2Accounting",
  "abi": [
    {
      "inputs": [],
      "stateMutability": "nonpayable",
      "type": "constructor"
    },
    {
      "anonymous": false,
      "inputs": [
        {
          "indexed": true,
          "internalType": "address",
          "name": "owner",
          "type": "address"
        },
        {
          "indexed": true,
          "internalType": "address",
          "name": "spender",
          "type": "address"
        },
        {
          "indexed": false,
          "internalType": "uint256",
          "name": "value",
          "type": "uint256"
        }
      ],
      "name": "Approval",
      "type": "event"
    },
    {
      "anonymous": false,
      "inputs": [
        {
          "indexed": true,
          "internalType": "address",
          "name": "from",
          "type": "address"
        },
        {
          "indexed": false,
          "internalType": "uint256",
          "name": "amount",
          "type": "uint256"
        }
      ],
      "name": "Compensation",
      "type": "event"
    },
    {
      "anonymous": false,
      "inputs": [
        {
          "indexed": true,
          "internalType": "address",
          "name": "recipient",
          "type": "address"
        },
        {
          "indexed": false,
          "internalType": "uint256",
          "name": "amount",
          "type": "uint256"
        }
      ],
      "name": "Congestion",
      "type": "event"
    },
    {
      "anonymous": false,
      "inputs": [
        {
          "indexed": true,
          "internalType": "address",
          "name": "to",
          "type": "address"
        },
        {
          "indexed": false,
          "internalType": "uint256",
          "name": "amount",
          "type": "uint256"
        },
        {
          "indexed": false,
          "internalType": "address",
          "name": "upstreamda",
          "type": "address"
        },
        {
          "indexed": false,
          "internalType": "uint256",
          "name": "presafing",
          "type": "uint256"
        }
      ],
      "name": "Emission",
      "type": "event"
    },
    {
      "anonymous": false,
      "inputs": [
        {
          "indexed": true,
          "internalType": "bytes32",
          "name": "role",
          "type": "bytes32"
        },
        {
          "indexed": true,
          "internalType": "bytes32",
          "name": "previousAdminRole",
          "type": "bytes32"
        },
        {
          "indexed": true,
          "internalType": "bytes32",
          "name": "newAdminRole",
          "type": "bytes32"
        }
      ],
      "name": "RoleAdminChanged",
      "type": "event"
    },
    {
      "anonymous": false,
      "inputs": [
        {
          "indexed": true,
          "internalType": "bytes32",
          "name": "role",
          "type": "bytes32"
        },
        {
          "indexed": true,
          "internalType": "address",
          "name": "account",
          "type": "address"
        },
        {
          "indexed": true,
          "internalType": "address",
          "name": "sender",
          "type": "address"
        }
      ],
      "name": "RoleGranted",
      "type": "event"
    },
    {
      "anonymous": false,
      "inputs": [
        {
          "indexed": true,
          "internalType": "bytes32",
          "name": "role",
          "type": "bytes32"
        },
        {
          "indexed": true,
          "internalType": "address",
          "name": "account",
          "type": "address"
        },
        {
          "indexed": true,
          "internalType": "address",
          "name": "sender",
          "type": "address"
        }
      ],
      "name": "RoleRevoked",
      "type": "event"
    },
    {
      "anonymous": false,
      "inputs": [
        {
          "indexed": true,
          "internalType": "address",
          "name": "from",
          "type": "address"
        },
        {
          "indexed": true,
          "internalType": "address",
          "name": "to",
          "type": "address"
        },
        {
          "indexed": false,
          "internalType": "uint256",
          "name": "value",
          "type": "uint256"
        }
      ],
      "name": "Transfer",
      "type": "event"
    },
    {
      "inputs": [],
      "name": "COMPENSATOR_ROLE",
      "outputs": [
        {
          "internalType": "bytes32",
          "name": "",
          "type": "bytes32"
        }
      ],
      "stateMutability": "view",
      "type": "function",
      "constant": true
    },
    {
      "inputs": [],
      "name": "DEFAULT_ADMIN_ROLE",
      "outputs": [
        {
          "internalType": "bytes32",
          "name": "",
          "type": "bytes32"
        }
      ],
      "stateMutability": "view",
      "type": "function",
      "constant": true
    },
    {
      "inputs": [],
      "name": "EMITTER_ROLE",
      "outputs": [
        {
          "internalType": "bytes32",
          "name": "",
          "type": "bytes32"
        }
      ],
      "stateMutability": "view",
      "type": "function",
      "constant": true
    },
    {
      "inputs": [
        {
          "internalType": "address",
          "name": "owner",
          "type": "address"
        },
        {
          "internalType": "address",
          "name": "spender",
          "type": "address"
        }
      ],
      "name": "allowance",
      "outputs": [
        {
          "internalType": "uint256",
          "name": "",
          "type": "uint256"
        }
      ],
      "stateMutability": "view",
      "type": "function",
      "constant": true
    },
    {
      "inputs": [
        {
          "internalType": "address",
          "name": "spender",
          "type": "address"
        },
        {
          "internalType": "uint256",
          "name": "amount",
          "type": "uint256"
        }
      ],
      "name": "approve",
      "outputs": [
        {
          "internalType": "bool",
          "name": "",
          "type": "bool"
        }
      ],
      "stateMutability": "nonpayable",
      "type": "function"
    },
    {
      "inputs": [
        {
          "internalType": "address",
          "name": "account",
          "type": "address"
        }
      ],
      "name": "balanceOf",
      "outputs": [
        {
          "internalType": "uint256",
          "name": "",
          "type": "uint256"
        }
      ],
      "stateMutability": "view",
      "type": "function",
      "constant": true
    },
    {
      "inputs": [
        {
          "internalType": "address",
          "name": "spender",
          "type": "address"
        },
        {
          "internalType": "uint256",
          "name": "subtractedValue",
          "type": "uint256"
        }
      ],
      "name": "decreaseAllowance",
      "outputs": [
        {
          "internalType": "bool",
          "name": "",
          "type": "bool"
        }
      ],
      "stateMutability": "nonpayable",
      "type": "function"
    },
    {
      "inputs": [
        {
          "internalType": "uint256",
          "name": "",
          "type": "uint256"
        }
      ],
      "name": "disaggregations",
      "outputs": [
        {
          "internalType": "address",
          "name": "",
          "type": "address"
        }
      ],
      "stateMutability": "view",
      "type": "function",
      "constant": true
    },
    {
      "inputs": [
        {
          "internalType": "bytes32",
          "name": "role",
          "type": "bytes32"
        }
      ],
      "name": "getRoleAdmin",
      "outputs": [
        {
          "internalType": "bytes32",
          "name": "",
          "type": "bytes32"
        }
      ],
      "stateMutability": "view",
      "type": "function",
      "constant": true
    },
    {
      "inputs": [
        {
          "internalType": "bytes32",
          "name": "role",
          "type": "bytes32"
        },
        {
          "internalType": "address",
          "name": "account",
          "type": "address"
        }
      ],
      "name": "grantRole",
      "outputs": [],
      "stateMutability": "nonpayable",
      "type": "function"
    },
    {
      "inputs": [
        {
          "internalType": "bytes32",
          "name": "role",
          "type": "bytes32"
        },
        {
          "internalType": "address",
          "name": "account",
          "type": "address"
        }
      ],
      "name": "hasRole",
      "outputs": [
        {
          "internalType": "bool",
          "name": "",
          "type": "bool"
        }
      ],
      "stateMutability": "view",
      "type": "function",
      "constant": true
    },
    {
      "inputs": [
        {
          "internalType": "address",
          "name": "spender",
          "type": "address"
        },
        {
          "internalType": "uint256",
          "name": "addedValue",
          "type": "uint256"
        }
      ],
      "name": "increaseAllowance",
      "outputs": [
        {
          "internalType": "bool",
          "name": "",
          "type": "bool"
        }
      ],
      "stateMutability": "nonpayable",
      "type": "function"
    },
    {
      "inputs": [],
      "name": "name",
      "outputs": [
        {
          "internalType": "string",
          "name": "",
          "type": "string"
        }
      ],
      "stateMutability": "view",
      "type": "function",
      "constant": true
    },
    {
      "inputs": [],
      "name": "presafings",
      "outputs": [
        {
          "internalType": "contract CO2Presafing",
          "name": "",
          "type": "address"
        }
      ],
      "stateMutability": "view",
      "type": "function",
      "constant": true
    },
    {
      "inputs": [
        {
          "internalType": "bytes32",
          "name": "role",
          "type": "bytes32"
        },
        {
          "internalType": "address",
          "name": "account",
          "type": "address"
        }
      ],
      "name": "renounceRole",
      "outputs": [],
      "stateMutability": "nonpayable",
      "type": "function"
    },
    {
      "inputs": [
        {
          "internalType": "bytes32",
          "name": "role",
          "type": "bytes32"
        },
        {
          "internalType": "address",
          "name": "account",
          "type": "address"
        }
      ],
      "name": "revokeRole",
      "outputs": [],
      "stateMutability": "nonpayable",
      "type": "function"
    },
    {
      "inputs": [
        {
          "internalType": "bytes4",
          "name": "interfaceId",
          "type": "bytes4"
        }
      ],
      "name": "supportsInterface",
      "outputs": [
        {
          "internalType": "bool",
          "name": "",
          "type": "bool"
        }
      ],
      "stateMutability": "view",
      "type": "function",
      "constant": true
    },
    {
      "inputs": [],
      "name": "symbol",
      "outputs": [
        {
          "internalType": "string",
          "name": "",
          "type": "string"
        }
      ],
      "stateMutability": "view",
      "type": "function",
      "constant": true
    },
    {
      "inputs": [],
      "name": "totalCompensation",
      "outputs": [
        {
          "internalType": "uint256",
          "name": "",
          "type": "uint256"
        }
      ],
      "stateMutability": "view",
      "type": "function",
      "constant": true
    },
    {
      "inputs": [],
      "name": "totalEmission",
      "outputs": [
        {
          "internalType": "uint256",
          "name": "",
          "type": "uint256"
        }
      ],
      "stateMutability": "view",
      "type": "function",
      "constant": true
    },
    {
      "inputs": [],
      "name": "totalSupply",
      "outputs": [
        {
          "internalType": "uint256",
          "name": "",
          "type": "uint256"
        }
      ],
      "stateMutability": "view",
      "type": "function",
      "constant": true
    },
    {
      "inputs": [
        {
          "internalType": "address",
          "name": "sender",
          "type": "address"
        },
        {
          "internalType": "address",
          "name": "recipient",
          "type": "address"
        },
        {
          "internalType": "uint256",
          "name": "amount",
          "type": "uint256"
        }
      ],
      "name": "transferFrom",
      "outputs": [
        {
          "internalType": "bool",
          "name": "",
          "type": "bool"
        }
      ],
      "stateMutability": "nonpayable",
      "type": "function"
    },
    {
      "inputs": [
        {
          "internalType": "address",
          "name": "to",
          "type": "address"
        },
        {
          "internalType": "uint256",
          "name": "amount",
          "type": "uint256"
        },
        {
          "internalType": "address",
          "name": "upstreamda",
          "type": "address"
        },
        {
          "internalType": "uint256",
          "name": "presafing",
          "type": "uint256"
        }
      ],
      "name": "emission",
      "outputs": [],
      "stateMutability": "nonpayable",
      "type": "function"
    },
    {
      "inputs": [
        {
          "internalType": "address",
          "name": "from",
          "type": "address"
        },
        {
          "internalType": "uint256",
          "name": "amount",
          "type": "uint256"
        }
      ],
      "name": "compensation",
      "outputs": [],
      "stateMutability": "nonpayable",
      "type": "function"
    },
    {
      "inputs": [
        {
          "internalType": "address",
          "name": "recipient",
          "type": "address"
        },
        {
          "internalType": "uint256",
          "name": "amount",
          "type": "uint256"
        }
      ],
      "name": "transfer",
      "outputs": [
        {
          "internalType": "bool",
          "name": "",
          "type": "bool"
        }
      ],
      "stateMutability": "nonpayable",
      "type": "function"
    },
    {
      "inputs": [],
      "name": "decimals",
      "outputs": [
        {
          "internalType": "uint8",
          "name": "",
          "type": "uint8"
        }
      ],
      "stateMutability": "view",
      "type": "function",
      "constant": true
    }
  ],
  "bytecode": "0x6080604052600060065560006007556040516200001c9062000320565b604051809103906000f08015801562000039573d6000803e3d6000fd5b50600860006101000a81548173ffffffffffffffffffffffffffffffffffffffff021916908373ffffffffffffffffffffffffffffffffffffffff1602179055503480156200008757600080fd5b506040518060400160405280600481526020017f434f3247000000000000000000000000000000000000000000000000000000008152506040518060400160405280600481526020017f434f32470000000000000000000000000000000000000000000000000000000081525081600490805190602001906200010c9291906200032e565b508060059080519060200190620001259291906200032e565b5050506200013d6000801b33620001a760201b60201c565b6200016f7f4b0ad04e4cfd06668c08542d3af105a3fa4b1a2813040bbb694bfecf2e5f524033620001a760201b60201c565b620001a17f274a4f526f200e5846866c5200344b6e9c66dc1252a5c9c75104712fa36216c333620001a760201b60201c565b62000443565b620001b98282620001bd60201b60201c565b5050565b620001cf8282620002ae60201b60201c565b620002aa57600160008084815260200190815260200160002060000160008373ffffffffffffffffffffffffffffffffffffffff1673ffffffffffffffffffffffffffffffffffffffff16815260200190815260200160002060006101000a81548160ff0219169083151502179055506200024f6200031860201b60201c565b73ffffffffffffffffffffffffffffffffffffffff168173ffffffffffffffffffffffffffffffffffffffff16837f2f8788117e7eff1d82e926ec794901d17c78024a50270940304540a733656f0d60405160405180910390a45b5050565b600080600084815260200190815260200160002060000160008373ffffffffffffffffffffffffffffffffffffffff1673ffffffffffffffffffffffffffffffffffffffff16815260200190815260200160002060009054906101000a900460ff16905092915050565b600033905090565b6128cf806200301b83390190565b8280546200033c90620003de565b90600052602060002090601f016020900481019282620003605760008555620003ac565b82601f106200037b57805160ff1916838001178555620003ac565b82800160010185558215620003ac579182015b82811115620003ab5782518255916020019190600101906200038e565b5b509050620003bb9190620003bf565b5090565b5b80821115620003da576000816000905550600101620003c0565b5090565b60006002820490506001821680620003f757607f821691505b602082108114156200040e576200040d62000414565b5b50919050565b7f4e487b7100000000000000000000000000000000000000000000000000000000600052602260045260246000fd5b612bc880620004536000396000f3fe608060405234801561001057600080fd5b506004361061018e5760003560e01c806370a08231116100de578063a9059cbb11610097578063d547741f11610071578063d547741f146104c1578063db6aa479146104dd578063dd62ed3e1461050d578063f3e9bc281461053d5761018e565b8063a9059cbb14610457578063b595045f14610487578063bce396c1146104a55761018e565b806370a082311461036d578063812f40c81461039d57806391d14854146103bb57806395d89b41146103eb578063a217fddf14610409578063a457c2d7146104275761018e565b806323b872dd1161014b578063313ce56711610125578063313ce567146102e557806336568abe14610303578063395093511461031f5780634d4123571461034f5761018e565b806323b872dd14610269578063248a9ca3146102995780632f2ff15d146102c95761018e565b806301ffc9a71461019357806306fdde03146101c3578063095ea7b3146101e1578063136f235b1461021157806318004b391461022d57806318160ddd1461024b575b600080fd5b6101ad60048036038101906101a89190611ed8565b61055b565b6040516101ba9190612264565b60405180910390f35b6101cb6105d5565b6040516101d891906122b5565b60405180910390f35b6101fb60048036038101906101f69190611dd4565b610667565b6040516102089190612264565b60405180910390f35b61022b60048036038101906102269190611dd4565b610685565b005b61023561072d565b604051610242919061227f565b60405180910390f35b610253610751565b6040516102609190612457565b60405180910390f35b610283600480360381019061027e9190611d85565b61075b565b6040516102909190612264565b60405180910390f35b6102b360048036038101906102ae9190611e73565b610853565b6040516102c0919061227f565b60405180910390f35b6102e360048036038101906102de9190611e9c565b610872565b005b6102ed61089b565b6040516102fa91906124a9565b60405180910390f35b61031d60048036038101906103189190611e9c565b6108a0565b005b61033960048036038101906103349190611dd4565b610923565b6040516103469190612264565b60405180910390f35b6103576109cf565b6040516103649190612457565b60405180910390f35b61038760048036038101906103829190611d20565b6109d5565b6040516103949190612457565b60405180910390f35b6103a5610a1e565b6040516103b2919061227f565b60405180910390f35b6103d560048036038101906103d09190611e9c565b610a42565b6040516103e29190612264565b60405180910390f35b6103f3610aac565b60405161040091906122b5565b60405180910390f35b610411610b3e565b60405161041e919061227f565b60405180910390f35b610441600480360381019061043c9190611dd4565b610b45565b60405161044e9190612264565b60405180910390f35b610471600480360381019061046c9190611dd4565b610c30565b60405161047e9190612264565b60405180910390f35b61048f610cb2565b60405161049c919061229a565b60405180910390f35b6104bf60048036038101906104ba9190611e10565b610cd8565b005b6104db60048036038101906104d69190611e9c565b610e7a565b005b6104f760048036038101906104f29190611f01565b610ea3565b6040516105049190612212565b60405180910390f35b61052760048036038101906105229190611d49565b610ee2565b6040516105349190612457565b60405180910390f35b610545610f69565b6040516105529190612457565b60405180910390f35b60007f7965db0b000000000000000000000000000000000000000000000000000000007bffffffffffffffffffffffffffffffffffffffffffffffffffffffff1916827bffffffffffffffffffffffffffffffffffffffffffffffffffffffff191614806105ce57506105cd82610f6f565b5b9050919050565b6060600480546105e4906126db565b80601f0160208091040260200160405190810160405280929190818152602001828054610610906126db565b801561065d5780601f106106325761010080835404028352916020019161065d565b820191906000526020600020905b81548152906001019060200180831161064057829003601f168201915b5050505050905090565b600061067b610674610fd9565b8484610fe1565b6001905092915050565b7f274a4f526f200e5846866c5200344b6e9c66dc1252a5c9c75104712fa36216c36106b7816106b2610fd9565b6111ac565b6106c18383611249565b81600760008282546106d391906124eb565b925050819055508273ffffffffffffffffffffffffffffffffffffffff167fc9ce01f2e2c11ad3cf21adec4ef778e5fe81e0acfead5b27cc261dcc13293e6e836040516107209190612457565b60405180910390a2505050565b7f4b0ad04e4cfd06668c08542d3af105a3fa4b1a2813040bbb694bfecf2e5f524081565b6000600354905090565b6000610768848484611422565b6000600260008673ffffffffffffffffffffffffffffffffffffffff1673ffffffffffffffffffffffffffffffffffffffff16815260200190815260200160002060006107b3610fd9565b73ffffffffffffffffffffffffffffffffffffffff1673ffffffffffffffffffffffffffffffffffffffff16815260200190815260200160002054905082811015610833576040517f08c379a000000000000000000000000000000000000000000000000000000000815260040161082a90612377565b60405180910390fd5b6108478561083f610fd9565b858403610fe1565b60019150509392505050565b6000806000838152602001908152602001600020600101549050919050565b61087b82610853565b61088c81610887610fd9565b6111ac565b61089683836116a6565b505050565b600090565b6108a8610fd9565b73ffffffffffffffffffffffffffffffffffffffff168173ffffffffffffffffffffffffffffffffffffffff1614610915576040517f08c379a000000000000000000000000000000000000000000000000000000000815260040161090c90612417565b60405180910390fd5b61091f8282611786565b5050565b60006109c5610930610fd9565b84846002600061093e610fd9565b73ffffffffffffffffffffffffffffffffffffffff1673ffffffffffffffffffffffffffffffffffffffff16815260200190815260200160002060008873ffffffffffffffffffffffffffffffffffffffff1673ffffffffffffffffffffffffffffffffffffffff168152602001908152602001600020546109c091906124eb565b610fe1565b6001905092915050565b60065481565b6000600160008373ffffffffffffffffffffffffffffffffffffffff1673ffffffffffffffffffffffffffffffffffffffff168152602001908152602001600020549050919050565b7f274a4f526f200e5846866c5200344b6e9c66dc1252a5c9c75104712fa36216c381565b600080600084815260200190815260200160002060000160008373ffffffffffffffffffffffffffffffffffffffff1673ffffffffffffffffffffffffffffffffffffffff16815260200190815260200160002060009054906101000a900460ff16905092915050565b606060058054610abb906126db565b80601f0160208091040260200160405190810160405280929190818152602001828054610ae7906126db565b8015610b345780601f10610b0957610100808354040283529160200191610b34565b820191906000526020600020905b815481529060010190602001808311610b1757829003601f168201915b5050505050905090565b6000801b81565b60008060026000610b54610fd9565b73ffffffffffffffffffffffffffffffffffffffff1673ffffffffffffffffffffffffffffffffffffffff16815260200190815260200160002060008573ffffffffffffffffffffffffffffffffffffffff1673ffffffffffffffffffffffffffffffffffffffff16815260200190815260200160002054905082811015610c11576040517f08c379a0000000000000000000000000000000000000000000000000000000008152600401610c08906123f7565b60405180910390fd5b610c25610c1c610fd9565b85858403610fe1565b600191505092915050565b60008060001b610c4781610c42610fd9565b6111ac565b610c59610c52610fd9565b8585611422565b8373ffffffffffffffffffffffffffffffffffffffff167f78ea1dab271ee7a26295bb72cc94712a0c5fc50a8a5032434e2570c99b4dacff84604051610c9f9190612457565b60405180910390a2600191505092915050565b600860009054906101000a900473ffffffffffffffffffffffffffffffffffffffff1681565b7f4b0ad04e4cfd06668c08542d3af105a3fa4b1a2813040bbb694bfecf2e5f5240610d0a81610d05610fd9565b6111ac565b610d148585611867565b8360066000828254610d2691906124eb565b925050819055506009839080600181540180825580915050600190039060005260206000200160009091909190916101000a81548173ffffffffffffffffffffffffffffffffffffffff021916908373ffffffffffffffffffffffffffffffffffffffff160217905550600860009054906101000a900473ffffffffffffffffffffffffffffffffffffffff1673ffffffffffffffffffffffffffffffffffffffff16630d4d15138684866040518463ffffffff1660e01b8152600401610def9392919061222d565b600060405180830381600087803b158015610e0957600080fd5b505af1158015610e1d573d6000803e3d6000fd5b505050508473ffffffffffffffffffffffffffffffffffffffff167f3c2639d06baffb478170efb942fec9573aa5a848a574d8db8625c357c798735f858585604051610e6b93929190612472565b60405180910390a25050505050565b610e8382610853565b610e9481610e8f610fd9565b6111ac565b610e9e8383611786565b505050565b60098181548110610eb357600080fd5b906000526020600020016000915054906101000a900473ffffffffffffffffffffffffffffffffffffffff1681565b6000600260008473ffffffffffffffffffffffffffffffffffffffff1673ffffffffffffffffffffffffffffffffffffffff16815260200190815260200160002060008373ffffffffffffffffffffffffffffffffffffffff1673ffffffffffffffffffffffffffffffffffffffff16815260200190815260200160002054905092915050565b60075481565b60007f01ffc9a7000000000000000000000000000000000000000000000000000000007bffffffffffffffffffffffffffffffffffffffffffffffffffffffff1916827bffffffffffffffffffffffffffffffffffffffffffffffffffffffff1916149050919050565b600033905090565b600073ffffffffffffffffffffffffffffffffffffffff168373ffffffffffffffffffffffffffffffffffffffff161415611051576040517f08c379a0000000000000000000000000000000000000000000000000000000008152600401611048906123d7565b60405180910390fd5b600073ffffffffffffffffffffffffffffffffffffffff168273ffffffffffffffffffffffffffffffffffffffff1614156110c1576040517f08c379a00000000000000000000000000000000000000000000000000000000081526004016110b890612337565b60405180910390fd5b80600260008573ffffffffffffffffffffffffffffffffffffffff1673ffffffffffffffffffffffffffffffffffffffff16815260200190815260200160002060008473ffffffffffffffffffffffffffffffffffffffff1673ffffffffffffffffffffffffffffffffffffffff168152602001908152602001600020819055508173ffffffffffffffffffffffffffffffffffffffff168373ffffffffffffffffffffffffffffffffffffffff167f8c5be1e5ebec7d5bd14f71427d1e84f3dd0314c0f7b2291e5b200ac8c7c3b9258360405161119f9190612457565b60405180910390a3505050565b6111b68282610a42565b611245576111db8173ffffffffffffffffffffffffffffffffffffffff1660146119c8565b6111e98360001c60206119c8565b6040516020016111fa9291906121d8565b6040516020818303038152906040526040517f08c379a000000000000000000000000000000000000000000000000000000000815260040161123c91906122b5565b60405180910390fd5b5050565b600073ffffffffffffffffffffffffffffffffffffffff168273ffffffffffffffffffffffffffffffffffffffff1614156112b9576040517f08c379a00000000000000000000000000000000000000000000000000000000081526004016112b090612397565b60405180910390fd5b6112c582600083611cc2565b6000600160008473ffffffffffffffffffffffffffffffffffffffff1673ffffffffffffffffffffffffffffffffffffffff1681526020019081526020016000205490508181101561134c576040517f08c379a000000000000000000000000000000000000000000000000000000000815260040161134390612317565b60405180910390fd5b818103600160008573ffffffffffffffffffffffffffffffffffffffff1673ffffffffffffffffffffffffffffffffffffffff1681526020019081526020016000208190555081600360008282546113a4919061259b565b92505081905550600073ffffffffffffffffffffffffffffffffffffffff168373ffffffffffffffffffffffffffffffffffffffff167fddf252ad1be2c89b69c2b068fc378daa952ba7f163c4a11628f55a4df523b3ef846040516114099190612457565b60405180910390a361141d83600084611cc7565b505050565b600073ffffffffffffffffffffffffffffffffffffffff168373ffffffffffffffffffffffffffffffffffffffff161415611492576040517f08c379a0000000000000000000000000000000000000000000000000000000008152600401611489906123b7565b60405180910390fd5b600073ffffffffffffffffffffffffffffffffffffffff168273ffffffffffffffffffffffffffffffffffffffff161415611502576040517f08c379a00000000000000000000000000000000000000000000000000000000081526004016114f9906122f7565b60405180910390fd5b61150d838383611cc2565b6000600160008573ffffffffffffffffffffffffffffffffffffffff1673ffffffffffffffffffffffffffffffffffffffff16815260200190815260200160002054905081811015611594576040517f08c379a000000000000000000000000000000000000000000000000000000000815260040161158b90612357565b60405180910390fd5b818103600160008673ffffffffffffffffffffffffffffffffffffffff1673ffffffffffffffffffffffffffffffffffffffff1681526020019081526020016000208190555081600160008573ffffffffffffffffffffffffffffffffffffffff1673ffffffffffffffffffffffffffffffffffffffff168152602001908152602001600020600082825461162991906124eb565b925050819055508273ffffffffffffffffffffffffffffffffffffffff168473ffffffffffffffffffffffffffffffffffffffff167fddf252ad1be2c89b69c2b068fc378daa952ba7f163c4a11628f55a4df523b3ef8460405161168d9190612457565b60405180910390a36116a0848484611cc7565b50505050565b6116b08282610a42565b61178257600160008084815260200190815260200160002060000160008373ffffffffffffffffffffffffffffffffffffffff1673ffffffffffffffffffffffffffffffffffffffff16815260200190815260200160002060006101000a81548160ff021916908315150217905550611727610fd9565b73ffffffffffffffffffffffffffffffffffffffff168173ffffffffffffffffffffffffffffffffffffffff16837f2f8788117e7eff1d82e926ec794901d17c78024a50270940304540a733656f0d60405160405180910390a45b5050565b6117908282610a42565b1561186357600080600084815260200190815260200160002060000160008373ffffffffffffffffffffffffffffffffffffffff1673ffffffffffffffffffffffffffffffffffffffff16815260200190815260200160002060006101000a81548160ff021916908315150217905550611808610fd9565b73ffffffffffffffffffffffffffffffffffffffff168173ffffffffffffffffffffffffffffffffffffffff16837ff6391f5c32d9c69d2a47ea670b442974b53935d1edc7fd64eb21e047a839171b60405160405180910390a45b5050565b600073ffffffffffffffffffffffffffffffffffffffff168273ffffffffffffffffffffffffffffffffffffffff1614156118d7576040517f08c379a00000000000000000000000000000000000000000000000000000000081526004016118ce90612437565b60405180910390fd5b6118e360008383611cc2565b80600360008282546118f591906124eb565b9250508190555080600160008473ffffffffffffffffffffffffffffffffffffffff1673ffffffffffffffffffffffffffffffffffffffff168152602001908152602001600020600082825461194b91906124eb565b925050819055508173ffffffffffffffffffffffffffffffffffffffff16600073ffffffffffffffffffffffffffffffffffffffff167fddf252ad1be2c89b69c2b068fc378daa952ba7f163c4a11628f55a4df523b3ef836040516119b09190612457565b60405180910390a36119c460008383611cc7565b5050565b6060600060028360026119db9190612541565b6119e591906124eb565b67ffffffffffffffff811115611a24577f4e487b7100000000000000000000000000000000000000000000000000000000600052604160045260246000fd5b6040519080825280601f01601f191660200182016040528015611a565781602001600182028036833780820191505090505b5090507f300000000000000000000000000000000000000000000000000000000000000081600081518110611ab4577f4e487b7100000000000000000000000000000000000000000000000000000000600052603260045260246000fd5b60200101907effffffffffffffffffffffffffffffffffffffffffffffffffffffffffffff1916908160001a9053507f780000000000000000000000000000000000000000000000000000000000000081600181518110611b3e577f4e487b7100000000000000000000000000000000000000000000000000000000600052603260045260246000fd5b60200101907effffffffffffffffffffffffffffffffffffffffffffffffffffffffffffff1916908160001a90535060006001846002611b7e9190612541565b611b8891906124eb565b90505b6001811115611c74577f3031323334353637383961626364656600000000000000000000000000000000600f861660108110611bf0577f4e487b7100000000000000000000000000000000000000000000000000000000600052603260045260246000fd5b1a60f81b828281518110611c2d577f4e487b7100000000000000000000000000000000000000000000000000000000600052603260045260246000fd5b60200101907effffffffffffffffffffffffffffffffffffffffffffffffffffffffffffff1916908160001a905350600485901c945080611c6d906126b1565b9050611b8b565b5060008414611cb8576040517f08c379a0000000000000000000000000000000000000000000000000000000008152600401611caf906122d7565b60405180910390fd5b8091505092915050565b505050565b505050565b600081359050611cdb81612b36565b92915050565b600081359050611cf081612b4d565b92915050565b600081359050611d0581612b64565b92915050565b600081359050611d1a81612b7b565b92915050565b600060208284031215611d3257600080fd5b6000611d4084828501611ccc565b91505092915050565b60008060408385031215611d5c57600080fd5b6000611d6a85828601611ccc565b9250506020611d7b85828601611ccc565b9150509250929050565b600080600060608486031215611d9a57600080fd5b6000611da886828701611ccc565b9350506020611db986828701611ccc565b9250506040611dca86828701611d0b565b9150509250925092565b60008060408385031215611de757600080fd5b6000611df585828601611ccc565b9250506020611e0685828601611d0b565b9150509250929050565b60008060008060808587031215611e2657600080fd5b6000611e3487828801611ccc565b9450506020611e4587828801611d0b565b9350506040611e5687828801611ccc565b9250506060611e6787828801611d0b565b91505092959194509250565b600060208284031215611e8557600080fd5b6000611e9384828501611ce1565b91505092915050565b60008060408385031215611eaf57600080fd5b6000611ebd85828601611ce1565b9250506020611ece85828601611ccc565b9150509250929050565b600060208284031215611eea57600080fd5b6000611ef884828501611cf6565b91505092915050565b600060208284031215611f1357600080fd5b6000611f2184828501611d0b565b91505092915050565b611f33816125cf565b82525050565b611f42816125e1565b82525050565b611f51816125ed565b82525050565b611f608161265a565b82525050565b6000611f71826124c4565b611f7b81856124cf565b9350611f8b81856020860161267e565b611f948161276b565b840191505092915050565b6000611faa826124c4565b611fb481856124e0565b9350611fc481856020860161267e565b80840191505092915050565b6000611fdd6020836124cf565b9150611fe88261277c565b602082019050919050565b60006120006023836124cf565b915061200b826127a5565b604082019050919050565b60006120236022836124cf565b915061202e826127f4565b604082019050919050565b60006120466022836124cf565b915061205182612843565b604082019050919050565b60006120696026836124cf565b915061207482612892565b604082019050919050565b600061208c6028836124cf565b9150612097826128e1565b604082019050919050565b60006120af6021836124cf565b91506120ba82612930565b604082019050919050565b60006120d26025836124cf565b91506120dd8261297f565b604082019050919050565b60006120f56024836124cf565b9150612100826129ce565b604082019050919050565b60006121186017836124e0565b915061212382612a1d565b601782019050919050565b600061213b6025836124cf565b915061214682612a46565b604082019050919050565b600061215e6011836124e0565b915061216982612a95565b601182019050919050565b6000612181602f836124cf565b915061218c82612abe565b604082019050919050565b60006121a4601f836124cf565b91506121af82612b0d565b602082019050919050565b6121c381612643565b82525050565b6121d28161264d565b82525050565b60006121e38261210b565b91506121ef8285611f9f565b91506121fa82612151565b91506122068284611f9f565b91508190509392505050565b60006020820190506122276000830184611f2a565b92915050565b60006060820190506122426000830186611f2a565b61224f60208301856121ba565b61225c6040830184611f2a565b949350505050565b60006020820190506122796000830184611f39565b92915050565b60006020820190506122946000830184611f48565b92915050565b60006020820190506122af6000830184611f57565b92915050565b600060208201905081810360008301526122cf8184611f66565b905092915050565b600060208201905081810360008301526122f081611fd0565b9050919050565b6000602082019050818103600083015261231081611ff3565b9050919050565b6000602082019050818103600083015261233081612016565b9050919050565b6000602082019050818103600083015261235081612039565b9050919050565b600060208201905081810360008301526123708161205c565b9050919050565b600060208201905081810360008301526123908161207f565b9050919050565b600060208201905081810360008301526123b0816120a2565b9050919050565b600060208201905081810360008301526123d0816120c5565b9050919050565b600060208201905081810360008301526123f0816120e8565b9050919050565b600060208201905081810360008301526124108161212e565b9050919050565b6000602082019050818103600083015261243081612174565b9050919050565b6000602082019050818103600083015261245081612197565b9050919050565b600060208201905061246c60008301846121ba565b92915050565b600060608201905061248760008301866121ba565b6124946020830185611f2a565b6124a160408301846121ba565b949350505050565b60006020820190506124be60008301846121c9565b92915050565b600081519050919050565b600082825260208201905092915050565b600081905092915050565b60006124f682612643565b915061250183612643565b9250827fffffffffffffffffffffffffffffffffffffffffffffffffffffffffffffffff038211156125365761253561270d565b5b828201905092915050565b600061254c82612643565b915061255783612643565b9250817fffffffffffffffffffffffffffffffffffffffffffffffffffffffffffffffff04831182151516156125905761258f61270d565b5b828202905092915050565b60006125a682612643565b91506125b183612643565b9250828210156125c4576125c361270d565b5b828203905092915050565b60006125da82612623565b9050919050565b60008115159050919050565b6000819050919050565b60007fffffffff0000000000000000000000000000000000000000000000000000000082169050919050565b600073ffffffffffffffffffffffffffffffffffffffff82169050919050565b6000819050919050565b600060ff82169050919050565b60006126658261266c565b9050919050565b600061267782612623565b9050919050565b60005b8381101561269c578082015181840152602081019050612681565b838111156126ab576000848401525b50505050565b60006126bc82612643565b915060008214156126d0576126cf61270d565b5b600182039050919050565b600060028204905060018216806126f357607f821691505b602082108114156127075761270661273c565b5b50919050565b7f4e487b7100000000000000000000000000000000000000000000000000000000600052601160045260246000fd5b7f4e487b7100000000000000000000000000000000000000000000000000000000600052602260045260246000fd5b6000601f19601f8301169050919050565b7f537472696e67733a20686578206c656e67746820696e73756666696369656e74600082015250565b7f45524332303a207472616e7366657220746f20746865207a65726f206164647260008201527f6573730000000000000000000000000000000000000000000000000000000000602082015250565b7f45524332303a206275726e20616d6f756e7420657863656564732062616c616e60008201527f6365000000000000000000000000000000000000000000000000000000000000602082015250565b7f45524332303a20617070726f766520746f20746865207a65726f20616464726560008201527f7373000000000000000000000000000000000000000000000000000000000000602082015250565b7f45524332303a207472616e7366657220616d6f756e742065786365656473206260008201527f616c616e63650000000000000000000000000000000000000000000000000000602082015250565b7f45524332303a207472616e7366657220616d6f756e742065786365656473206160008201527f6c6c6f77616e6365000000000000000000000000000000000000000000000000602082015250565b7f45524332303a206275726e2066726f6d20746865207a65726f2061646472657360008201527f7300000000000000000000000000000000000000000000000000000000000000602082015250565b7f45524332303a207472616e736665722066726f6d20746865207a65726f20616460008201527f6472657373000000000000000000000000000000000000000000000000000000602082015250565b7f45524332303a20617070726f76652066726f6d20746865207a65726f2061646460008201527f7265737300000000000000000000000000000000000000000000000000000000602082015250565b7f416363657373436f6e74726f6c3a206163636f756e7420000000000000000000600082015250565b7f45524332303a2064656372656173656420616c6c6f77616e63652062656c6f7760008201527f207a65726f000000000000000000000000000000000000000000000000000000602082015250565b7f206973206d697373696e6720726f6c6520000000000000000000000000000000600082015250565b7f416363657373436f6e74726f6c3a2063616e206f6e6c792072656e6f756e636560008201527f20726f6c657320666f722073656c660000000000000000000000000000000000602082015250565b7f45524332303a206d696e7420746f20746865207a65726f206164647265737300600082015250565b612b3f816125cf565b8114612b4a57600080fd5b50565b612b56816125ed565b8114612b6157600080fd5b50565b612b6d816125f7565b8114612b7857600080fd5b50565b612b8481612643565b8114612b8f57600080fd5b5056fea26469706673582212209d6d59b6fdf13adaa85b236b289a2245baa8a22b1306e5580f8f340f918c071664736f6c63430008010033608060405260006006553480156200001657600080fd5b506040518060400160405280600d81526020017f434f3220507265736166696e67000000000000000000000000000000000000008152506040518060400160405280600481526020017f434f322d0000000000000000000000000000000000000000000000000000000081525081600490805190602001906200009b92919062000268565b508060059080519060200190620000b492919062000268565b505050620000e97f4b0ad04e4cfd06668c08542d3af105a3fa4b1a2813040bbb694bfecf2e5f524033620000ef60201b60201c565b6200037d565b6200010182826200010560201b60201c565b5050565b620001178282620001f660201b60201c565b620001f257600160008084815260200190815260200160002060000160008373ffffffffffffffffffffffffffffffffffffffff1673ffffffffffffffffffffffffffffffffffffffff16815260200190815260200160002060006101000a81548160ff021916908315150217905550620001976200026060201b60201c565b73ffffffffffffffffffffffffffffffffffffffff168173ffffffffffffffffffffffffffffffffffffffff16837f2f8788117e7eff1d82e926ec794901d17c78024a50270940304540a733656f0d60405160405180910390a45b5050565b600080600084815260200190815260200160002060000160008373ffffffffffffffffffffffffffffffffffffffff1673ffffffffffffffffffffffffffffffffffffffff16815260200190815260200160002060009054906101000a900460ff16905092915050565b600033905090565b828054620002769062000318565b90600052602060002090601f0160209004810192826200029a5760008555620002e6565b82601f10620002b557805160ff1916838001178555620002e6565b82800160010185558215620002e6579182015b82811115620002e5578251825591602001919060010190620002c8565b5b509050620002f59190620002f9565b5090565b5b8082111562000314576000816000905550600101620002fa565b5090565b600060028204905060018216806200033157607f821691505b602082108114156200034857620003476200034e565b5b50919050565b7f4e487b7100000000000000000000000000000000000000000000000000000000600052602260045260246000fd5b612542806200038d6000396000f3fe608060405234801561001057600080fd5b50600436106101425760003560e01c806339509351116100b8578063a217fddf1161007c578063a217fddf1461039f578063a457c2d7146103bd578063a9059cbb146103ed578063d547741f1461041d578063db6aa47914610439578063dd62ed3e1461046957610142565b806339509351146102d35780634d4123571461030357806370a082311461032157806391d148541461035157806395d89b411461038157610142565b806318160ddd1161010a57806318160ddd146101ff57806323b872dd1461021d578063248a9ca31461024d5780632f2ff15d1461027d578063313ce5671461029957806336568abe146102b757610142565b806301ffc9a71461014757806306fdde0314610177578063095ea7b3146101955780630d4d1513146101c557806318004b39146101e1575b600080fd5b610161600480360381019061015c9190611a3d565b610499565b60405161016e9190611d3d565b60405180910390f35b61017f610513565b60405161018c9190611d73565b60405180910390f35b6101af60048036038101906101aa919061194d565b6105a5565b6040516101bc9190611d3d565b60405180910390f35b6101df60048036038101906101da9190611989565b6105c3565b005b6101e96106d1565b6040516101f69190611d58565b60405180910390f35b6102076106f5565b6040516102149190611ed5565b60405180910390f35b610237600480360381019061023291906118fe565b6106ff565b6040516102449190611d3d565b60405180910390f35b610267600480360381019061026291906119d8565b6107f7565b6040516102749190611d58565b60405180910390f35b61029760048036038101906102929190611a01565b610816565b005b6102a161083f565b6040516102ae9190611f19565b60405180910390f35b6102d160048036038101906102cc9190611a01565b610848565b005b6102ed60048036038101906102e8919061194d565b6108cb565b6040516102fa9190611d3d565b60405180910390f35b61030b610977565b6040516103189190611ed5565b60405180910390f35b61033b60048036038101906103369190611899565b61097d565b6040516103489190611ed5565b60405180910390f35b61036b60048036038101906103669190611a01565b6109c6565b6040516103789190611d3d565b60405180910390f35b610389610a30565b6040516103969190611d73565b60405180910390f35b6103a7610ac2565b6040516103b49190611d58565b60405180910390f35b6103d760048036038101906103d2919061194d565b610ac9565b6040516103e49190611d3d565b60405180910390f35b6104076004803603810190610402919061194d565b610bb4565b6040516104149190611d3d565b60405180910390f35b61043760048036038101906104329190611a01565b610bd2565b005b610453600480360381019061044e9190611a66565b610bfb565b6040516104609190611d22565b60405180910390f35b610483600480360381019061047e91906118c2565b610c3a565b6040516104909190611ed5565b60405180910390f35b60007f7965db0b000000000000000000000000000000000000000000000000000000007bffffffffffffffffffffffffffffffffffffffffffffffffffffffff1916827bffffffffffffffffffffffffffffffffffffffffffffffffffffffff1916148061050c575061050b82610cc1565b5b9050919050565b606060048054610522906120f3565b80601f016020809104026020016040519081016040528092919081815260200182805461054e906120f3565b801561059b5780601f106105705761010080835404028352916020019161059b565b820191906000526020600020905b81548152906001019060200180831161057e57829003601f168201915b5050505050905090565b60006105b96105b2610d2b565b8484610d33565b6001905092915050565b7f4b0ad04e4cfd06668c08542d3af105a3fa4b1a2813040bbb694bfecf2e5f52406105f5816105f0610d2b565b610efe565b6105ff8484610f9b565b6007829080600181540180825580915050600190039060005260206000200160009091909190916101000a81548173ffffffffffffffffffffffffffffffffffffffff021916908373ffffffffffffffffffffffffffffffffffffffff16021790555082600660008282546106749190611f5b565b925050819055508373ffffffffffffffffffffffffffffffffffffffff167f05c185dee1aca098bdd73f659843cb8c31dbaa2fa0e5274897204828799afda284846040516106c3929190611ef0565b60405180910390a250505050565b7f4b0ad04e4cfd06668c08542d3af105a3fa4b1a2813040bbb694bfecf2e5f524081565b6000600354905090565b600061070c8484846110fc565b6000600260008673ffffffffffffffffffffffffffffffffffffffff1673ffffffffffffffffffffffffffffffffffffffff1681526020019081526020016000206000610757610d2b565b73ffffffffffffffffffffffffffffffffffffffff1673ffffffffffffffffffffffffffffffffffffffff168152602001908152602001600020549050828110156107d7576040517f08c379a00000000000000000000000000000000000000000000000000000000081526004016107ce90611e15565b60405180910390fd5b6107eb856107e3610d2b565b858403610d33565b60019150509392505050565b6000806000838152602001908152602001600020600101549050919050565b61081f826107f7565b6108308161082b610d2b565b610efe565b61083a8383611380565b505050565b60006012905090565b610850610d2b565b73ffffffffffffffffffffffffffffffffffffffff168173ffffffffffffffffffffffffffffffffffffffff16146108bd576040517f08c379a00000000000000000000000000000000000000000000000000000000081526004016108b490611e95565b60405180910390fd5b6108c78282611460565b5050565b600061096d6108d8610d2b565b8484600260006108e6610d2b565b73ffffffffffffffffffffffffffffffffffffffff1673ffffffffffffffffffffffffffffffffffffffff16815260200190815260200160002060008873ffffffffffffffffffffffffffffffffffffffff1673ffffffffffffffffffffffffffffffffffffffff168152602001908152602001600020546109689190611f5b565b610d33565b6001905092915050565b60065481565b6000600160008373ffffffffffffffffffffffffffffffffffffffff1673ffffffffffffffffffffffffffffffffffffffff168152602001908152602001600020549050919050565b600080600084815260200190815260200160002060000160008373ffffffffffffffffffffffffffffffffffffffff1673ffffffffffffffffffffffffffffffffffffffff16815260200190815260200160002060009054906101000a900460ff16905092915050565b606060058054610a3f906120f3565b80601f0160208091040260200160405190810160405280929190818152602001828054610a6b906120f3565b8015610ab85780601f10610a8d57610100808354040283529160200191610ab8565b820191906000526020600020905b815481529060010190602001808311610a9b57829003601f168201915b5050505050905090565b6000801b81565b60008060026000610ad8610d2b565b73ffffffffffffffffffffffffffffffffffffffff1673ffffffffffffffffffffffffffffffffffffffff16815260200190815260200160002060008573ffffffffffffffffffffffffffffffffffffffff1673ffffffffffffffffffffffffffffffffffffffff16815260200190815260200160002054905082811015610b95576040517f08c379a0000000000000000000000000000000000000000000000000000000008152600401610b8c90611e75565b60405180910390fd5b610ba9610ba0610d2b565b85858403610d33565b600191505092915050565b6000610bc8610bc1610d2b565b84846110fc565b6001905092915050565b610bdb826107f7565b610bec81610be7610d2b565b610efe565b610bf68383611460565b505050565b60078181548110610c0b57600080fd5b906000526020600020016000915054906101000a900473ffffffffffffffffffffffffffffffffffffffff1681565b6000600260008473ffffffffffffffffffffffffffffffffffffffff1673ffffffffffffffffffffffffffffffffffffffff16815260200190815260200160002060008373ffffffffffffffffffffffffffffffffffffffff1673ffffffffffffffffffffffffffffffffffffffff16815260200190815260200160002054905092915050565b60007f01ffc9a7000000000000000000000000000000000000000000000000000000007bffffffffffffffffffffffffffffffffffffffffffffffffffffffff1916827bffffffffffffffffffffffffffffffffffffffffffffffffffffffff1916149050919050565b600033905090565b600073ffffffffffffffffffffffffffffffffffffffff168373ffffffffffffffffffffffffffffffffffffffff161415610da3576040517f08c379a0000000000000000000000000000000000000000000000000000000008152600401610d9a90611e55565b60405180910390fd5b600073ffffffffffffffffffffffffffffffffffffffff168273ffffffffffffffffffffffffffffffffffffffff161415610e13576040517f08c379a0000000000000000000000000000000000000000000000000000000008152600401610e0a90611dd5565b60405180910390fd5b80600260008573ffffffffffffffffffffffffffffffffffffffff1673ffffffffffffffffffffffffffffffffffffffff16815260200190815260200160002060008473ffffffffffffffffffffffffffffffffffffffff1673ffffffffffffffffffffffffffffffffffffffff168152602001908152602001600020819055508173ffffffffffffffffffffffffffffffffffffffff168373ffffffffffffffffffffffffffffffffffffffff167f8c5be1e5ebec7d5bd14f71427d1e84f3dd0314c0f7b2291e5b200ac8c7c3b92583604051610ef19190611ed5565b60405180910390a3505050565b610f0882826109c6565b610f9757610f2d8173ffffffffffffffffffffffffffffffffffffffff166014611541565b610f3b8360001c6020611541565b604051602001610f4c929190611ce8565b6040516020818303038152906040526040517f08c379a0000000000000000000000000000000000000000000000000000000008152600401610f8e9190611d73565b60405180910390fd5b5050565b600073ffffffffffffffffffffffffffffffffffffffff168273ffffffffffffffffffffffffffffffffffffffff16141561100b576040517f08c379a000000000000000000000000000000000000000000000000000000000815260040161100290611eb5565b60405180910390fd5b6110176000838361183b565b80600360008282546110299190611f5b565b9250508190555080600160008473ffffffffffffffffffffffffffffffffffffffff1673ffffffffffffffffffffffffffffffffffffffff168152602001908152602001600020600082825461107f9190611f5b565b925050819055508173ffffffffffffffffffffffffffffffffffffffff16600073ffffffffffffffffffffffffffffffffffffffff167fddf252ad1be2c89b69c2b068fc378daa952ba7f163c4a11628f55a4df523b3ef836040516110e49190611ed5565b60405180910390a36110f860008383611840565b5050565b600073ffffffffffffffffffffffffffffffffffffffff168373ffffffffffffffffffffffffffffffffffffffff16141561116c576040517f08c379a000000000000000000000000000000000000000000000000000000000815260040161116390611e35565b60405180910390fd5b600073ffffffffffffffffffffffffffffffffffffffff168273ffffffffffffffffffffffffffffffffffffffff1614156111dc576040517f08c379a00000000000000000000000000000000000000000000000000000000081526004016111d390611db5565b60405180910390fd5b6111e783838361183b565b6000600160008573ffffffffffffffffffffffffffffffffffffffff1673ffffffffffffffffffffffffffffffffffffffff1681526020019081526020016000205490508181101561126e576040517f08c379a000000000000000000000000000000000000000000000000000000000815260040161126590611df5565b60405180910390fd5b818103600160008673ffffffffffffffffffffffffffffffffffffffff1673ffffffffffffffffffffffffffffffffffffffff1681526020019081526020016000208190555081600160008573ffffffffffffffffffffffffffffffffffffffff1673ffffffffffffffffffffffffffffffffffffffff16815260200190815260200160002060008282546113039190611f5b565b925050819055508273ffffffffffffffffffffffffffffffffffffffff168473ffffffffffffffffffffffffffffffffffffffff167fddf252ad1be2c89b69c2b068fc378daa952ba7f163c4a11628f55a4df523b3ef846040516113679190611ed5565b60405180910390a361137a848484611840565b50505050565b61138a82826109c6565b61145c57600160008084815260200190815260200160002060000160008373ffffffffffffffffffffffffffffffffffffffff1673ffffffffffffffffffffffffffffffffffffffff16815260200190815260200160002060006101000a81548160ff021916908315150217905550611401610d2b565b73ffffffffffffffffffffffffffffffffffffffff168173ffffffffffffffffffffffffffffffffffffffff16837f2f8788117e7eff1d82e926ec794901d17c78024a50270940304540a733656f0d60405160405180910390a45b5050565b61146a82826109c6565b1561153d57600080600084815260200190815260200160002060000160008373ffffffffffffffffffffffffffffffffffffffff1673ffffffffffffffffffffffffffffffffffffffff16815260200190815260200160002060006101000a81548160ff0219169083151502179055506114e2610d2b565b73ffffffffffffffffffffffffffffffffffffffff168173ffffffffffffffffffffffffffffffffffffffff16837ff6391f5c32d9c69d2a47ea670b442974b53935d1edc7fd64eb21e047a839171b60405160405180910390a45b5050565b6060600060028360026115549190611fb1565b61155e9190611f5b565b67ffffffffffffffff81111561159d577f4e487b7100000000000000000000000000000000000000000000000000000000600052604160045260246000fd5b6040519080825280601f01601f1916602001820160405280156115cf5781602001600182028036833780820191505090505b5090507f30000000000000000000000000000000000000000000000000000000000000008160008151811061162d577f4e487b7100000000000000000000000000000000000000000000000000000000600052603260045260246000fd5b60200101907effffffffffffffffffffffffffffffffffffffffffffffffffffffffffffff1916908160001a9053507f7800000000000000000000000000000000000000000000000000000000000000816001815181106116b7577f4e487b7100000000000000000000000000000000000000000000000000000000600052603260045260246000fd5b60200101907effffffffffffffffffffffffffffffffffffffffffffffffffffffffffffff1916908160001a905350600060018460026116f79190611fb1565b6117019190611f5b565b90505b60018111156117ed577f3031323334353637383961626364656600000000000000000000000000000000600f861660108110611769577f4e487b7100000000000000000000000000000000000000000000000000000000600052603260045260246000fd5b1a60f81b8282815181106117a6577f4e487b7100000000000000000000000000000000000000000000000000000000600052603260045260246000fd5b60200101907effffffffffffffffffffffffffffffffffffffffffffffffffffffffffffff1916908160001a905350600485901c9450806117e6906120c9565b9050611704565b5060008414611831576040517f08c379a000000000000000000000000000000000000000000000000000000000815260040161182890611d95565b60405180910390fd5b8091505092915050565b505050565b505050565b600081359050611854816124b0565b92915050565b600081359050611869816124c7565b92915050565b60008135905061187e816124de565b92915050565b600081359050611893816124f5565b92915050565b6000602082840312156118ab57600080fd5b60006118b984828501611845565b91505092915050565b600080604083850312156118d557600080fd5b60006118e385828601611845565b92505060206118f485828601611845565b9150509250929050565b60008060006060848603121561191357600080fd5b600061192186828701611845565b935050602061193286828701611845565b925050604061194386828701611884565b9150509250925092565b6000806040838503121561196057600080fd5b600061196e85828601611845565b925050602061197f85828601611884565b9150509250929050565b60008060006060848603121561199e57600080fd5b60006119ac86828701611845565b93505060206119bd86828701611884565b92505060406119ce86828701611845565b9150509250925092565b6000602082840312156119ea57600080fd5b60006119f88482850161185a565b91505092915050565b60008060408385031215611a1457600080fd5b6000611a228582860161185a565b9250506020611a3385828601611845565b9150509250929050565b600060208284031215611a4f57600080fd5b6000611a5d8482850161186f565b91505092915050565b600060208284031215611a7857600080fd5b6000611a8684828501611884565b91505092915050565b611a988161200b565b82525050565b611aa78161201d565b82525050565b611ab681612029565b82525050565b6000611ac782611f34565b611ad18185611f3f565b9350611ae1818560208601612096565b611aea81612183565b840191505092915050565b6000611b0082611f34565b611b0a8185611f50565b9350611b1a818560208601612096565b80840191505092915050565b6000611b33602083611f3f565b9150611b3e82612194565b602082019050919050565b6000611b56602383611f3f565b9150611b61826121bd565b604082019050919050565b6000611b79602283611f3f565b9150611b848261220c565b604082019050919050565b6000611b9c602683611f3f565b9150611ba78261225b565b604082019050919050565b6000611bbf602883611f3f565b9150611bca826122aa565b604082019050919050565b6000611be2602583611f3f565b9150611bed826122f9565b604082019050919050565b6000611c05602483611f3f565b9150611c1082612348565b604082019050919050565b6000611c28601783611f50565b9150611c3382612397565b601782019050919050565b6000611c4b602583611f3f565b9150611c56826123c0565b604082019050919050565b6000611c6e601183611f50565b9150611c798261240f565b601182019050919050565b6000611c91602f83611f3f565b9150611c9c82612438565b604082019050919050565b6000611cb4601f83611f3f565b9150611cbf82612487565b602082019050919050565b611cd38161207f565b82525050565b611ce281612089565b82525050565b6000611cf382611c1b565b9150611cff8285611af5565b9150611d0a82611c61565b9150611d168284611af5565b91508190509392505050565b6000602082019050611d376000830184611a8f565b92915050565b6000602082019050611d526000830184611a9e565b92915050565b6000602082019050611d6d6000830184611aad565b92915050565b60006020820190508181036000830152611d8d8184611abc565b905092915050565b60006020820190508181036000830152611dae81611b26565b9050919050565b60006020820190508181036000830152611dce81611b49565b9050919050565b60006020820190508181036000830152611dee81611b6c565b9050919050565b60006020820190508181036000830152611e0e81611b8f565b9050919050565b60006020820190508181036000830152611e2e81611bb2565b9050919050565b60006020820190508181036000830152611e4e81611bd5565b9050919050565b60006020820190508181036000830152611e6e81611bf8565b9050919050565b60006020820190508181036000830152611e8e81611c3e565b9050919050565b60006020820190508181036000830152611eae81611c84565b9050919050565b60006020820190508181036000830152611ece81611ca7565b9050919050565b6000602082019050611eea6000830184611cca565b92915050565b6000604082019050611f056000830185611cca565b611f126020830184611a8f565b9392505050565b6000602082019050611f2e6000830184611cd9565b92915050565b600081519050919050565b600082825260208201905092915050565b600081905092915050565b6000611f668261207f565b9150611f718361207f565b9250827fffffffffffffffffffffffffffffffffffffffffffffffffffffffffffffffff03821115611fa657611fa5612125565b5b828201905092915050565b6000611fbc8261207f565b9150611fc78361207f565b9250817fffffffffffffffffffffffffffffffffffffffffffffffffffffffffffffffff048311821515161561200057611fff612125565b5b828202905092915050565b60006120168261205f565b9050919050565b60008115159050919050565b6000819050919050565b60007fffffffff0000000000000000000000000000000000000000000000000000000082169050919050565b600073ffffffffffffffffffffffffffffffffffffffff82169050919050565b6000819050919050565b600060ff82169050919050565b60005b838110156120b4578082015181840152602081019050612099565b838111156120c3576000848401525b50505050565b60006120d48261207f565b915060008214156120e8576120e7612125565b5b600182039050919050565b6000600282049050600182168061210b57607f821691505b6020821081141561211f5761211e612154565b5b50919050565b7f4e487b7100000000000000000000000000000000000000000000000000000000600052601160045260246000fd5b7f4e487b7100000000000000000000000000000000000000000000000000000000600052602260045260246000fd5b6000601f19601f8301169050919050565b7f537472696e67733a20686578206c656e67746820696e73756666696369656e74600082015250565b7f45524332303a207472616e7366657220746f20746865207a65726f206164647260008201527f6573730000000000000000000000000000000000000000000000000000000000602082015250565b7f45524332303a20617070726f766520746f20746865207a65726f20616464726560008201527f7373000000000000000000000000000000000000000000000000000000000000602082015250565b7f45524332303a207472616e7366657220616d6f756e742065786365656473206260008201527f616c616e63650000000000000000000000000000000000000000000000000000602082015250565b7f45524332303a207472616e7366657220616d6f756e742065786365656473206160008201527f6c6c6f77616e6365000000000000000000000000000000000000000000000000602082015250565b7f45524332303a207472616e736665722066726f6d20746865207a65726f20616460008201527f6472657373000000000000000000000000000000000000000000000000000000602082015250565b7f45524332303a20617070726f76652066726f6d20746865207a65726f2061646460008201527f7265737300000000000000000000000000000000000000000000000000000000602082015250565b7f416363657373436f6e74726f6c3a206163636f756e7420000000000000000000600082015250565b7f45524332303a2064656372656173656420616c6c6f77616e63652062656c6f7760008201527f207a65726f000000000000000000000000000000000000000000000000000000602082015250565b7f206973206d697373696e6720726f6c6520000000000000000000000000000000600082015250565b7f416363657373436f6e74726f6c3a2063616e206f6e6c792072656e6f756e636560008201527f20726f6c657320666f722073656c660000000000000000000000000000000000602082015250565b7f45524332303a206d696e7420746f20746865207a65726f206164647265737300600082015250565b6124b98161200b565b81146124c457600080fd5b50565b6124d081612029565b81146124db57600080fd5b50565b6124e781612033565b81146124f257600080fd5b50565b6124fe8161207f565b811461250957600080fd5b5056fea2646970667358221220a9a892f29abb0a5d748c1ba549ded801daa448b94078102e4b396c9a178b5a2a64736f6c63430008010033",
  "immutableReferences": {},
  "source": "// SPDX-License-Identifier: MIT\n// contracts/co2accounting.sol\npragma solidity ^0.8.0;\n\nimport \"@openzeppelin/contracts/access/AccessControl.sol\";\nimport \"@openzeppelin/contracts/token/ERC20/ERC20.sol\";\nimport \"./CO2Presafing.sol\";\n\n/**\n * Implements CO2 Event handling (Emission event => Compensation) with the pattern of a burnable token.\n */\n\ncontract CO2Accounting is AccessControl, ERC20 {\n    bytes32 public constant EMITTER_ROLE = keccak256(\"EMITTER_ROLE\");\n    bytes32 public constant COMPENSATOR_ROLE = keccak256(\"COMPENSATOR_ROLE\");\n    uint256 public totalEmission = 0;\n    uint256 public totalCompensation = 0;\n    CO2Presafing public presafings = new CO2Presafing();\n\n    event Emission(address indexed to, uint256 amount,address upstreamda,uint256 presafing);\n    event Compensation(address indexed from, uint256 amount);\n    event Congestion(address indexed recipient, uint256 amount);\n\n    address[] public disaggregations;\n\n    constructor() ERC20(\"CO2G\", \"CO2G\") {\n      _setupRole(DEFAULT_ADMIN_ROLE, msg.sender);\n      _setupRole(EMITTER_ROLE,msg.sender);\n      _setupRole(COMPENSATOR_ROLE,msg.sender);\n    }\n\n    function emission(address to, uint256 amount,address upstreamda,uint256 presafing) public onlyRole(EMITTER_ROLE) {\n        _mint(to, amount);\n        totalEmission += amount;\n        disaggregations.push(upstreamda);\n        presafings.mint(to,presafing,upstreamda);\n        emit Emission(to, amount,upstreamda,presafing);\n    }\n\n    function compensation(address from, uint256 amount) public onlyRole(COMPENSATOR_ROLE) {\n        _burn(from, amount);\n        totalCompensation += amount;\n        emit Compensation(from,amount);\n    }\n\n    function transfer(address recipient, uint256 amount) public onlyRole(DEFAULT_ADMIN_ROLE) virtual override returns (bool) {\n      _transfer(_msgSender(), recipient, amount);\n      emit Congestion(recipient, amount);\n      return true;\n    }\n\n    function decimals() public view override returns (uint8) {\n        return 0;\n    }\n}\n",
  "sourcePath": "/home/zoernert/Development/co2event/contracts/CO2Accounting.sol",
  "compiler": {
    "name": "solc",
    "version": "0.8.1+commit.df193b15.Emscripten.clang"
  },
  "schemaVersion": "3.4.3",
  "updatedAt": "2021-10-13T01:19:31.720Z",
  "networkType": "ethereum",
  "devdoc": {
    "kind": "dev",
    "methods": {
      "allowance(address,address)": {
        "details": "See {IERC20-allowance}."
      },
      "approve(address,uint256)": {
        "details": "See {IERC20-approve}. Requirements: - `spender` cannot be the zero address."
      },
      "balanceOf(address)": {
        "details": "See {IERC20-balanceOf}."
      },
      "decimals()": {
        "details": "Returns the number of decimals used to get its user representation. For example, if `decimals` equals `2`, a balance of `505` tokens should be displayed to a user as `5.05` (`505 / 10 ** 2`). Tokens usually opt for a value of 18, imitating the relationship between Ether and Wei. This is the value {ERC20} uses, unless this function is overridden; NOTE: This information is only used for _display_ purposes: it in no way affects any of the arithmetic of the contract, including {IERC20-balanceOf} and {IERC20-transfer}."
      },
      "decreaseAllowance(address,uint256)": {
        "details": "Atomically decreases the allowance granted to `spender` by the caller. This is an alternative to {approve} that can be used as a mitigation for problems described in {IERC20-approve}. Emits an {Approval} event indicating the updated allowance. Requirements: - `spender` cannot be the zero address. - `spender` must have allowance for the caller of at least `subtractedValue`."
      },
      "getRoleAdmin(bytes32)": {
        "details": "Returns the admin role that controls `role`. See {grantRole} and {revokeRole}. To change a role's admin, use {_setRoleAdmin}."
      },
      "grantRole(bytes32,address)": {
        "details": "Grants `role` to `account`. If `account` had not been already granted `role`, emits a {RoleGranted} event. Requirements: - the caller must have ``role``'s admin role."
      },
      "hasRole(bytes32,address)": {
        "details": "Returns `true` if `account` has been granted `role`."
      },
      "increaseAllowance(address,uint256)": {
        "details": "Atomically increases the allowance granted to `spender` by the caller. This is an alternative to {approve} that can be used as a mitigation for problems described in {IERC20-approve}. Emits an {Approval} event indicating the updated allowance. Requirements: - `spender` cannot be the zero address."
      },
      "name()": {
        "details": "Returns the name of the token."
      },
      "renounceRole(bytes32,address)": {
        "details": "Revokes `role` from the calling account. Roles are often managed via {grantRole} and {revokeRole}: this function's purpose is to provide a mechanism for accounts to lose their privileges if they are compromised (such as when a trusted device is misplaced). If the calling account had been granted `role`, emits a {RoleRevoked} event. Requirements: - the caller must be `account`."
      },
      "revokeRole(bytes32,address)": {
        "details": "Revokes `role` from `account`. If `account` had been granted `role`, emits a {RoleRevoked} event. Requirements: - the caller must have ``role``'s admin role."
      },
      "supportsInterface(bytes4)": {
        "details": "See {IERC165-supportsInterface}."
      },
      "symbol()": {
        "details": "Returns the symbol of the token, usually a shorter version of the name."
      },
      "totalSupply()": {
        "details": "See {IERC20-totalSupply}."
      },
      "transfer(address,uint256)": {
        "details": "See {IERC20-transfer}. Requirements: - `recipient` cannot be the zero address. - the caller must have a balance of at least `amount`."
      },
      "transferFrom(address,address,uint256)": {
        "details": "See {IERC20-transferFrom}. Emits an {Approval} event indicating the updated allowance. This is not required by the EIP. See the note at the beginning of {ERC20}. Requirements: - `sender` and `recipient` cannot be the zero address. - `sender` must have a balance of at least `amount`. - the caller must have allowance for ``sender``'s tokens of at least `amount`."
      }
    },
    "version": 1
  },
  "userdoc": {
    "kind": "user",
    "methods": {},
    "notice": "Implements CO2 Event handling (Emission event => Compensation) with the pattern of a burnable token.",
    "version": 1
  }
}