{
  "contractName": "CO2CertRegistry",
  "abi": [
    {
      "inputs": [],
      "stateMutability": "nonpayable",
      "type": "constructor"
    },
    {
      "anonymous": false,
      "inputs": [
        {
          "indexed": true,
          "internalType": "contract CO2Accounting",
          "name": "co2event",
          "type": "address"
        },
        {
          "indexed": true,
          "internalType": "address",
          "name": "certificate",
          "type": "address"
        },
        {
          "indexed": false,
          "internalType": "address",
          "name": "entity",
          "type": "address"
        },
        {
          "indexed": false,
          "internalType": "uint256",
          "name": "co2eq",
          "type": "uint256"
        }
      ],
      "name": "Compensation",
      "type": "event"
    },
    {
      "anonymous": false,
      "inputs": [
        {
          "indexed": true,
          "internalType": "address",
          "name": "externalcertificate",
          "type": "address"
        },
        {
          "indexed": false,
          "internalType": "uint256",
          "name": "co2eq",
          "type": "uint256"
        }
      ],
      "name": "ExternalCertificate",
      "type": "event"
    },
    {
      "anonymous": false,
      "inputs": [
        {
          "indexed": true,
          "internalType": "bytes32",
          "name": "role",
          "type": "bytes32"
        },
        {
          "indexed": true,
          "internalType": "bytes32",
          "name": "previousAdminRole",
          "type": "bytes32"
        },
        {
          "indexed": true,
          "internalType": "bytes32",
          "name": "newAdminRole",
          "type": "bytes32"
        }
      ],
      "name": "RoleAdminChanged",
      "type": "event"
    },
    {
      "anonymous": false,
      "inputs": [
        {
          "indexed": true,
          "internalType": "bytes32",
          "name": "role",
          "type": "bytes32"
        },
        {
          "indexed": true,
          "internalType": "address",
          "name": "account",
          "type": "address"
        },
        {
          "indexed": true,
          "internalType": "address",
          "name": "sender",
          "type": "address"
        }
      ],
      "name": "RoleGranted",
      "type": "event"
    },
    {
      "anonymous": false,
      "inputs": [
        {
          "indexed": true,
          "internalType": "bytes32",
          "name": "role",
          "type": "bytes32"
        },
        {
          "indexed": true,
          "internalType": "address",
          "name": "account",
          "type": "address"
        },
        {
          "indexed": true,
          "internalType": "address",
          "name": "sender",
          "type": "address"
        }
      ],
      "name": "RoleRevoked",
      "type": "event"
    },
    {
      "inputs": [],
      "name": "DEFAULT_ADMIN_ROLE",
      "outputs": [
        {
          "internalType": "bytes32",
          "name": "",
          "type": "bytes32"
        }
      ],
      "stateMutability": "view",
      "type": "function"
    },
    {
      "inputs": [
        {
          "internalType": "address",
          "name": "",
          "type": "address"
        }
      ],
      "name": "certificates",
      "outputs": [
        {
          "internalType": "uint256",
          "name": "co2eq",
          "type": "uint256"
        },
        {
          "internalType": "address",
          "name": "externalId",
          "type": "address"
        }
      ],
      "stateMutability": "view",
      "type": "function"
    },
    {
      "inputs": [
        {
          "internalType": "bytes32",
          "name": "role",
          "type": "bytes32"
        }
      ],
      "name": "getRoleAdmin",
      "outputs": [
        {
          "internalType": "bytes32",
          "name": "",
          "type": "bytes32"
        }
      ],
      "stateMutability": "view",
      "type": "function"
    },
    {
      "inputs": [
        {
          "internalType": "bytes32",
          "name": "role",
          "type": "bytes32"
        },
        {
          "internalType": "address",
          "name": "account",
          "type": "address"
        }
      ],
      "name": "grantRole",
      "outputs": [],
      "stateMutability": "nonpayable",
      "type": "function"
    },
    {
      "inputs": [
        {
          "internalType": "bytes32",
          "name": "role",
          "type": "bytes32"
        },
        {
          "internalType": "address",
          "name": "account",
          "type": "address"
        }
      ],
      "name": "hasRole",
      "outputs": [
        {
          "internalType": "bool",
          "name": "",
          "type": "bool"
        }
      ],
      "stateMutability": "view",
      "type": "function"
    },
    {
      "inputs": [],
      "name": "owner",
      "outputs": [
        {
          "internalType": "address",
          "name": "",
          "type": "address"
        }
      ],
      "stateMutability": "view",
      "type": "function"
    },
    {
      "inputs": [
        {
          "internalType": "bytes32",
          "name": "role",
          "type": "bytes32"
        },
        {
          "internalType": "address",
          "name": "account",
          "type": "address"
        }
      ],
      "name": "renounceRole",
      "outputs": [],
      "stateMutability": "nonpayable",
      "type": "function"
    },
    {
      "inputs": [
        {
          "internalType": "bytes32",
          "name": "role",
          "type": "bytes32"
        },
        {
          "internalType": "address",
          "name": "account",
          "type": "address"
        }
      ],
      "name": "revokeRole",
      "outputs": [],
      "stateMutability": "nonpayable",
      "type": "function"
    },
    {
      "inputs": [
        {
          "internalType": "bytes4",
          "name": "interfaceId",
          "type": "bytes4"
        }
      ],
      "name": "supportsInterface",
      "outputs": [
        {
          "internalType": "bool",
          "name": "",
          "type": "bool"
        }
      ],
      "stateMutability": "view",
      "type": "function"
    },
    {
      "inputs": [],
      "name": "totalCertified",
      "outputs": [
        {
          "internalType": "uint256",
          "name": "",
          "type": "uint256"
        }
      ],
      "stateMutability": "view",
      "type": "function"
    },
    {
      "inputs": [],
      "name": "totalCompensated",
      "outputs": [
        {
          "internalType": "uint256",
          "name": "",
          "type": "uint256"
        }
      ],
      "stateMutability": "view",
      "type": "function"
    },
    {
      "inputs": [
        {
          "internalType": "address",
          "name": "certificate",
          "type": "address"
        },
        {
          "internalType": "uint256",
          "name": "co2eq",
          "type": "uint256"
        }
      ],
      "name": "addCertificate",
      "outputs": [
        {
          "internalType": "bool",
          "name": "",
          "type": "bool"
        }
      ],
      "stateMutability": "nonpayable",
      "type": "function"
    },
    {
      "inputs": [
        {
          "internalType": "contract CO2Accounting",
          "name": "co2event",
          "type": "address"
        },
        {
          "internalType": "address",
          "name": "certificate",
          "type": "address"
        },
        {
          "internalType": "address",
          "name": "entity",
          "type": "address"
        },
        {
          "internalType": "uint256",
          "name": "co2eq",
          "type": "uint256"
        }
      ],
      "name": "compensate",
      "outputs": [
        {
          "internalType": "bool",
          "name": "",
          "type": "bool"
        }
      ],
      "stateMutability": "nonpayable",
      "type": "function"
    }
  ],
  "bytecode": "0x6080604052600060015560006002553480156200001b57600080fd5b5033600360006101000a81548173ffffffffffffffffffffffffffffffffffffffff021916908373ffffffffffffffffffffffffffffffffffffffff160217905550620000726000801b336200007860201b60201c565b620001f1565b6200008a82826200008e60201b60201c565b5050565b620000a082826200017f60201b60201c565b6200017b57600160008084815260200190815260200160002060000160008373ffffffffffffffffffffffffffffffffffffffff1673ffffffffffffffffffffffffffffffffffffffff16815260200190815260200160002060006101000a81548160ff02191690831515021790555062000120620001e960201b60201c565b73ffffffffffffffffffffffffffffffffffffffff168173ffffffffffffffffffffffffffffffffffffffff16837f2f8788117e7eff1d82e926ec794901d17c78024a50270940304540a733656f0d60405160405180910390a45b5050565b600080600084815260200190815260200160002060000160008373ffffffffffffffffffffffffffffffffffffffff1673ffffffffffffffffffffffffffffffffffffffff16815260200190815260200160002060009054906101000a900460ff16905092915050565b600033905090565b6116c480620002016000396000f3fe608060405234801561001057600080fd5b50600436106100ce5760003560e01c80638da5cb5b1161008c578063a8692bf411610066578063a8692bf414610226578063b14f0b4314610256578063d422f02214610274578063d547741f146102a4576100ce565b80638da5cb5b146101ba57806391d14854146101d8578063a217fddf14610208576100ce565b806216e526146100d357806301ffc9a71461010457806316383b1514610134578063248a9ca3146101525780632f2ff15d1461018257806336568abe1461019e575b600080fd5b6100ed60048036038101906100e89190610f37565b6102c0565b6040516100fb9291906112f0565b60405180910390f35b61011e60048036038101906101199190611001565b610304565b60405161012b919061123d565b60405180910390f35b61013c61037e565b60405161014991906112d5565b60405180910390f35b61016c60048036038101906101679190610f9c565b610384565b6040516101799190611258565b60405180910390f35b61019c60048036038101906101979190610fc5565b6103a3565b005b6101b860048036038101906101b39190610fc5565b6103cc565b005b6101c261044f565b6040516101cf91906111f9565b60405180910390f35b6101f260048036038101906101ed9190610fc5565b610475565b6040516101ff919061123d565b60405180910390f35b6102106104df565b60405161021d9190611258565b60405180910390f35b610240600480360381019061023b919061102a565b6104e6565b60405161024d919061123d565b60405180910390f35b61025e610784565b60405161026b91906112d5565b60405180910390f35b61028e60048036038101906102899190610f60565b61078a565b60405161029b919061123d565b60405180910390f35b6102be60048036038101906102b99190610fc5565b6108db565b005b60046020528060005260406000206000915090508060000154908060010160009054906101000a900473ffffffffffffffffffffffffffffffffffffffff16905082565b60007f7965db0b000000000000000000000000000000000000000000000000000000007bffffffffffffffffffffffffffffffffffffffffffffffffffffffff1916827bffffffffffffffffffffffffffffffffffffffffffffffffffffffff19161480610377575061037682610904565b5b9050919050565b60025481565b6000806000838152602001908152602001600020600101549050919050565b6103ac82610384565b6103bd816103b861096e565b610976565b6103c78383610a13565b505050565b6103d461096e565b73ffffffffffffffffffffffffffffffffffffffff168173ffffffffffffffffffffffffffffffffffffffff1614610441576040517f08c379a0000000000000000000000000000000000000000000000000000000008152600401610438906112b5565b60405180910390fd5b61044b8282610af3565b5050565b600360009054906101000a900473ffffffffffffffffffffffffffffffffffffffff1681565b600080600084815260200190815260200160002060000160008373ffffffffffffffffffffffffffffffffffffffff1673ffffffffffffffffffffffffffffffffffffffff16815260200190815260200160002060009054906101000a900460ff16905092915050565b6000801b81565b60008060001b6104fd816104f861096e565b610976565b82600460008773ffffffffffffffffffffffffffffffffffffffff1673ffffffffffffffffffffffffffffffffffffffff16815260200190815260200160002060000154101561054c57600080fd5b82600460008773ffffffffffffffffffffffffffffffffffffffff1673ffffffffffffffffffffffffffffffffffffffff168152602001908152602001600020600001600082825461059e91906113f0565b92505081905550600460008673ffffffffffffffffffffffffffffffffffffffff1673ffffffffffffffffffffffffffffffffffffffff16815260200190815260200160002060020160405180604001604052808581526020018673ffffffffffffffffffffffffffffffffffffffff1681525090806001815401808255809150506001900390600052602060002090600202016000909190919091506000820151816000015560208201518160010160006101000a81548173ffffffffffffffffffffffffffffffffffffffff021916908373ffffffffffffffffffffffffffffffffffffffff16021790555050508573ffffffffffffffffffffffffffffffffffffffff1663136f235b85856040518363ffffffff1660e01b81526004016106c9929190611214565b600060405180830381600087803b1580156106e357600080fd5b505af11580156106f7573d6000803e3d6000fd5b50505050826002600082825461070d9190611340565b925050819055508473ffffffffffffffffffffffffffffffffffffffff168673ffffffffffffffffffffffffffffffffffffffff167f6fa2e01603600253ebb88a18e4a821422a2b058bbd9902e950be6f39f85a91af8686604051610773929190611214565b60405180910390a350949350505050565b60015481565b60008060001b6107a18161079c61096e565b610976565b82600460008673ffffffffffffffffffffffffffffffffffffffff1673ffffffffffffffffffffffffffffffffffffffff1681526020019081526020016000206000018190555083600460008673ffffffffffffffffffffffffffffffffffffffff1673ffffffffffffffffffffffffffffffffffffffff16815260200190815260200160002060010160006101000a81548173ffffffffffffffffffffffffffffffffffffffff021916908373ffffffffffffffffffffffffffffffffffffffff1602179055508373ffffffffffffffffffffffffffffffffffffffff167ff2feaace1aa9e3af4957664b3956f1a39d69954de16c81f9a11220611fe61371846040516108af91906112d5565b60405180910390a282600160008282546108c99190611340565b92505081905550600191505092915050565b6108e482610384565b6108f5816108f061096e565b610976565b6108ff8383610af3565b505050565b60007f01ffc9a7000000000000000000000000000000000000000000000000000000007bffffffffffffffffffffffffffffffffffffffffffffffffffffffff1916827bffffffffffffffffffffffffffffffffffffffffffffffffffffffff1916149050919050565b600033905090565b6109808282610475565b610a0f576109a58173ffffffffffffffffffffffffffffffffffffffff166014610bd4565b6109b38360001c6020610bd4565b6040516020016109c49291906111bf565b6040516020818303038152906040526040517f08c379a0000000000000000000000000000000000000000000000000000000008152600401610a069190611273565b60405180910390fd5b5050565b610a1d8282610475565b610aef57600160008084815260200190815260200160002060000160008373ffffffffffffffffffffffffffffffffffffffff1673ffffffffffffffffffffffffffffffffffffffff16815260200190815260200160002060006101000a81548160ff021916908315150217905550610a9461096e565b73ffffffffffffffffffffffffffffffffffffffff168173ffffffffffffffffffffffffffffffffffffffff16837f2f8788117e7eff1d82e926ec794901d17c78024a50270940304540a733656f0d60405160405180910390a45b5050565b610afd8282610475565b15610bd057600080600084815260200190815260200160002060000160008373ffffffffffffffffffffffffffffffffffffffff1673ffffffffffffffffffffffffffffffffffffffff16815260200190815260200160002060006101000a81548160ff021916908315150217905550610b7561096e565b73ffffffffffffffffffffffffffffffffffffffff168173ffffffffffffffffffffffffffffffffffffffff16837ff6391f5c32d9c69d2a47ea670b442974b53935d1edc7fd64eb21e047a839171b60405160405180910390a45b5050565b606060006002836002610be79190611396565b610bf19190611340565b67ffffffffffffffff811115610c30577f4e487b7100000000000000000000000000000000000000000000000000000000600052604160045260246000fd5b6040519080825280601f01601f191660200182016040528015610c625781602001600182028036833780820191505090505b5090507f300000000000000000000000000000000000000000000000000000000000000081600081518110610cc0577f4e487b7100000000000000000000000000000000000000000000000000000000600052603260045260246000fd5b60200101907effffffffffffffffffffffffffffffffffffffffffffffffffffffffffffff1916908160001a9053507f780000000000000000000000000000000000000000000000000000000000000081600181518110610d4a577f4e487b7100000000000000000000000000000000000000000000000000000000600052603260045260246000fd5b60200101907effffffffffffffffffffffffffffffffffffffffffffffffffffffffffffff1916908160001a90535060006001846002610d8a9190611396565b610d949190611340565b90505b6001811115610e80577f3031323334353637383961626364656600000000000000000000000000000000600f861660108110610dfc577f4e487b7100000000000000000000000000000000000000000000000000000000600052603260045260246000fd5b1a60f81b828281518110610e39577f4e487b7100000000000000000000000000000000000000000000000000000000600052603260045260246000fd5b60200101907effffffffffffffffffffffffffffffffffffffffffffffffffffffffffffff1916908160001a905350600485901c945080610e79906114e7565b9050610d97565b5060008414610ec4576040517f08c379a0000000000000000000000000000000000000000000000000000000008152600401610ebb90611295565b60405180910390fd5b8091505092915050565b600081359050610edd8161161b565b92915050565b600081359050610ef281611632565b92915050565b600081359050610f0781611649565b92915050565b600081359050610f1c81611660565b92915050565b600081359050610f3181611677565b92915050565b600060208284031215610f4957600080fd5b6000610f5784828501610ece565b91505092915050565b60008060408385031215610f7357600080fd5b6000610f8185828601610ece565b9250506020610f9285828601610f22565b9150509250929050565b600060208284031215610fae57600080fd5b6000610fbc84828501610ee3565b91505092915050565b60008060408385031215610fd857600080fd5b6000610fe685828601610ee3565b9250506020610ff785828601610ece565b9150509250929050565b60006020828403121561101357600080fd5b600061102184828501610ef8565b91505092915050565b6000806000806080858703121561104057600080fd5b600061104e87828801610f0d565b945050602061105f87828801610ece565b935050604061107087828801610ece565b925050606061108187828801610f22565b91505092959194509250565b61109681611424565b82525050565b6110a581611436565b82525050565b6110b481611442565b82525050565b60006110c582611319565b6110cf8185611324565b93506110df8185602086016114b4565b6110e881611540565b840191505092915050565b60006110fe82611319565b6111088185611335565b93506111188185602086016114b4565b80840191505092915050565b6000611131602083611324565b915061113c82611551565b602082019050919050565b6000611154601783611335565b915061115f8261157a565b601782019050919050565b6000611177601183611335565b9150611182826115a3565b601182019050919050565b600061119a602f83611324565b91506111a5826115cc565b604082019050919050565b6111b9816114aa565b82525050565b60006111ca82611147565b91506111d682856110f3565b91506111e18261116a565b91506111ed82846110f3565b91508190509392505050565b600060208201905061120e600083018461108d565b92915050565b6000604082019050611229600083018561108d565b61123660208301846111b0565b9392505050565b6000602082019050611252600083018461109c565b92915050565b600060208201905061126d60008301846110ab565b92915050565b6000602082019050818103600083015261128d81846110ba565b905092915050565b600060208201905081810360008301526112ae81611124565b9050919050565b600060208201905081810360008301526112ce8161118d565b9050919050565b60006020820190506112ea60008301846111b0565b92915050565b600060408201905061130560008301856111b0565b611312602083018461108d565b9392505050565b600081519050919050565b600082825260208201905092915050565b600081905092915050565b600061134b826114aa565b9150611356836114aa565b9250827fffffffffffffffffffffffffffffffffffffffffffffffffffffffffffffffff0382111561138b5761138a611511565b5b828201905092915050565b60006113a1826114aa565b91506113ac836114aa565b9250817fffffffffffffffffffffffffffffffffffffffffffffffffffffffffffffffff04831182151516156113e5576113e4611511565b5b828202905092915050565b60006113fb826114aa565b9150611406836114aa565b92508282101561141957611418611511565b5b828203905092915050565b600061142f8261148a565b9050919050565b60008115159050919050565b6000819050919050565b60007fffffffff0000000000000000000000000000000000000000000000000000000082169050919050565b600061148382611424565b9050919050565b600073ffffffffffffffffffffffffffffffffffffffff82169050919050565b6000819050919050565b60005b838110156114d25780820151818401526020810190506114b7565b838111156114e1576000848401525b50505050565b60006114f2826114aa565b9150600082141561150657611505611511565b5b600182039050919050565b7f4e487b7100000000000000000000000000000000000000000000000000000000600052601160045260246000fd5b6000601f19601f8301169050919050565b7f537472696e67733a20686578206c656e67746820696e73756666696369656e74600082015250565b7f416363657373436f6e74726f6c3a206163636f756e7420000000000000000000600082015250565b7f206973206d697373696e6720726f6c6520000000000000000000000000000000600082015250565b7f416363657373436f6e74726f6c3a2063616e206f6e6c792072656e6f756e636560008201527f20726f6c657320666f722073656c660000000000000000000000000000000000602082015250565b61162481611424565b811461162f57600080fd5b50565b61163b81611442565b811461164657600080fd5b50565b6116528161144c565b811461165d57600080fd5b50565b61166981611478565b811461167457600080fd5b50565b611680816114aa565b811461168b57600080fd5b5056fea2646970667358221220ce4b6168cb31750bcc53d1b1a1c799c341746757ed98d5fbb7743a61508a59a364736f6c63430008010033",
  "immutableReferences": {},
  "source": "// contracts/CO2CertRegistry.sol\n// SPDX-License-Identifier: Apache-2.0\npragma solidity ^0.8.0;\n\nimport \"@openzeppelin/contracts/access/AccessControl.sol\";\nimport \"./CO2Accounting.sol\";\n\ncontract CO2CertRegistry is AccessControl {\n\n   event ExternalCertificate(address indexed externalcertificate,uint co2eq);\n   event Compensation(CO2Accounting indexed co2event,address indexed certificate,address entity,uint co2eq);\n   uint256 public totalCertified = 0;\n   uint256 public totalCompensated = 0;\n\n   struct Spares {\n        uint256 co2eq;\n        address entity;\n   }\n\n   struct Certificate {\n        uint co2eq;\n        address externalId;\n        Spares[] spares;\n    }\n\n    address public owner;\n    mapping(address => Certificate) public certificates;\n\n    constructor() {\n        owner = msg.sender;\n        _setupRole(DEFAULT_ADMIN_ROLE, msg.sender);\n    }\n\n    function addCertificate(address certificate,uint co2eq) public onlyRole(DEFAULT_ADMIN_ROLE) virtual returns (bool) {\n        certificates[certificate].co2eq = co2eq;\n        certificates[certificate].externalId = certificate;\n        // certificates[certificate].spares = [];\n        emit ExternalCertificate(certificate,co2eq);\n        totalCertified += co2eq;\n        return true;\n    }\n\n\n     function compensate(CO2Accounting co2event,address certificate,address entity,uint co2eq) public onlyRole(DEFAULT_ADMIN_ROLE) virtual returns (bool) {\n         if( certificates[certificate].co2eq < co2eq ) revert();\n         certificates[certificate].co2eq -= co2eq;\n         certificates[certificate].spares.push(Spares({\n                co2eq: co2eq,\n                entity: entity\n         }));\n         co2event.compensation(entity,co2eq);\n         totalCompensated += co2eq;\n         emit Compensation(co2event,certificate,entity,co2eq);\n     }\n}\n",
  "sourcePath": "/home/zoernert/Development/co2event/contracts/CO2CertRegistry.sol",
  "compiler": {
    "name": "solc",
    "version": "0.8.1+commit.df193b15.Emscripten.clang"
  },
  "schemaVersion": "3.4.3",
  "updatedAt": "2021-10-11T13:48:29.034Z",
  "devdoc": {
    "kind": "dev",
    "methods": {
      "getRoleAdmin(bytes32)": {
        "details": "Returns the admin role that controls `role`. See {grantRole} and {revokeRole}. To change a role's admin, use {_setRoleAdmin}."
      },
      "grantRole(bytes32,address)": {
        "details": "Grants `role` to `account`. If `account` had not been already granted `role`, emits a {RoleGranted} event. Requirements: - the caller must have ``role``'s admin role."
      },
      "hasRole(bytes32,address)": {
        "details": "Returns `true` if `account` has been granted `role`."
      },
      "renounceRole(bytes32,address)": {
        "details": "Revokes `role` from the calling account. Roles are often managed via {grantRole} and {revokeRole}: this function's purpose is to provide a mechanism for accounts to lose their privileges if they are compromised (such as when a trusted device is misplaced). If the calling account had been granted `role`, emits a {RoleRevoked} event. Requirements: - the caller must be `account`."
      },
      "revokeRole(bytes32,address)": {
        "details": "Revokes `role` from `account`. If `account` had been granted `role`, emits a {RoleRevoked} event. Requirements: - the caller must have ``role``'s admin role."
      },
      "supportsInterface(bytes4)": {
        "details": "See {IERC165-supportsInterface}."
      }
    },
    "version": 1
  },
  "userdoc": {
    "kind": "user",
    "methods": {},
    "version": 1
  }
}