{
  "contractName": "CO2CertRegistry",
  "abi": [
    {
      "inputs": [],
      "stateMutability": "nonpayable",
      "type": "constructor"
    },
    {
      "anonymous": false,
      "inputs": [
        {
          "indexed": true,
          "internalType": "bytes32",
          "name": "role",
          "type": "bytes32"
        },
        {
          "indexed": true,
          "internalType": "bytes32",
          "name": "previousAdminRole",
          "type": "bytes32"
        },
        {
          "indexed": true,
          "internalType": "bytes32",
          "name": "newAdminRole",
          "type": "bytes32"
        }
      ],
      "name": "RoleAdminChanged",
      "type": "event"
    },
    {
      "anonymous": false,
      "inputs": [
        {
          "indexed": true,
          "internalType": "bytes32",
          "name": "role",
          "type": "bytes32"
        },
        {
          "indexed": true,
          "internalType": "address",
          "name": "account",
          "type": "address"
        },
        {
          "indexed": true,
          "internalType": "address",
          "name": "sender",
          "type": "address"
        }
      ],
      "name": "RoleGranted",
      "type": "event"
    },
    {
      "anonymous": false,
      "inputs": [
        {
          "indexed": true,
          "internalType": "bytes32",
          "name": "role",
          "type": "bytes32"
        },
        {
          "indexed": true,
          "internalType": "address",
          "name": "account",
          "type": "address"
        },
        {
          "indexed": true,
          "internalType": "address",
          "name": "sender",
          "type": "address"
        }
      ],
      "name": "RoleRevoked",
      "type": "event"
    },
    {
      "inputs": [],
      "name": "DEFAULT_ADMIN_ROLE",
      "outputs": [
        {
          "internalType": "bytes32",
          "name": "",
          "type": "bytes32"
        }
      ],
      "stateMutability": "view",
      "type": "function",
      "constant": true
    },
    {
      "inputs": [
        {
          "internalType": "address",
          "name": "",
          "type": "address"
        }
      ],
      "name": "certificates",
      "outputs": [
        {
          "internalType": "uint256",
          "name": "co2eq",
          "type": "uint256"
        },
        {
          "internalType": "address",
          "name": "externalId",
          "type": "address"
        }
      ],
      "stateMutability": "view",
      "type": "function",
      "constant": true
    },
    {
      "inputs": [
        {
          "internalType": "bytes32",
          "name": "role",
          "type": "bytes32"
        }
      ],
      "name": "getRoleAdmin",
      "outputs": [
        {
          "internalType": "bytes32",
          "name": "",
          "type": "bytes32"
        }
      ],
      "stateMutability": "view",
      "type": "function",
      "constant": true
    },
    {
      "inputs": [
        {
          "internalType": "bytes32",
          "name": "role",
          "type": "bytes32"
        },
        {
          "internalType": "address",
          "name": "account",
          "type": "address"
        }
      ],
      "name": "grantRole",
      "outputs": [],
      "stateMutability": "nonpayable",
      "type": "function"
    },
    {
      "inputs": [
        {
          "internalType": "bytes32",
          "name": "role",
          "type": "bytes32"
        },
        {
          "internalType": "address",
          "name": "account",
          "type": "address"
        }
      ],
      "name": "hasRole",
      "outputs": [
        {
          "internalType": "bool",
          "name": "",
          "type": "bool"
        }
      ],
      "stateMutability": "view",
      "type": "function",
      "constant": true
    },
    {
      "inputs": [],
      "name": "owner",
      "outputs": [
        {
          "internalType": "address",
          "name": "",
          "type": "address"
        }
      ],
      "stateMutability": "view",
      "type": "function",
      "constant": true
    },
    {
      "inputs": [
        {
          "internalType": "bytes32",
          "name": "role",
          "type": "bytes32"
        },
        {
          "internalType": "address",
          "name": "account",
          "type": "address"
        }
      ],
      "name": "renounceRole",
      "outputs": [],
      "stateMutability": "nonpayable",
      "type": "function"
    },
    {
      "inputs": [
        {
          "internalType": "bytes32",
          "name": "role",
          "type": "bytes32"
        },
        {
          "internalType": "address",
          "name": "account",
          "type": "address"
        }
      ],
      "name": "revokeRole",
      "outputs": [],
      "stateMutability": "nonpayable",
      "type": "function"
    },
    {
      "inputs": [
        {
          "internalType": "bytes4",
          "name": "interfaceId",
          "type": "bytes4"
        }
      ],
      "name": "supportsInterface",
      "outputs": [
        {
          "internalType": "bool",
          "name": "",
          "type": "bool"
        }
      ],
      "stateMutability": "view",
      "type": "function",
      "constant": true
    },
    {
      "inputs": [
        {
          "internalType": "address",
          "name": "certificate",
          "type": "address"
        },
        {
          "internalType": "uint256",
          "name": "co2eq",
          "type": "uint256"
        }
      ],
      "name": "addCertificate",
      "outputs": [
        {
          "internalType": "bool",
          "name": "",
          "type": "bool"
        }
      ],
      "stateMutability": "nonpayable",
      "type": "function"
    },
    {
      "inputs": [
        {
          "internalType": "contract CO2Accounting",
          "name": "co2event",
          "type": "address"
        },
        {
          "internalType": "address",
          "name": "certificate",
          "type": "address"
        },
        {
          "internalType": "address",
          "name": "entity",
          "type": "address"
        },
        {
          "internalType": "uint256",
          "name": "co2eq",
          "type": "uint256"
        }
      ],
      "name": "compensate",
      "outputs": [
        {
          "internalType": "bool",
          "name": "",
          "type": "bool"
        }
      ],
      "stateMutability": "nonpayable",
      "type": "function"
    }
  ],
  "bytecode": "0x608060405234801561001057600080fd5b5033600160006101000a81548173ffffffffffffffffffffffffffffffffffffffff021916908373ffffffffffffffffffffffffffffffffffffffff1602179055506100656000801b3361006a60201b60201c565b6101dc565b61007a828261007e60201b60201c565b5050565b61008e828261016a60201b60201c565b61016657600160008084815260200190815260200160002060000160008373ffffffffffffffffffffffffffffffffffffffff1673ffffffffffffffffffffffffffffffffffffffff16815260200190815260200160002060006101000a81548160ff02191690831515021790555061010b6101d460201b60201c565b73ffffffffffffffffffffffffffffffffffffffff168173ffffffffffffffffffffffffffffffffffffffff16837f2f8788117e7eff1d82e926ec794901d17c78024a50270940304540a733656f0d60405160405180910390a45b5050565b600080600084815260200190815260200160002060000160008373ffffffffffffffffffffffffffffffffffffffff1673ffffffffffffffffffffffffffffffffffffffff16815260200190815260200160002060009054906101000a900460ff16905092915050565b600033905090565b61155480620001ec6000396000f3fe608060405234801561001057600080fd5b50600436106100a85760003560e01c80638da5cb5b116100715780638da5cb5b1461017657806391d1485414610194578063a217fddf146101c4578063a8692bf4146101e2578063d422f02214610212578063d547741f14610242576100a8565b806216e526146100ad57806301ffc9a7146100de578063248a9ca31461010e5780632f2ff15d1461013e57806336568abe1461015a575b600080fd5b6100c760048036038101906100c29190610de2565b61025e565b6040516100d5929190611180565b60405180910390f35b6100f860048036038101906100f39190610eac565b6102a2565b60405161010591906110e8565b60405180910390f35b61012860048036038101906101239190610e47565b61031c565b6040516101359190611103565b60405180910390f35b61015860048036038101906101539190610e70565b61033b565b005b610174600480360381019061016f9190610e70565b610364565b005b61017e6103e7565b60405161018b91906110a4565b60405180910390f35b6101ae60048036038101906101a99190610e70565b61040d565b6040516101bb91906110e8565b60405180910390f35b6101cc610477565b6040516101d99190611103565b60405180910390f35b6101fc60048036038101906101f79190610ed5565b61047e565b60405161020991906110e8565b60405180910390f35b61022c60048036038101906102279190610e0b565b61069c565b60405161023991906110e8565b60405180910390f35b61025c60048036038101906102579190610e70565b610786565b005b60026020528060005260406000206000915090508060000154908060010160009054906101000a900473ffffffffffffffffffffffffffffffffffffffff16905082565b60007f7965db0b000000000000000000000000000000000000000000000000000000007bffffffffffffffffffffffffffffffffffffffffffffffffffffffff1916827bffffffffffffffffffffffffffffffffffffffffffffffffffffffff191614806103155750610314826107af565b5b9050919050565b6000806000838152602001908152602001600020600101549050919050565b6103448261031c565b61035581610350610819565b610821565b61035f83836108be565b505050565b61036c610819565b73ffffffffffffffffffffffffffffffffffffffff168173ffffffffffffffffffffffffffffffffffffffff16146103d9576040517f08c379a00000000000000000000000000000000000000000000000000000000081526004016103d090611160565b60405180910390fd5b6103e3828261099e565b5050565b600160009054906101000a900473ffffffffffffffffffffffffffffffffffffffff1681565b600080600084815260200190815260200160002060000160008373ffffffffffffffffffffffffffffffffffffffff1673ffffffffffffffffffffffffffffffffffffffff16815260200190815260200160002060009054906101000a900460ff16905092915050565b6000801b81565b60008060001b61049581610490610819565b610821565b82600260008773ffffffffffffffffffffffffffffffffffffffff1673ffffffffffffffffffffffffffffffffffffffff1681526020019081526020016000206000015410156104e457600080fd5b82600260008773ffffffffffffffffffffffffffffffffffffffff1673ffffffffffffffffffffffffffffffffffffffff16815260200190815260200160002060000160008282546105369190611280565b92505081905550600260008673ffffffffffffffffffffffffffffffffffffffff1673ffffffffffffffffffffffffffffffffffffffff16815260200190815260200160002060020160405180604001604052808581526020018673ffffffffffffffffffffffffffffffffffffffff1681525090806001815401808255809150506001900390600052602060002090600202016000909190919091506000820151816000015560208201518160010160006101000a81548173ffffffffffffffffffffffffffffffffffffffff021916908373ffffffffffffffffffffffffffffffffffffffff16021790555050508573ffffffffffffffffffffffffffffffffffffffff1663136f235b85856040518363ffffffff1660e01b81526004016106619291906110bf565b600060405180830381600087803b15801561067b57600080fd5b505af115801561068f573d6000803e3d6000fd5b5050505050949350505050565b60008060001b6106b3816106ae610819565b610821565b82600260008673ffffffffffffffffffffffffffffffffffffffff1673ffffffffffffffffffffffffffffffffffffffff1681526020019081526020016000206000018190555083600260008673ffffffffffffffffffffffffffffffffffffffff1673ffffffffffffffffffffffffffffffffffffffff16815260200190815260200160002060010160006101000a81548173ffffffffffffffffffffffffffffffffffffffff021916908373ffffffffffffffffffffffffffffffffffffffff160217905550600191505092915050565b61078f8261031c565b6107a08161079b610819565b610821565b6107aa838361099e565b505050565b60007f01ffc9a7000000000000000000000000000000000000000000000000000000007bffffffffffffffffffffffffffffffffffffffffffffffffffffffff1916827bffffffffffffffffffffffffffffffffffffffffffffffffffffffff1916149050919050565b600033905090565b61082b828261040d565b6108ba576108508173ffffffffffffffffffffffffffffffffffffffff166014610a7f565b61085e8360001c6020610a7f565b60405160200161086f92919061106a565b6040516020818303038152906040526040517f08c379a00000000000000000000000000000000000000000000000000000000081526004016108b1919061111e565b60405180910390fd5b5050565b6108c8828261040d565b61099a57600160008084815260200190815260200160002060000160008373ffffffffffffffffffffffffffffffffffffffff1673ffffffffffffffffffffffffffffffffffffffff16815260200190815260200160002060006101000a81548160ff02191690831515021790555061093f610819565b73ffffffffffffffffffffffffffffffffffffffff168173ffffffffffffffffffffffffffffffffffffffff16837f2f8788117e7eff1d82e926ec794901d17c78024a50270940304540a733656f0d60405160405180910390a45b5050565b6109a8828261040d565b15610a7b57600080600084815260200190815260200160002060000160008373ffffffffffffffffffffffffffffffffffffffff1673ffffffffffffffffffffffffffffffffffffffff16815260200190815260200160002060006101000a81548160ff021916908315150217905550610a20610819565b73ffffffffffffffffffffffffffffffffffffffff168173ffffffffffffffffffffffffffffffffffffffff16837ff6391f5c32d9c69d2a47ea670b442974b53935d1edc7fd64eb21e047a839171b60405160405180910390a45b5050565b606060006002836002610a929190611226565b610a9c91906111d0565b67ffffffffffffffff811115610adb577f4e487b7100000000000000000000000000000000000000000000000000000000600052604160045260246000fd5b6040519080825280601f01601f191660200182016040528015610b0d5781602001600182028036833780820191505090505b5090507f300000000000000000000000000000000000000000000000000000000000000081600081518110610b6b577f4e487b7100000000000000000000000000000000000000000000000000000000600052603260045260246000fd5b60200101907effffffffffffffffffffffffffffffffffffffffffffffffffffffffffffff1916908160001a9053507f780000000000000000000000000000000000000000000000000000000000000081600181518110610bf5577f4e487b7100000000000000000000000000000000000000000000000000000000600052603260045260246000fd5b60200101907effffffffffffffffffffffffffffffffffffffffffffffffffffffffffffff1916908160001a90535060006001846002610c359190611226565b610c3f91906111d0565b90505b6001811115610d2b577f3031323334353637383961626364656600000000000000000000000000000000600f861660108110610ca7577f4e487b7100000000000000000000000000000000000000000000000000000000600052603260045260246000fd5b1a60f81b828281518110610ce4577f4e487b7100000000000000000000000000000000000000000000000000000000600052603260045260246000fd5b60200101907effffffffffffffffffffffffffffffffffffffffffffffffffffffffffffff1916908160001a905350600485901c945080610d2490611377565b9050610c42565b5060008414610d6f576040517f08c379a0000000000000000000000000000000000000000000000000000000008152600401610d6690611140565b60405180910390fd5b8091505092915050565b600081359050610d88816114ab565b92915050565b600081359050610d9d816114c2565b92915050565b600081359050610db2816114d9565b92915050565b600081359050610dc7816114f0565b92915050565b600081359050610ddc81611507565b92915050565b600060208284031215610df457600080fd5b6000610e0284828501610d79565b91505092915050565b60008060408385031215610e1e57600080fd5b6000610e2c85828601610d79565b9250506020610e3d85828601610dcd565b9150509250929050565b600060208284031215610e5957600080fd5b6000610e6784828501610d8e565b91505092915050565b60008060408385031215610e8357600080fd5b6000610e9185828601610d8e565b9250506020610ea285828601610d79565b9150509250929050565b600060208284031215610ebe57600080fd5b6000610ecc84828501610da3565b91505092915050565b60008060008060808587031215610eeb57600080fd5b6000610ef987828801610db8565b9450506020610f0a87828801610d79565b9350506040610f1b87828801610d79565b9250506060610f2c87828801610dcd565b91505092959194509250565b610f41816112b4565b82525050565b610f50816112c6565b82525050565b610f5f816112d2565b82525050565b6000610f70826111a9565b610f7a81856111b4565b9350610f8a818560208601611344565b610f93816113d0565b840191505092915050565b6000610fa9826111a9565b610fb381856111c5565b9350610fc3818560208601611344565b80840191505092915050565b6000610fdc6020836111b4565b9150610fe7826113e1565b602082019050919050565b6000610fff6017836111c5565b915061100a8261140a565b601782019050919050565b60006110226011836111c5565b915061102d82611433565b601182019050919050565b6000611045602f836111b4565b91506110508261145c565b604082019050919050565b6110648161133a565b82525050565b600061107582610ff2565b91506110818285610f9e565b915061108c82611015565b91506110988284610f9e565b91508190509392505050565b60006020820190506110b96000830184610f38565b92915050565b60006040820190506110d46000830185610f38565b6110e1602083018461105b565b9392505050565b60006020820190506110fd6000830184610f47565b92915050565b60006020820190506111186000830184610f56565b92915050565b600060208201905081810360008301526111388184610f65565b905092915050565b6000602082019050818103600083015261115981610fcf565b9050919050565b6000602082019050818103600083015261117981611038565b9050919050565b6000604082019050611195600083018561105b565b6111a26020830184610f38565b9392505050565b600081519050919050565b600082825260208201905092915050565b600081905092915050565b60006111db8261133a565b91506111e68361133a565b9250827fffffffffffffffffffffffffffffffffffffffffffffffffffffffffffffffff0382111561121b5761121a6113a1565b5b828201905092915050565b60006112318261133a565b915061123c8361133a565b9250817fffffffffffffffffffffffffffffffffffffffffffffffffffffffffffffffff0483118215151615611275576112746113a1565b5b828202905092915050565b600061128b8261133a565b91506112968361133a565b9250828210156112a9576112a86113a1565b5b828203905092915050565b60006112bf8261131a565b9050919050565b60008115159050919050565b6000819050919050565b60007fffffffff0000000000000000000000000000000000000000000000000000000082169050919050565b6000611313826112b4565b9050919050565b600073ffffffffffffffffffffffffffffffffffffffff82169050919050565b6000819050919050565b60005b83811015611362578082015181840152602081019050611347565b83811115611371576000848401525b50505050565b60006113828261133a565b91506000821415611396576113956113a1565b5b600182039050919050565b7f4e487b7100000000000000000000000000000000000000000000000000000000600052601160045260246000fd5b6000601f19601f8301169050919050565b7f537472696e67733a20686578206c656e67746820696e73756666696369656e74600082015250565b7f416363657373436f6e74726f6c3a206163636f756e7420000000000000000000600082015250565b7f206973206d697373696e6720726f6c6520000000000000000000000000000000600082015250565b7f416363657373436f6e74726f6c3a2063616e206f6e6c792072656e6f756e636560008201527f20726f6c657320666f722073656c660000000000000000000000000000000000602082015250565b6114b4816112b4565b81146114bf57600080fd5b50565b6114cb816112d2565b81146114d657600080fd5b50565b6114e2816112dc565b81146114ed57600080fd5b50565b6114f981611308565b811461150457600080fd5b50565b6115108161133a565b811461151b57600080fd5b5056fea2646970667358221220793328483bdaf1789e88b4115cb78148c853613ba2ad2dd2f8914925bb0d5e8c64736f6c63430008010033",
  "immutableReferences": {},
  "source": "// contracts/CO2CertRegistry.sol\n// SPDX-License-Identifier: Apache-2.0\npragma solidity ^0.8.0;\n\nimport \"@openzeppelin/contracts/access/AccessControl.sol\";\nimport \"./CO2Accounting.sol\";\n\ncontract CO2CertRegistry is AccessControl {\n\n   struct Spares {\n        uint256 co2eq;\n        address entity;\n   }\n\n   struct Certificate {\n        uint co2eq;\n        address externalId;\n        Spares[] spares;\n    }\n\n    address public owner;\n    mapping(address => Certificate) public certificates;\n\n    constructor() {\n        owner = msg.sender;\n        _setupRole(DEFAULT_ADMIN_ROLE, msg.sender);\n    }\n\n    function addCertificate(address certificate,uint co2eq) public onlyRole(DEFAULT_ADMIN_ROLE) virtual returns (bool) {\n        certificates[certificate].co2eq = co2eq;\n        certificates[certificate].externalId = certificate;\n        // certificates[certificate].spares = [];\n        return true;\n    }\n\n\n     function compensate(CO2Accounting co2event,address certificate,address entity,uint co2eq) public onlyRole(DEFAULT_ADMIN_ROLE) virtual returns (bool) {\n         if( certificates[certificate].co2eq < co2eq ) revert();\n         certificates[certificate].co2eq -= co2eq;\n         certificates[certificate].spares.push(Spares({\n                co2eq: co2eq,\n                entity: entity\n         }));\n         co2event.compensation(entity,co2eq);\n     }\n}\n",
  "sourcePath": "/home/zoernert/Development/co2event/contracts/CO2CertRegistry.sol",
  "compiler": {
    "name": "solc",
    "version": "0.8.1+commit.df193b15.Emscripten.clang"
  },
  "schemaVersion": "3.4.3",
  "updatedAt": "2021-10-09T11:02:48.271Z",
  "networkType": "ethereum",
  "devdoc": {
    "kind": "dev",
    "methods": {
      "getRoleAdmin(bytes32)": {
        "details": "Returns the admin role that controls `role`. See {grantRole} and {revokeRole}. To change a role's admin, use {_setRoleAdmin}."
      },
      "grantRole(bytes32,address)": {
        "details": "Grants `role` to `account`. If `account` had not been already granted `role`, emits a {RoleGranted} event. Requirements: - the caller must have ``role``'s admin role."
      },
      "hasRole(bytes32,address)": {
        "details": "Returns `true` if `account` has been granted `role`."
      },
      "renounceRole(bytes32,address)": {
        "details": "Revokes `role` from the calling account. Roles are often managed via {grantRole} and {revokeRole}: this function's purpose is to provide a mechanism for accounts to lose their privileges if they are compromised (such as when a trusted device is misplaced). If the calling account had been granted `role`, emits a {RoleRevoked} event. Requirements: - the caller must be `account`."
      },
      "revokeRole(bytes32,address)": {
        "details": "Revokes `role` from `account`. If `account` had been granted `role`, emits a {RoleRevoked} event. Requirements: - the caller must have ``role``'s admin role."
      },
      "supportsInterface(bytes4)": {
        "details": "See {IERC165-supportsInterface}."
      }
    },
    "version": 1
  },
  "userdoc": {
    "kind": "user",
    "methods": {},
    "version": 1
  }
}