{
  "contractName": "CO2CertRegistry",
  "abi": [
    {
      "inputs": [],
      "stateMutability": "nonpayable",
      "type": "constructor"
    },
    {
      "anonymous": false,
      "inputs": [
        {
          "indexed": true,
          "internalType": "contract CO2Accounting",
          "name": "co2event",
          "type": "address"
        },
        {
          "indexed": true,
          "internalType": "address",
          "name": "certificate",
          "type": "address"
        },
        {
          "indexed": false,
          "internalType": "address",
          "name": "entity",
          "type": "address"
        },
        {
          "indexed": false,
          "internalType": "uint256",
          "name": "co2eq",
          "type": "uint256"
        }
      ],
      "name": "Compensation",
      "type": "event"
    },
    {
      "anonymous": false,
      "inputs": [
        {
          "indexed": true,
          "internalType": "address",
          "name": "externalcertificate",
          "type": "address"
        },
        {
          "indexed": false,
          "internalType": "uint256",
          "name": "co2eq",
          "type": "uint256"
        }
      ],
      "name": "ExternalCertificate",
      "type": "event"
    },
    {
      "anonymous": false,
      "inputs": [
        {
          "indexed": true,
          "internalType": "bytes32",
          "name": "role",
          "type": "bytes32"
        },
        {
          "indexed": true,
          "internalType": "bytes32",
          "name": "previousAdminRole",
          "type": "bytes32"
        },
        {
          "indexed": true,
          "internalType": "bytes32",
          "name": "newAdminRole",
          "type": "bytes32"
        }
      ],
      "name": "RoleAdminChanged",
      "type": "event"
    },
    {
      "anonymous": false,
      "inputs": [
        {
          "indexed": true,
          "internalType": "bytes32",
          "name": "role",
          "type": "bytes32"
        },
        {
          "indexed": true,
          "internalType": "address",
          "name": "account",
          "type": "address"
        },
        {
          "indexed": true,
          "internalType": "address",
          "name": "sender",
          "type": "address"
        }
      ],
      "name": "RoleGranted",
      "type": "event"
    },
    {
      "anonymous": false,
      "inputs": [
        {
          "indexed": true,
          "internalType": "bytes32",
          "name": "role",
          "type": "bytes32"
        },
        {
          "indexed": true,
          "internalType": "address",
          "name": "account",
          "type": "address"
        },
        {
          "indexed": true,
          "internalType": "address",
          "name": "sender",
          "type": "address"
        }
      ],
      "name": "RoleRevoked",
      "type": "event"
    },
    {
      "inputs": [],
      "name": "DEFAULT_ADMIN_ROLE",
      "outputs": [
        {
          "internalType": "bytes32",
          "name": "",
          "type": "bytes32"
        }
      ],
      "stateMutability": "view",
      "type": "function"
    },
    {
      "inputs": [
        {
          "internalType": "address",
          "name": "",
          "type": "address"
        }
      ],
      "name": "certificates",
      "outputs": [
        {
          "internalType": "uint256",
          "name": "co2eq",
          "type": "uint256"
        },
        {
          "internalType": "address",
          "name": "externalId",
          "type": "address"
        }
      ],
      "stateMutability": "view",
      "type": "function"
    },
    {
      "inputs": [
        {
          "internalType": "uint256",
          "name": "",
          "type": "uint256"
        }
      ],
      "name": "externalCertificates",
      "outputs": [
        {
          "internalType": "address",
          "name": "",
          "type": "address"
        }
      ],
      "stateMutability": "view",
      "type": "function"
    },
    {
      "inputs": [
        {
          "internalType": "bytes32",
          "name": "role",
          "type": "bytes32"
        }
      ],
      "name": "getRoleAdmin",
      "outputs": [
        {
          "internalType": "bytes32",
          "name": "",
          "type": "bytes32"
        }
      ],
      "stateMutability": "view",
      "type": "function"
    },
    {
      "inputs": [
        {
          "internalType": "bytes32",
          "name": "role",
          "type": "bytes32"
        },
        {
          "internalType": "address",
          "name": "account",
          "type": "address"
        }
      ],
      "name": "grantRole",
      "outputs": [],
      "stateMutability": "nonpayable",
      "type": "function"
    },
    {
      "inputs": [
        {
          "internalType": "bytes32",
          "name": "role",
          "type": "bytes32"
        },
        {
          "internalType": "address",
          "name": "account",
          "type": "address"
        }
      ],
      "name": "hasRole",
      "outputs": [
        {
          "internalType": "bool",
          "name": "",
          "type": "bool"
        }
      ],
      "stateMutability": "view",
      "type": "function"
    },
    {
      "inputs": [],
      "name": "owner",
      "outputs": [
        {
          "internalType": "address",
          "name": "",
          "type": "address"
        }
      ],
      "stateMutability": "view",
      "type": "function"
    },
    {
      "inputs": [
        {
          "internalType": "bytes32",
          "name": "role",
          "type": "bytes32"
        },
        {
          "internalType": "address",
          "name": "account",
          "type": "address"
        }
      ],
      "name": "renounceRole",
      "outputs": [],
      "stateMutability": "nonpayable",
      "type": "function"
    },
    {
      "inputs": [
        {
          "internalType": "bytes32",
          "name": "role",
          "type": "bytes32"
        },
        {
          "internalType": "address",
          "name": "account",
          "type": "address"
        }
      ],
      "name": "revokeRole",
      "outputs": [],
      "stateMutability": "nonpayable",
      "type": "function"
    },
    {
      "inputs": [
        {
          "internalType": "bytes4",
          "name": "interfaceId",
          "type": "bytes4"
        }
      ],
      "name": "supportsInterface",
      "outputs": [
        {
          "internalType": "bool",
          "name": "",
          "type": "bool"
        }
      ],
      "stateMutability": "view",
      "type": "function"
    },
    {
      "inputs": [],
      "name": "totalCertified",
      "outputs": [
        {
          "internalType": "uint256",
          "name": "",
          "type": "uint256"
        }
      ],
      "stateMutability": "view",
      "type": "function"
    },
    {
      "inputs": [],
      "name": "totalCompensated",
      "outputs": [
        {
          "internalType": "uint256",
          "name": "",
          "type": "uint256"
        }
      ],
      "stateMutability": "view",
      "type": "function"
    },
    {
      "inputs": [
        {
          "internalType": "address",
          "name": "certificate",
          "type": "address"
        },
        {
          "internalType": "uint256",
          "name": "co2eq",
          "type": "uint256"
        }
      ],
      "name": "addCertificate",
      "outputs": [
        {
          "internalType": "bool",
          "name": "",
          "type": "bool"
        }
      ],
      "stateMutability": "nonpayable",
      "type": "function"
    },
    {
      "inputs": [
        {
          "internalType": "contract CO2Accounting",
          "name": "co2event",
          "type": "address"
        },
        {
          "internalType": "address",
          "name": "certificate",
          "type": "address"
        },
        {
          "internalType": "address",
          "name": "entity",
          "type": "address"
        },
        {
          "internalType": "uint256",
          "name": "co2eq",
          "type": "uint256"
        }
      ],
      "name": "compensate",
      "outputs": [
        {
          "internalType": "bool",
          "name": "",
          "type": "bool"
        }
      ],
      "stateMutability": "nonpayable",
      "type": "function"
    }
  ],
  "bytecode": "0x6080604052600060015560006002553480156200001b57600080fd5b5033600360006101000a81548173ffffffffffffffffffffffffffffffffffffffff021916908373ffffffffffffffffffffffffffffffffffffffff160217905550620000726000801b336200007860201b60201c565b620001f1565b6200008a82826200008e60201b60201c565b5050565b620000a082826200017f60201b60201c565b6200017b57600160008084815260200190815260200160002060000160008373ffffffffffffffffffffffffffffffffffffffff1673ffffffffffffffffffffffffffffffffffffffff16815260200190815260200160002060006101000a81548160ff02191690831515021790555062000120620001e960201b60201c565b73ffffffffffffffffffffffffffffffffffffffff168173ffffffffffffffffffffffffffffffffffffffff16837f2f8788117e7eff1d82e926ec794901d17c78024a50270940304540a733656f0d60405160405180910390a45b5050565b600080600084815260200190815260200160002060000160008373ffffffffffffffffffffffffffffffffffffffff1673ffffffffffffffffffffffffffffffffffffffff16815260200190815260200160002060009054906101000a900460ff16905092915050565b600033905090565b61181780620002016000396000f3fe608060405234801561001057600080fd5b50600436106100e95760003560e01c80638da5cb5b1161008c578063a8692bf411610066578063a8692bf414610271578063b14f0b43146102a1578063d422f022146102bf578063d547741f146102ef576100e9565b80638da5cb5b1461020557806391d1485414610223578063a217fddf14610253576100e9565b8063248a9ca3116100c8578063248a9ca31461016d5780632f2ff15d1461019d57806336568abe146101b95780634c0f44fa146101d5576100e9565b806216e526146100ee57806301ffc9a71461011f57806316383b151461014f575b600080fd5b6101086004803603810190610103919061102a565b61030b565b604051610116929190611443565b60405180910390f35b610139600480360381019061013491906110f4565b61034f565b6040516101469190611390565b60405180910390f35b6101576103c9565b6040516101649190611428565b60405180910390f35b6101876004803603810190610182919061108f565b6103cf565b60405161019491906113ab565b60405180910390f35b6101b760048036038101906101b291906110b8565b6103ee565b005b6101d360048036038101906101ce91906110b8565b610417565b005b6101ef60048036038101906101ea9190611180565b61049a565b6040516101fc9190611315565b60405180910390f35b61020d6104d9565b60405161021a9190611315565b60405180910390f35b61023d600480360381019061023891906110b8565b6104ff565b60405161024a9190611390565b60405180910390f35b61025b610569565b60405161026891906113ab565b60405180910390f35b61028b6004803603810190610286919061111d565b610570565b6040516102989190611390565b60405180910390f35b6102a9610814565b6040516102b69190611428565b60405180910390f35b6102d960048036038101906102d49190611053565b61081a565b6040516102e69190611390565b60405180910390f35b610309600480360381019061030491906110b8565b6109ce565b005b60046020528060005260406000206000915090508060000154908060010160009054906101000a900473ffffffffffffffffffffffffffffffffffffffff16905082565b60007f7965db0b000000000000000000000000000000000000000000000000000000007bffffffffffffffffffffffffffffffffffffffffffffffffffffffff1916827bffffffffffffffffffffffffffffffffffffffffffffffffffffffff191614806103c257506103c1826109f7565b5b9050919050565b60025481565b6000806000838152602001908152602001600020600101549050919050565b6103f7826103cf565b61040881610403610a61565b610a69565b6104128383610b06565b505050565b61041f610a61565b73ffffffffffffffffffffffffffffffffffffffff168173ffffffffffffffffffffffffffffffffffffffff161461048c576040517f08c379a000000000000000000000000000000000000000000000000000000000815260040161048390611408565b60405180910390fd5b6104968282610be6565b5050565b600581815481106104aa57600080fd5b906000526020600020016000915054906101000a900473ffffffffffffffffffffffffffffffffffffffff1681565b600360009054906101000a900473ffffffffffffffffffffffffffffffffffffffff1681565b600080600084815260200190815260200160002060000160008373ffffffffffffffffffffffffffffffffffffffff1673ffffffffffffffffffffffffffffffffffffffff16815260200190815260200160002060009054906101000a900460ff16905092915050565b6000801b81565b60008060001b61058781610582610a61565b610a69565b82600460008773ffffffffffffffffffffffffffffffffffffffff1673ffffffffffffffffffffffffffffffffffffffff1681526020019081526020016000206000015410156105d657600080fd5b82600460008773ffffffffffffffffffffffffffffffffffffffff1673ffffffffffffffffffffffffffffffffffffffff16815260200190815260200160002060000160008282546106289190611543565b92505081905550600460008673ffffffffffffffffffffffffffffffffffffffff1673ffffffffffffffffffffffffffffffffffffffff16815260200190815260200160002060020160405180604001604052808581526020018673ffffffffffffffffffffffffffffffffffffffff1681525090806001815401808255809150506001900390600052602060002090600202016000909190919091506000820151816000015560208201518160010160006101000a81548173ffffffffffffffffffffffffffffffffffffffff021916908373ffffffffffffffffffffffffffffffffffffffff16021790555050508573ffffffffffffffffffffffffffffffffffffffff16639c2833b88585886040518463ffffffff1660e01b815260040161075593929190611359565b600060405180830381600087803b15801561076f57600080fd5b505af1158015610783573d6000803e3d6000fd5b5050505082600260008282546107999190611493565b925050819055508473ffffffffffffffffffffffffffffffffffffffff168673ffffffffffffffffffffffffffffffffffffffff167f6fa2e01603600253ebb88a18e4a821422a2b058bbd9902e950be6f39f85a91af86866040516107ff929190611330565b60405180910390a36001915050949350505050565b60015481565b60008060001b6108318161082c610a61565b610a69565b82600460008673ffffffffffffffffffffffffffffffffffffffff1673ffffffffffffffffffffffffffffffffffffffff1681526020019081526020016000206000018190555083600460008673ffffffffffffffffffffffffffffffffffffffff1673ffffffffffffffffffffffffffffffffffffffff16815260200190815260200160002060010160006101000a81548173ffffffffffffffffffffffffffffffffffffffff021916908373ffffffffffffffffffffffffffffffffffffffff1602179055508373ffffffffffffffffffffffffffffffffffffffff167ff2feaace1aa9e3af4957664b3956f1a39d69954de16c81f9a11220611fe613718460405161093f9190611428565b60405180910390a282600160008282546109599190611493565b925050819055506005849080600181540180825580915050600190039060005260206000200160009091909190916101000a81548173ffffffffffffffffffffffffffffffffffffffff021916908373ffffffffffffffffffffffffffffffffffffffff160217905550600191505092915050565b6109d7826103cf565b6109e8816109e3610a61565b610a69565b6109f28383610be6565b505050565b60007f01ffc9a7000000000000000000000000000000000000000000000000000000007bffffffffffffffffffffffffffffffffffffffffffffffffffffffff1916827bffffffffffffffffffffffffffffffffffffffffffffffffffffffff1916149050919050565b600033905090565b610a7382826104ff565b610b0257610a988173ffffffffffffffffffffffffffffffffffffffff166014610cc7565b610aa68360001c6020610cc7565b604051602001610ab79291906112db565b6040516020818303038152906040526040517f08c379a0000000000000000000000000000000000000000000000000000000008152600401610af991906113c6565b60405180910390fd5b5050565b610b1082826104ff565b610be257600160008084815260200190815260200160002060000160008373ffffffffffffffffffffffffffffffffffffffff1673ffffffffffffffffffffffffffffffffffffffff16815260200190815260200160002060006101000a81548160ff021916908315150217905550610b87610a61565b73ffffffffffffffffffffffffffffffffffffffff168173ffffffffffffffffffffffffffffffffffffffff16837f2f8788117e7eff1d82e926ec794901d17c78024a50270940304540a733656f0d60405160405180910390a45b5050565b610bf082826104ff565b15610cc357600080600084815260200190815260200160002060000160008373ffffffffffffffffffffffffffffffffffffffff1673ffffffffffffffffffffffffffffffffffffffff16815260200190815260200160002060006101000a81548160ff021916908315150217905550610c68610a61565b73ffffffffffffffffffffffffffffffffffffffff168173ffffffffffffffffffffffffffffffffffffffff16837ff6391f5c32d9c69d2a47ea670b442974b53935d1edc7fd64eb21e047a839171b60405160405180910390a45b5050565b606060006002836002610cda91906114e9565b610ce49190611493565b67ffffffffffffffff811115610d23577f4e487b7100000000000000000000000000000000000000000000000000000000600052604160045260246000fd5b6040519080825280601f01601f191660200182016040528015610d555781602001600182028036833780820191505090505b5090507f300000000000000000000000000000000000000000000000000000000000000081600081518110610db3577f4e487b7100000000000000000000000000000000000000000000000000000000600052603260045260246000fd5b60200101907effffffffffffffffffffffffffffffffffffffffffffffffffffffffffffff1916908160001a9053507f780000000000000000000000000000000000000000000000000000000000000081600181518110610e3d577f4e487b7100000000000000000000000000000000000000000000000000000000600052603260045260246000fd5b60200101907effffffffffffffffffffffffffffffffffffffffffffffffffffffffffffff1916908160001a90535060006001846002610e7d91906114e9565b610e879190611493565b90505b6001811115610f73577f3031323334353637383961626364656600000000000000000000000000000000600f861660108110610eef577f4e487b7100000000000000000000000000000000000000000000000000000000600052603260045260246000fd5b1a60f81b828281518110610f2c577f4e487b7100000000000000000000000000000000000000000000000000000000600052603260045260246000fd5b60200101907effffffffffffffffffffffffffffffffffffffffffffffffffffffffffffff1916908160001a905350600485901c945080610f6c9061163a565b9050610e8a565b5060008414610fb7576040517f08c379a0000000000000000000000000000000000000000000000000000000008152600401610fae906113e8565b60405180910390fd5b8091505092915050565b600081359050610fd08161176e565b92915050565b600081359050610fe581611785565b92915050565b600081359050610ffa8161179c565b92915050565b60008135905061100f816117b3565b92915050565b600081359050611024816117ca565b92915050565b60006020828403121561103c57600080fd5b600061104a84828501610fc1565b91505092915050565b6000806040838503121561106657600080fd5b600061107485828601610fc1565b925050602061108585828601611015565b9150509250929050565b6000602082840312156110a157600080fd5b60006110af84828501610fd6565b91505092915050565b600080604083850312156110cb57600080fd5b60006110d985828601610fd6565b92505060206110ea85828601610fc1565b9150509250929050565b60006020828403121561110657600080fd5b600061111484828501610feb565b91505092915050565b6000806000806080858703121561113357600080fd5b600061114187828801611000565b945050602061115287828801610fc1565b935050604061116387828801610fc1565b925050606061117487828801611015565b91505092959194509250565b60006020828403121561119257600080fd5b60006111a084828501611015565b91505092915050565b6111b281611577565b82525050565b6111c181611589565b82525050565b6111d081611595565b82525050565b60006111e18261146c565b6111eb8185611477565b93506111fb818560208601611607565b61120481611693565b840191505092915050565b600061121a8261146c565b6112248185611488565b9350611234818560208601611607565b80840191505092915050565b600061124d602083611477565b9150611258826116a4565b602082019050919050565b6000611270601783611488565b915061127b826116cd565b601782019050919050565b6000611293601183611488565b915061129e826116f6565b601182019050919050565b60006112b6602f83611477565b91506112c18261171f565b604082019050919050565b6112d5816115fd565b82525050565b60006112e682611263565b91506112f2828561120f565b91506112fd82611286565b9150611309828461120f565b91508190509392505050565b600060208201905061132a60008301846111a9565b92915050565b600060408201905061134560008301856111a9565b61135260208301846112cc565b9392505050565b600060608201905061136e60008301866111a9565b61137b60208301856112cc565b61138860408301846111a9565b949350505050565b60006020820190506113a560008301846111b8565b92915050565b60006020820190506113c060008301846111c7565b92915050565b600060208201905081810360008301526113e081846111d6565b905092915050565b6000602082019050818103600083015261140181611240565b9050919050565b60006020820190508181036000830152611421816112a9565b9050919050565b600060208201905061143d60008301846112cc565b92915050565b600060408201905061145860008301856112cc565b61146560208301846111a9565b9392505050565b600081519050919050565b600082825260208201905092915050565b600081905092915050565b600061149e826115fd565b91506114a9836115fd565b9250827fffffffffffffffffffffffffffffffffffffffffffffffffffffffffffffffff038211156114de576114dd611664565b5b828201905092915050565b60006114f4826115fd565b91506114ff836115fd565b9250817fffffffffffffffffffffffffffffffffffffffffffffffffffffffffffffffff048311821515161561153857611537611664565b5b828202905092915050565b600061154e826115fd565b9150611559836115fd565b92508282101561156c5761156b611664565b5b828203905092915050565b6000611582826115dd565b9050919050565b60008115159050919050565b6000819050919050565b60007fffffffff0000000000000000000000000000000000000000000000000000000082169050919050565b60006115d682611577565b9050919050565b600073ffffffffffffffffffffffffffffffffffffffff82169050919050565b6000819050919050565b60005b8381101561162557808201518184015260208101905061160a565b83811115611634576000848401525b50505050565b6000611645826115fd565b9150600082141561165957611658611664565b5b600182039050919050565b7f4e487b7100000000000000000000000000000000000000000000000000000000600052601160045260246000fd5b6000601f19601f8301169050919050565b7f537472696e67733a20686578206c656e67746820696e73756666696369656e74600082015250565b7f416363657373436f6e74726f6c3a206163636f756e7420000000000000000000600082015250565b7f206973206d697373696e6720726f6c6520000000000000000000000000000000600082015250565b7f416363657373436f6e74726f6c3a2063616e206f6e6c792072656e6f756e636560008201527f20726f6c657320666f722073656c660000000000000000000000000000000000602082015250565b61177781611577565b811461178257600080fd5b50565b61178e81611595565b811461179957600080fd5b50565b6117a58161159f565b81146117b057600080fd5b50565b6117bc816115cb565b81146117c757600080fd5b50565b6117d3816115fd565b81146117de57600080fd5b5056fea2646970667358221220c40b9baabb4146d5de7e6a0cc31069e3fb4c7d144c3c9015ae0355c9f66384db64736f6c63430008010033",
  "immutableReferences": {},
  "source": "// contracts/CO2CertRegistry.sol\n// SPDX-License-Identifier: Apache-2.0\npragma solidity ^0.8.0;\n\nimport \"@openzeppelin/contracts/access/AccessControl.sol\";\nimport \"./CO2Accounting.sol\";\n\ncontract CO2CertRegistry is AccessControl {\n\n   event ExternalCertificate(address indexed externalcertificate,uint co2eq);\n   event Compensation(CO2Accounting indexed co2event,address indexed certificate,address entity,uint co2eq);\n   uint256 public totalCertified = 0;\n   uint256 public totalCompensated = 0;\n\n   struct Spares {\n        uint256 co2eq;\n        address entity;\n   }\n\n   struct Certificate {\n        uint co2eq;\n        address externalId;\n        Spares[] spares;\n    }\n\n    address public owner;\n    mapping(address => Certificate) public certificates;\n\n    address[] public externalCertificates;\n\n    constructor() {\n        owner = msg.sender;\n        _setupRole(DEFAULT_ADMIN_ROLE, msg.sender);\n    }\n\n    function addCertificate(address certificate,uint co2eq) public onlyRole(DEFAULT_ADMIN_ROLE) virtual returns (bool) {\n        certificates[certificate].co2eq = co2eq;\n        certificates[certificate].externalId = certificate;\n        // certificates[certificate].spares = [];\n        emit ExternalCertificate(certificate,co2eq);\n        totalCertified += co2eq;\n        externalCertificates.push(certificate);\n        return true;\n    }\n\n\n     function compensate(CO2Accounting co2event,address certificate,address entity,uint co2eq) public onlyRole(DEFAULT_ADMIN_ROLE) virtual returns (bool) {\n         if( certificates[certificate].co2eq < co2eq ) revert();\n         certificates[certificate].co2eq -= co2eq;\n         certificates[certificate].spares.push(Spares({\n                co2eq: co2eq,\n                entity: entity\n         }));\n         co2event.compensation(entity,co2eq,certificate);\n         totalCompensated += co2eq;\n         emit Compensation(co2event,certificate,entity,co2eq);\n         return true;\n     }\n}\n",
  "sourcePath": "/home/zoernert/Development/co2event/contracts/CO2CertRegistry.sol",
  "compiler": {
    "name": "solc",
    "version": "0.8.1+commit.df193b15.Emscripten.clang"
  },
  "schemaVersion": "3.4.3",
  "updatedAt": "2021-10-13T13:17:00.800Z",
  "devdoc": {
    "kind": "dev",
    "methods": {
      "getRoleAdmin(bytes32)": {
        "details": "Returns the admin role that controls `role`. See {grantRole} and {revokeRole}. To change a role's admin, use {_setRoleAdmin}."
      },
      "grantRole(bytes32,address)": {
        "details": "Grants `role` to `account`. If `account` had not been already granted `role`, emits a {RoleGranted} event. Requirements: - the caller must have ``role``'s admin role."
      },
      "hasRole(bytes32,address)": {
        "details": "Returns `true` if `account` has been granted `role`."
      },
      "renounceRole(bytes32,address)": {
        "details": "Revokes `role` from the calling account. Roles are often managed via {grantRole} and {revokeRole}: this function's purpose is to provide a mechanism for accounts to lose their privileges if they are compromised (such as when a trusted device is misplaced). If the calling account had been granted `role`, emits a {RoleRevoked} event. Requirements: - the caller must be `account`."
      },
      "revokeRole(bytes32,address)": {
        "details": "Revokes `role` from `account`. If `account` had been granted `role`, emits a {RoleRevoked} event. Requirements: - the caller must have ``role``'s admin role."
      },
      "supportsInterface(bytes4)": {
        "details": "See {IERC165-supportsInterface}."
      }
    },
    "version": 1
  },
  "userdoc": {
    "kind": "user",
    "methods": {},
    "version": 1
  }
}