{
  "contractName": "CO2CertRegistry",
  "abi": [
    {
      "inputs": [],
      "stateMutability": "nonpayable",
      "type": "constructor"
    },
    {
      "anonymous": false,
      "inputs": [
        {
          "indexed": false,
          "internalType": "contract CO2Accounting",
          "name": "co2event",
          "type": "address"
        },
        {
          "indexed": false,
          "internalType": "address",
          "name": "certificate",
          "type": "address"
        },
        {
          "indexed": false,
          "internalType": "address",
          "name": "entity",
          "type": "address"
        },
        {
          "indexed": false,
          "internalType": "uint256",
          "name": "co2eq",
          "type": "uint256"
        }
      ],
      "name": "Compensation",
      "type": "event"
    },
    {
      "anonymous": false,
      "inputs": [
        {
          "indexed": false,
          "internalType": "address",
          "name": "externalcertificate",
          "type": "address"
        },
        {
          "indexed": false,
          "internalType": "uint256",
          "name": "co2eq",
          "type": "uint256"
        }
      ],
      "name": "ExternalCertificate",
      "type": "event"
    },
    {
      "anonymous": false,
      "inputs": [
        {
          "indexed": true,
          "internalType": "bytes32",
          "name": "role",
          "type": "bytes32"
        },
        {
          "indexed": true,
          "internalType": "bytes32",
          "name": "previousAdminRole",
          "type": "bytes32"
        },
        {
          "indexed": true,
          "internalType": "bytes32",
          "name": "newAdminRole",
          "type": "bytes32"
        }
      ],
      "name": "RoleAdminChanged",
      "type": "event"
    },
    {
      "anonymous": false,
      "inputs": [
        {
          "indexed": true,
          "internalType": "bytes32",
          "name": "role",
          "type": "bytes32"
        },
        {
          "indexed": true,
          "internalType": "address",
          "name": "account",
          "type": "address"
        },
        {
          "indexed": true,
          "internalType": "address",
          "name": "sender",
          "type": "address"
        }
      ],
      "name": "RoleGranted",
      "type": "event"
    },
    {
      "anonymous": false,
      "inputs": [
        {
          "indexed": true,
          "internalType": "bytes32",
          "name": "role",
          "type": "bytes32"
        },
        {
          "indexed": true,
          "internalType": "address",
          "name": "account",
          "type": "address"
        },
        {
          "indexed": true,
          "internalType": "address",
          "name": "sender",
          "type": "address"
        }
      ],
      "name": "RoleRevoked",
      "type": "event"
    },
    {
      "inputs": [],
      "name": "DEFAULT_ADMIN_ROLE",
      "outputs": [
        {
          "internalType": "bytes32",
          "name": "",
          "type": "bytes32"
        }
      ],
      "stateMutability": "view",
      "type": "function",
      "constant": true
    },
    {
      "inputs": [
        {
          "internalType": "address",
          "name": "",
          "type": "address"
        }
      ],
      "name": "certificates",
      "outputs": [
        {
          "internalType": "uint256",
          "name": "co2eq",
          "type": "uint256"
        },
        {
          "internalType": "address",
          "name": "externalId",
          "type": "address"
        }
      ],
      "stateMutability": "view",
      "type": "function",
      "constant": true
    },
    {
      "inputs": [
        {
          "internalType": "bytes32",
          "name": "role",
          "type": "bytes32"
        }
      ],
      "name": "getRoleAdmin",
      "outputs": [
        {
          "internalType": "bytes32",
          "name": "",
          "type": "bytes32"
        }
      ],
      "stateMutability": "view",
      "type": "function",
      "constant": true
    },
    {
      "inputs": [
        {
          "internalType": "bytes32",
          "name": "role",
          "type": "bytes32"
        },
        {
          "internalType": "address",
          "name": "account",
          "type": "address"
        }
      ],
      "name": "grantRole",
      "outputs": [],
      "stateMutability": "nonpayable",
      "type": "function"
    },
    {
      "inputs": [
        {
          "internalType": "bytes32",
          "name": "role",
          "type": "bytes32"
        },
        {
          "internalType": "address",
          "name": "account",
          "type": "address"
        }
      ],
      "name": "hasRole",
      "outputs": [
        {
          "internalType": "bool",
          "name": "",
          "type": "bool"
        }
      ],
      "stateMutability": "view",
      "type": "function",
      "constant": true
    },
    {
      "inputs": [],
      "name": "owner",
      "outputs": [
        {
          "internalType": "address",
          "name": "",
          "type": "address"
        }
      ],
      "stateMutability": "view",
      "type": "function",
      "constant": true
    },
    {
      "inputs": [
        {
          "internalType": "bytes32",
          "name": "role",
          "type": "bytes32"
        },
        {
          "internalType": "address",
          "name": "account",
          "type": "address"
        }
      ],
      "name": "renounceRole",
      "outputs": [],
      "stateMutability": "nonpayable",
      "type": "function"
    },
    {
      "inputs": [
        {
          "internalType": "bytes32",
          "name": "role",
          "type": "bytes32"
        },
        {
          "internalType": "address",
          "name": "account",
          "type": "address"
        }
      ],
      "name": "revokeRole",
      "outputs": [],
      "stateMutability": "nonpayable",
      "type": "function"
    },
    {
      "inputs": [
        {
          "internalType": "bytes4",
          "name": "interfaceId",
          "type": "bytes4"
        }
      ],
      "name": "supportsInterface",
      "outputs": [
        {
          "internalType": "bool",
          "name": "",
          "type": "bool"
        }
      ],
      "stateMutability": "view",
      "type": "function",
      "constant": true
    },
    {
      "inputs": [
        {
          "internalType": "address",
          "name": "certificate",
          "type": "address"
        },
        {
          "internalType": "uint256",
          "name": "co2eq",
          "type": "uint256"
        }
      ],
      "name": "addCertificate",
      "outputs": [
        {
          "internalType": "bool",
          "name": "",
          "type": "bool"
        }
      ],
      "stateMutability": "nonpayable",
      "type": "function"
    },
    {
      "inputs": [
        {
          "internalType": "contract CO2Accounting",
          "name": "co2event",
          "type": "address"
        },
        {
          "internalType": "address",
          "name": "certificate",
          "type": "address"
        },
        {
          "internalType": "address",
          "name": "entity",
          "type": "address"
        },
        {
          "internalType": "uint256",
          "name": "co2eq",
          "type": "uint256"
        }
      ],
      "name": "compensate",
      "outputs": [
        {
          "internalType": "bool",
          "name": "",
          "type": "bool"
        }
      ],
      "stateMutability": "nonpayable",
      "type": "function"
    }
  ],
  "bytecode": "0x60806040523480156200001157600080fd5b5033600160006101000a81548173ffffffffffffffffffffffffffffffffffffffff021916908373ffffffffffffffffffffffffffffffffffffffff160217905550620000686000801b336200006e60201b60201c565b620001e7565b6200008082826200008460201b60201c565b5050565b6200009682826200017560201b60201c565b6200017157600160008084815260200190815260200160002060000160008373ffffffffffffffffffffffffffffffffffffffff1673ffffffffffffffffffffffffffffffffffffffff16815260200190815260200160002060006101000a81548160ff02191690831515021790555062000116620001df60201b60201c565b73ffffffffffffffffffffffffffffffffffffffff168173ffffffffffffffffffffffffffffffffffffffff16837f2f8788117e7eff1d82e926ec794901d17c78024a50270940304540a733656f0d60405160405180910390a45b5050565b600080600084815260200190815260200160002060000160008373ffffffffffffffffffffffffffffffffffffffff1673ffffffffffffffffffffffffffffffffffffffff16815260200190815260200160002060009054906101000a900460ff16905092915050565b600033905090565b61164280620001f76000396000f3fe608060405234801561001057600080fd5b50600436106100a85760003560e01c80638da5cb5b116100715780638da5cb5b1461017657806391d1485414610194578063a217fddf146101c4578063a8692bf4146101e2578063d422f02214610212578063d547741f14610242576100a8565b806216e526146100ad57806301ffc9a7146100de578063248a9ca31461010e5780632f2ff15d1461013e57806336568abe1461015a575b600080fd5b6100c760048036038101906100c29190610e58565b61025e565b6040516100d592919061124a565b60405180910390f35b6100f860048036038101906100f39190610f22565b6102a2565b604051610105919061116d565b60405180910390f35b61012860048036038101906101239190610ebd565b61031c565b6040516101359190611188565b60405180910390f35b61015860048036038101906101539190610ee6565b61033b565b005b610174600480360381019061016f9190610ee6565b610364565b005b61017e6103e7565b60405161018b9190611129565b60405180910390f35b6101ae60048036038101906101a99190610ee6565b61040d565b6040516101bb919061116d565b60405180910390f35b6101cc610477565b6040516101d99190611188565b60405180910390f35b6101fc60048036038101906101f79190610f4b565b61047e565b604051610209919061116d565b60405180910390f35b61022c60048036038101906102279190610e81565b6106d9565b604051610239919061116d565b60405180910390f35b61025c60048036038101906102579190610ee6565b6107fc565b005b60026020528060005260406000206000915090508060000154908060010160009054906101000a900473ffffffffffffffffffffffffffffffffffffffff16905082565b60007f7965db0b000000000000000000000000000000000000000000000000000000007bffffffffffffffffffffffffffffffffffffffffffffffffffffffff1916827bffffffffffffffffffffffffffffffffffffffffffffffffffffffff19161480610315575061031482610825565b5b9050919050565b6000806000838152602001908152602001600020600101549050919050565b6103448261031c565b6103558161035061088f565b610897565b61035f8383610934565b505050565b61036c61088f565b73ffffffffffffffffffffffffffffffffffffffff168173ffffffffffffffffffffffffffffffffffffffff16146103d9576040517f08c379a00000000000000000000000000000000000000000000000000000000081526004016103d09061122a565b60405180910390fd5b6103e38282610a14565b5050565b600160009054906101000a900473ffffffffffffffffffffffffffffffffffffffff1681565b600080600084815260200190815260200160002060000160008373ffffffffffffffffffffffffffffffffffffffff1673ffffffffffffffffffffffffffffffffffffffff16815260200190815260200160002060009054906101000a900460ff16905092915050565b6000801b81565b60008060001b6104958161049061088f565b610897565b82600260008773ffffffffffffffffffffffffffffffffffffffff1673ffffffffffffffffffffffffffffffffffffffff1681526020019081526020016000206000015410156104e457600080fd5b82600260008773ffffffffffffffffffffffffffffffffffffffff1673ffffffffffffffffffffffffffffffffffffffff1681526020019081526020016000206000016000828254610536919061134a565b92505081905550600260008673ffffffffffffffffffffffffffffffffffffffff1673ffffffffffffffffffffffffffffffffffffffff16815260200190815260200160002060020160405180604001604052808581526020018673ffffffffffffffffffffffffffffffffffffffff1681525090806001815401808255809150506001900390600052602060002090600202016000909190919091506000820151816000015560208201518160010160006101000a81548173ffffffffffffffffffffffffffffffffffffffff021916908373ffffffffffffffffffffffffffffffffffffffff16021790555050508573ffffffffffffffffffffffffffffffffffffffff1663136f235b85856040518363ffffffff1660e01b8152600401610661929190611144565b600060405180830381600087803b15801561067b57600080fd5b505af115801561068f573d6000803e3d6000fd5b505050507f6fa2e01603600253ebb88a18e4a821422a2b058bbd9902e950be6f39f85a91af868686866040516106c894939291906111a3565b60405180910390a150949350505050565b60008060001b6106f0816106eb61088f565b610897565b82600260008673ffffffffffffffffffffffffffffffffffffffff1673ffffffffffffffffffffffffffffffffffffffff1681526020019081526020016000206000018190555083600260008673ffffffffffffffffffffffffffffffffffffffff1673ffffffffffffffffffffffffffffffffffffffff16815260200190815260200160002060010160006101000a81548173ffffffffffffffffffffffffffffffffffffffff021916908373ffffffffffffffffffffffffffffffffffffffff1602179055507ff2feaace1aa9e3af4957664b3956f1a39d69954de16c81f9a11220611fe6137184846040516107e9929190611144565b60405180910390a1600191505092915050565b6108058261031c565b6108168161081161088f565b610897565b6108208383610a14565b505050565b60007f01ffc9a7000000000000000000000000000000000000000000000000000000007bffffffffffffffffffffffffffffffffffffffffffffffffffffffff1916827bffffffffffffffffffffffffffffffffffffffffffffffffffffffff1916149050919050565b600033905090565b6108a1828261040d565b610930576108c68173ffffffffffffffffffffffffffffffffffffffff166014610af5565b6108d48360001c6020610af5565b6040516020016108e59291906110ef565b6040516020818303038152906040526040517f08c379a000000000000000000000000000000000000000000000000000000000815260040161092791906111e8565b60405180910390fd5b5050565b61093e828261040d565b610a1057600160008084815260200190815260200160002060000160008373ffffffffffffffffffffffffffffffffffffffff1673ffffffffffffffffffffffffffffffffffffffff16815260200190815260200160002060006101000a81548160ff0219169083151502179055506109b561088f565b73ffffffffffffffffffffffffffffffffffffffff168173ffffffffffffffffffffffffffffffffffffffff16837f2f8788117e7eff1d82e926ec794901d17c78024a50270940304540a733656f0d60405160405180910390a45b5050565b610a1e828261040d565b15610af157600080600084815260200190815260200160002060000160008373ffffffffffffffffffffffffffffffffffffffff1673ffffffffffffffffffffffffffffffffffffffff16815260200190815260200160002060006101000a81548160ff021916908315150217905550610a9661088f565b73ffffffffffffffffffffffffffffffffffffffff168173ffffffffffffffffffffffffffffffffffffffff16837ff6391f5c32d9c69d2a47ea670b442974b53935d1edc7fd64eb21e047a839171b60405160405180910390a45b5050565b606060006002836002610b0891906112f0565b610b12919061129a565b67ffffffffffffffff811115610b51577f4e487b7100000000000000000000000000000000000000000000000000000000600052604160045260246000fd5b6040519080825280601f01601f191660200182016040528015610b835781602001600182028036833780820191505090505b5090507f300000000000000000000000000000000000000000000000000000000000000081600081518110610be1577f4e487b7100000000000000000000000000000000000000000000000000000000600052603260045260246000fd5b60200101907effffffffffffffffffffffffffffffffffffffffffffffffffffffffffffff1916908160001a9053507f780000000000000000000000000000000000000000000000000000000000000081600181518110610c6b577f4e487b7100000000000000000000000000000000000000000000000000000000600052603260045260246000fd5b60200101907effffffffffffffffffffffffffffffffffffffffffffffffffffffffffffff1916908160001a90535060006001846002610cab91906112f0565b610cb5919061129a565b90505b6001811115610da1577f3031323334353637383961626364656600000000000000000000000000000000600f861660108110610d1d577f4e487b7100000000000000000000000000000000000000000000000000000000600052603260045260246000fd5b1a60f81b828281518110610d5a577f4e487b7100000000000000000000000000000000000000000000000000000000600052603260045260246000fd5b60200101907effffffffffffffffffffffffffffffffffffffffffffffffffffffffffffff1916908160001a905350600485901c945080610d9a90611465565b9050610cb8565b5060008414610de5576040517f08c379a0000000000000000000000000000000000000000000000000000000008152600401610ddc9061120a565b60405180910390fd5b8091505092915050565b600081359050610dfe81611599565b92915050565b600081359050610e13816115b0565b92915050565b600081359050610e28816115c7565b92915050565b600081359050610e3d816115de565b92915050565b600081359050610e52816115f5565b92915050565b600060208284031215610e6a57600080fd5b6000610e7884828501610def565b91505092915050565b60008060408385031215610e9457600080fd5b6000610ea285828601610def565b9250506020610eb385828601610e43565b9150509250929050565b600060208284031215610ecf57600080fd5b6000610edd84828501610e04565b91505092915050565b60008060408385031215610ef957600080fd5b6000610f0785828601610e04565b9250506020610f1885828601610def565b9150509250929050565b600060208284031215610f3457600080fd5b6000610f4284828501610e19565b91505092915050565b60008060008060808587031215610f6157600080fd5b6000610f6f87828801610e2e565b9450506020610f8087828801610def565b9350506040610f9187828801610def565b9250506060610fa287828801610e43565b91505092959194509250565b610fb78161137e565b82525050565b610fc681611390565b82525050565b610fd58161139c565b82525050565b610fe48161140e565b82525050565b6000610ff582611273565b610fff818561127e565b935061100f818560208601611432565b611018816114be565b840191505092915050565b600061102e82611273565b611038818561128f565b9350611048818560208601611432565b80840191505092915050565b600061106160208361127e565b915061106c826114cf565b602082019050919050565b600061108460178361128f565b915061108f826114f8565b601782019050919050565b60006110a760118361128f565b91506110b282611521565b601182019050919050565b60006110ca602f8361127e565b91506110d58261154a565b604082019050919050565b6110e981611404565b82525050565b60006110fa82611077565b91506111068285611023565b91506111118261109a565b915061111d8284611023565b91508190509392505050565b600060208201905061113e6000830184610fae565b92915050565b60006040820190506111596000830185610fae565b61116660208301846110e0565b9392505050565b60006020820190506111826000830184610fbd565b92915050565b600060208201905061119d6000830184610fcc565b92915050565b60006080820190506111b86000830187610fdb565b6111c56020830186610fae565b6111d26040830185610fae565b6111df60608301846110e0565b95945050505050565b600060208201905081810360008301526112028184610fea565b905092915050565b6000602082019050818103600083015261122381611054565b9050919050565b60006020820190508181036000830152611243816110bd565b9050919050565b600060408201905061125f60008301856110e0565b61126c6020830184610fae565b9392505050565b600081519050919050565b600082825260208201905092915050565b600081905092915050565b60006112a582611404565b91506112b083611404565b9250827fffffffffffffffffffffffffffffffffffffffffffffffffffffffffffffffff038211156112e5576112e461148f565b5b828201905092915050565b60006112fb82611404565b915061130683611404565b9250817fffffffffffffffffffffffffffffffffffffffffffffffffffffffffffffffff048311821515161561133f5761133e61148f565b5b828202905092915050565b600061135582611404565b915061136083611404565b9250828210156113735761137261148f565b5b828203905092915050565b6000611389826113e4565b9050919050565b60008115159050919050565b6000819050919050565b60007fffffffff0000000000000000000000000000000000000000000000000000000082169050919050565b60006113dd8261137e565b9050919050565b600073ffffffffffffffffffffffffffffffffffffffff82169050919050565b6000819050919050565b600061141982611420565b9050919050565b600061142b826113e4565b9050919050565b60005b83811015611450578082015181840152602081019050611435565b8381111561145f576000848401525b50505050565b600061147082611404565b915060008214156114845761148361148f565b5b600182039050919050565b7f4e487b7100000000000000000000000000000000000000000000000000000000600052601160045260246000fd5b6000601f19601f8301169050919050565b7f537472696e67733a20686578206c656e67746820696e73756666696369656e74600082015250565b7f416363657373436f6e74726f6c3a206163636f756e7420000000000000000000600082015250565b7f206973206d697373696e6720726f6c6520000000000000000000000000000000600082015250565b7f416363657373436f6e74726f6c3a2063616e206f6e6c792072656e6f756e636560008201527f20726f6c657320666f722073656c660000000000000000000000000000000000602082015250565b6115a28161137e565b81146115ad57600080fd5b50565b6115b98161139c565b81146115c457600080fd5b50565b6115d0816113a6565b81146115db57600080fd5b50565b6115e7816113d2565b81146115f257600080fd5b50565b6115fe81611404565b811461160957600080fd5b5056fea2646970667358221220a251a805c661c3f44662cf10089f84d8d7eafef05ef5af7cd14435811f5d65f964736f6c63430008010033",
  "immutableReferences": {},
  "source": "// contracts/CO2CertRegistry.sol\n// SPDX-License-Identifier: Apache-2.0\npragma solidity ^0.8.0;\n\nimport \"@openzeppelin/contracts/access/AccessControl.sol\";\nimport \"./CO2Accounting.sol\";\n\ncontract CO2CertRegistry is AccessControl {\n\n   event ExternalCertificate(address externalcertificate,uint co2eq);\n   event Compensation(CO2Accounting co2event,address certificate,address entity,uint co2eq);\n\n   struct Spares {\n        uint256 co2eq;\n        address entity;\n   }\n\n   struct Certificate {\n        uint co2eq;\n        address externalId;\n        Spares[] spares;\n    }\n\n    address public owner;\n    mapping(address => Certificate) public certificates;\n\n    constructor() {\n        owner = msg.sender;\n        _setupRole(DEFAULT_ADMIN_ROLE, msg.sender);\n    }\n\n    function addCertificate(address certificate,uint co2eq) public onlyRole(DEFAULT_ADMIN_ROLE) virtual returns (bool) {\n        certificates[certificate].co2eq = co2eq;\n        certificates[certificate].externalId = certificate;\n        // certificates[certificate].spares = [];\n        emit ExternalCertificate(certificate,co2eq);\n        return true;\n    }\n\n\n     function compensate(CO2Accounting co2event,address certificate,address entity,uint co2eq) public onlyRole(DEFAULT_ADMIN_ROLE) virtual returns (bool) {\n         if( certificates[certificate].co2eq < co2eq ) revert();\n         certificates[certificate].co2eq -= co2eq;\n         certificates[certificate].spares.push(Spares({\n                co2eq: co2eq,\n                entity: entity\n         }));\n         co2event.compensation(entity,co2eq);\n         emit Compensation(co2event,certificate,entity,co2eq);\n     }\n}\n",
  "sourcePath": "/home/zoernert/Development/co2event/contracts/CO2CertRegistry.sol",
  "compiler": {
    "name": "solc",
    "version": "0.8.1+commit.df193b15.Emscripten.clang"
  },
  "schemaVersion": "3.4.3",
  "updatedAt": "2021-10-10T11:53:23.773Z",
  "networkType": "ethereum",
  "devdoc": {
    "kind": "dev",
    "methods": {
      "getRoleAdmin(bytes32)": {
        "details": "Returns the admin role that controls `role`. See {grantRole} and {revokeRole}. To change a role's admin, use {_setRoleAdmin}."
      },
      "grantRole(bytes32,address)": {
        "details": "Grants `role` to `account`. If `account` had not been already granted `role`, emits a {RoleGranted} event. Requirements: - the caller must have ``role``'s admin role."
      },
      "hasRole(bytes32,address)": {
        "details": "Returns `true` if `account` has been granted `role`."
      },
      "renounceRole(bytes32,address)": {
        "details": "Revokes `role` from the calling account. Roles are often managed via {grantRole} and {revokeRole}: this function's purpose is to provide a mechanism for accounts to lose their privileges if they are compromised (such as when a trusted device is misplaced). If the calling account had been granted `role`, emits a {RoleRevoked} event. Requirements: - the caller must be `account`."
      },
      "revokeRole(bytes32,address)": {
        "details": "Revokes `role` from `account`. If `account` had been granted `role`, emits a {RoleRevoked} event. Requirements: - the caller must have ``role``'s admin role."
      },
      "supportsInterface(bytes4)": {
        "details": "See {IERC165-supportsInterface}."
      }
    },
    "version": 1
  },
  "userdoc": {
    "kind": "user",
    "methods": {},
    "version": 1
  }
}